:10000000CCC10000FBC10000F9C10000F7C1000035
:10001000F5C10000F3C10000F1C10000EFC1000014
:10002000EDC10000EBC10000E9C10000E7C1000024
:10003000E5C10000E3C10000E1C10000DFC1000034
:10004000DDC10000DBC10000D9C10000D7C1000044
:10005000D5C10000D3C10000D1C1000025C50000FA
:10006000CDC10000E7C30000BCC30000C7C1000051
:10007000C5C10000C3C10000C1C10000BFC1000074
:10008000BDC10000BBC10000B9C10000B7C1000084
:10009000B5C10000B3C10000B1C100004FC50000F0
:1000A000ADC10000ABC10000A9C10000A7C10000A4
:1000B000A5C10000A3C10000A1C100009FC10000B4
:1000C0009DC100009BC1000099C1000097C10000C4
:1000D00095C1000093C1000091C100008FC10000D4
:1000E0008DC100006B046E045D0461046704A50407
:1000F000720476047C04800484048A048E049204CE
:10010000A50498049C04A0044E0C530C580C620CDB
:100110006C0CE50C760C7E0C860C900C9A0CA40CE6
:10012000B30CBD0CE50CC70CD10CDB0C4E414E4999
:100130004E495459494E46CDCCCC3D0AD7233C17A5
:10014000B7D13877CC2B329595E6241FB14F0A00F2
:100150000020410000C84200401C4620BCBE4CCAE2
:100160001B0E5AAEC59D74000020002300260029F6
:10017000002C002F003200000100000301060109DD
:100180000105050505070508080808020202020A1C
:100190000A0808040404040101010101010101032A
:1001A00003030303030303040707070C0C0C0C0CE5
:1001B0000C0C0C0202020206060606060606060BD8
:1001C0000B0B0B0B0B0B0B0102102020080810204F
:1001D00040102040800201020108040201010204D3
:1001E0000810204080804020100804020180040292
:1001F00001804020100804020108040201010204E9
:10020000081020408001020408102040806F6666BC
:10021000736574203D20002C20002C204761696EFE
:10022000203D20004368203D200043616C696272DC
:100230006174696E6720666F7220494E4C000A0A2D
:1002400043616C6962726174696F6E20436F6D7097
:100250006C6574652E002C20494E4C203D20005DBD
:10026000203E20444E4C203D20005D5B00635B003F
:100270000A0A536176656420446174613A004361FF
:100280006C6962726174696F6E2068617320626567
:1002900067756E2E0A004B696E646C792072656D0D
:1002A0006F76652074686520444D4D2E00456E7450
:1002B000657220766F6C746167652061742063617C
:1002C0006C6962726174696F6E2070696E20285665
:1002D000293A20007665723D00506879734C6F674B
:1002E000676572315F310000002100240027002A79
:1002F000002D003000330001010000040107010A55
:100300000100002200250028002B002E00310034BF
:100310000002010000050108010B0100000A0B02A8
:10032000090C0D0E08070304010000000000000086
:1003300000000000000000000000000000000000BD
:10034000000000000000001211100000000000007A
:10035000000000000000000000000000000000009D
:100360000063203D20002C20002C206D203D20002B
:100370002C2056204170706C696564203D20002C53
:100380002050574D203D20002C204761696E203DB4
:1003900020004368203D2000521811241FBECFEFDB
:1003A000D1E2DEBFCDBF00E00CBF12E0A0E0B2E0C2
:1003B000EEE4FFE300E00BBF02C007900D92A43E05
:1003C000B107D9F725E0A4EEB2E001C01D92A13734
:1003D000B207E1F711E0CDECD1E000E006C02197D3
:1003E0000109802FFE010E94881DCC3CD10780E0CE
:1003F0000807A9F70E944C0F0C94A51F01CEFC0121
:10040000538D448D252F30E0842F90E0821B930B79
:10041000541710F0CF96089501970895FC01918D1F
:10042000828D981761F0828DDF01A80FB11D5D9656
:100430008C91928D9F5F9F73928F90E008958FEFC4
:100440009FEF0895FC01918D828D981731F0828D78
:10045000E80FF11D858D90E008958FEF9FEF0895CF
:10046000FC01918D228D892F90E0805C9F4F821B33
:1004700091098F73992708958DE094E0F1DF21E0D1
:10048000892B09F420E0822F0895FC01848DDF017F
:10049000A80FB11DA35ABF4F2C91848D90E00196F7
:1004A0008F739927848FA689B7892C93A089B189E6
:1004B0008C91837080648C93938D848D981306C087
:1004C0000288F389E02D80818F7D80830895EF92EB
:1004D000FF920F931F93CF93DF93EC0181E0888FFE
:1004E0009B8D8C8D981305C0E889F989808185FDE5
:1004F00025C0F62E0B8D10E00F5F1F4F0F731127D5
:10050000E02E8C8DE8120BC00FB607FCFACFE889FD
:10051000F989808185FFF5CFCE01B7DFF2CF8B8DD2
:10052000FE01E80FF11DE35AFF4FF0829FB7F894E8
:100530000B8FEA89FB89808180620AC09FB7F8949B
:10054000EE89FF896083E889F989808183708064FE
:1005500080839FBF81E090E0DF91CF911F910F9149
:10056000FF90EF900895CF93DF93EC01888D88235F
:10057000C1F0EA89FB89808185FD05C0A889B98918
:100580008C9186FD0EC00FB607FCF5CF808185FFEC
:10059000F2CFA889B9898C9185FFEDCFCE0175DFA7
:1005A000E8CFDF91CF91089580E090E0892B19F09A
:1005B00063DF811125C080E090E0892B41F080E06D
:1005C00090E0892B21F00E94000081111CC080E086
:1005D00090E0892B41F080E090E0892B21F00E948F
:1005E0000000811113C080E090E0892BA1F080E031
:1005F00090E0892B81F00E94000081110AC00895CB
:100600000E940000D8CF0E940000E1CF0E940000AD
:10061000EACF0C94000008953FB7F8948091090444
:1006200090910A04A0910B04B0910C0426B5A89BEC
:1006300005C02F3F19F00196A11DB11D3FBFBA2F74
:10064000A92F982F8827820F911DA11DB11DBC01D4
:10065000CD0142E0660F771F881F991F4A95D1F799
:10066000089585ED8093BC008091BC0084FDFCCF93
:1006700010926A0508954091E103262F30E0240F7F
:10068000311D21323105DCF420916A052430C9F492
:10069000FC0180E090E0861758F43091E10321914D
:1006A000DC01AF53BC4FA30FB11D2C930196F3CFC8
:1006B0008091E103680F6093E10380E0089581E099
:1006C000089582E00895089508950895E091EB0259
:1006D0008091EA02E81730F4F0E0EC5DFA4F808197
:1006E00090E008958FEF9FEF08959091EB02809135
:1006F000EA02981750F4E92FF0E0EC5DFA4F208100
:1007000030E09F5F9093EB0202C02FEF3FEFC901F3
:1007100008958091EA0290E02091EB02821B9109FA
:100720000895CF92DF92EF92FF920F931F93CF9392
:10073000DF937C01CB018A012091C003222389F041
:10074000EB016B01C40ED51ECC15DD0561F069917E
:10075000D701ED91FC910190F081E02DC701199531
:10076000F3CF642F88DFC801DF91CF911F910F91E4
:10077000FF90EF90DF90CF900895CF93DF931F927B
:10078000CDB7DEB769832091C0032223D1F0209139
:10079000E802203240F021E030E0FC013383228384
:1007A00080E090E014C08091E902E82FF0E0E0568C
:1007B000FC4F998190838F5F8093E9028093E802D8
:1007C00004C061E0CE01019656DF81E090E00F9019
:1007D000DF91CF910895089580E090E008950E9400
:1007E000911F1F920F920FB60F9211240BB60F920A
:1007F0002F933F934F935F936F937F938F939F9329
:10080000AF93BF93EF93FF938DE094E03EDEFF91B3
:10081000EF91BF91AF919F918F917F916F915F9178
:100820004F913F912F910F900BBE0F900FBE0F90E5
:100830001F9018951F920F920FB60F9211240BB6AE
:100840000F922F938F939F93EF93FF93E0911D044B
:10085000F0911E048081E0912304F091240482FD34
:1008600012C09081809126048F5F8F73209127049E
:10087000821751F0E0912604F0E0E35FFB4F958F83
:100880008093260401C08081FF91EF919F918F9109
:100890002F910F900BBE0F900FBE0F901F901895C9
:1008A00090E0FC013197E231F10508F04EC0882755
:1008B000EE58FF4F8F4F0C94881D809180008F77EA
:1008C00003C0809180008F7D809380000895809187
:1008D0008000877FF9CF84B58F7702C084B58F7D84
:1008E00084BD08958091B0008F7703C08091B000DF
:1008F0008F7D8093B0000895809190008F7707C01E
:10090000809190008F7D03C080919000877F8093BD
:10091000900008958091A0008F7707C08091A0007B
:100920008F7D03C08091A000877F8093A0000895F1
:10093000809120018F7707C0809120018F7D03C0B7
:1009400080912001877F8093200108951F93CF938A
:10095000DF93282F30E0F901E55EFC4F8491F90127
:10096000E953FE4FD491F901EF57FE4FC491CC23C8
:10097000B9F0162F811194DFEC2FF0E0EE0FFF1F7E
:10098000EF5FFC4FA591B4919FB7F894111104C08B
:100990008C91D095D82302C0EC91DE2BDC939FBFC5
:1009A000DF91CF911F910895CF93DF9390E0FC01E9
:1009B000E953FE4F2491FC01EF57FE4F84918823A9
:1009C00061F190E0880F991FFC01E951FD4FC5913D
:1009D000D491FC01EF5FFC4FA591B491611109C066
:1009E0009FB7F8948881209582238883EC912E23E9
:1009F0000BC0623061F49FB7F8948881322F309534
:100A000083238883EC912E2B2C939FBF06C08FB736
:100A1000F894E8812E2B28838FBFDF91CF91089522
:100A20008F929F92AF92BF92CF92DF92EF92FF92FE
:100A30006B017C01F1DD4B015C01C114D104E104C7
:100A4000F104E9F0E9DDDC01CB0188199909AA0973
:100A5000BB09883E9340A105B10578F321E0C21A95
:100A6000D108E108F10888EE880E83E0981EA11CE9
:100A7000B11CC114D104E104F10421F7DECFFF90D1
:100A8000EF90DF90CF90BF90AF909F908F900895A0
:100A90002FB7F894609105047091060480910704C3
:100AA000909108042FBF08951F920F920FB60F92D6
:100AB00011242F933F938F939F93AF93BF93809174
:100AC000050490910604A0910704B09108043091A8
:100AD000040423E0230F2D3720F40196A11DB11D3E
:100AE00005C026E8230F0296A11DB11D2093040422
:100AF0008093050490930604A0930704B093080420
:100B00008091090490910A04A0910B04B0910C0407
:100B10000196A11DB11D8093090490930A04A0932E
:100B20000B04B0930C04BF91AF919F918F913F91B3
:100B30002F910F900FBE0F901F9018951F920F923C
:100B40000FB60F9211240BB60F922F933F934F9332
:100B50005F936F937F938F939F93AF93BF93EF9325
:100B6000FF938091B900887F803609F49CC068F5B6
:100B7000883209F45BC090F4803109F454C038F431
:100B8000882309F4F6C0883009F44DC0F5C08831D7
:100B900009F44CC0803209F45DC0EEC0803409F421
:100BA00068C048F4803309F455C0883309F0E4C0C4
:100BB00080936805D8C0803509F44FC0883509F4A2
:100BC0005DC0883409F0D8C0D6C0883909F4C7C0E0
:100BD000A8F4883709F467C038F4883609F463C08C
:100BE000803709F460C0C8C0883809F4B8C08039BB
:100BF00009F45FC0803809F0BFC05BC0803B09F4D6
:100C000086C038F4803A09F466C0883A09F47FC097
:100C1000B3C0803C09F4A7C0883C09F4A4C0883B59
:100C200009F48AC0A9C08091650510C0909167053C
:100C300080916605981770F5E091670581E08E0F49
:100C400080936705F0E0EC5BFA4F80818093BB00F6
:100C500085EC86C0809368058EC0E091670581E0D1
:100C60008E0F809367058091BB00F0E0EC5BFA4F3C
:100C7000808390916705809166056EC0E09167055D
:100C800081E08E0F809367058091BB00F0E0EC5B04
:100C9000FA4F80838091690581116DC081E0809356
:100CA000640584EA61C083E080936A0510920304BE
:100CB000CFCF80910304803208F051C0E09103044B
:100CC00081E08E0F809303048091BB00F0E0ED5132
:100CD000FC4F8083BDCF85EC8093BC0010926A05E9
:100CE00080910304803230F4E0910304F0E0ED5190
:100CF000FC4F10826091030470E0E091E402F091F7
:100D0000E50283EE93E019951092030435C084E068
:100D100080936A051092E2031092E103E091E602EB
:100D2000F091E70219958091E103811105C081E0FE
:100D30008093E1031092C103E091E20381E08E0F02
:100D40008093E203F0E0EF53FC4F80818093BB007F
:100D50009091E2038091E103981708F479CF85E838
:100D60008093BC0009C085EC8093BC0010926A059A
:100D700003C01092680575DCFF91EF91BF91AF91B0
:100D80009F918F917F916F915F914F913F912F91A3
:100D90000F900BBE0F900FBE0F901F901895CF9322
:100DA000DF936770C22FD0E0FE0133E0EE0FFF1F2C
:100DB0003A95E1F7E62BDC019096EC93222359F06B
:100DC000FC01DA01CD01841B950B8C179D0718F4EB
:100DD0008D918193F7CFDF91CF910895EF92FF929C
:100DE0000F931F93CF93DF93FC0166816623E9F095
:100DF000613208F060E2EC0188813DD71092EB028D
:100E00008093EA0200E010E08E8190E00817190755
:100E100064F4EC80FD80E00EF11E8AEA94E065DC6B
:100E2000F70180830F5F1F4FEFCFDF91CF911F91AD
:100E30000F91FF90EF9008950F931F93CF93DF933F
:100E4000EC01062F188181E08093C00310939F036B
:100E50001092E9021092E8028AEA94E08EDC909106
:100E6000E802913208F045C080916A058111FCCFFB
:100E700082E080936A0581E0809369058FEF80931B
:100E800068051092670590936605E0EAF3E0A4E434
:100E9000B5E080E0981721F021912D938F5FFACF74
:100EA0001092650580916505110F182B109365054B
:100EB00080916405813061F410926405809165052C
:100EC0008093BB008091BC0083FDF8CF85EC01C00E
:100ED00085EE8093BC0080916A058230E1F38091B9
:100EE00068058F3F31F080916805803211F0809164
:100EF00068051092E9021092E8021092C0030B8379
:100F000061E08881B8D61092EB028093EA028823D0
:100F100081F08AEA94E0E9DB8E838C819D810E94D6
:100F2000281E8E8190E00E94901D9D838C8381E01D
:100F300001C080E0DF91CF911F910F9108950C9433
:100F4000171C0F931F93CF93DF9311E007E080915D
:100F50004C0390914D03089FE001099FD00D11248F
:100F6000CA54DB4F188361E0CE0166DF811106C0F1
:100F7000EC81FD8110821A82188222C0CE012EDF00
:100F8000EC81FD81808181508E3FD0F41883808177
:100F90008A8362E0CE0150DFCE0120DFEC81FD814B
:100FA0008081898363E0CE0147DF80914C0390917B
:100FB0004D03019690934D0380934C03069724F4C0
:100FC0001F5F103809F0C3CFDF91CF911F910F91B0
:100FD00008959F92AF92BF92CF92DF92EF92FF92CD
:100FE0000F931F93CF93DF93CDB7DEB7E4970FB680
:100FF000F894DEBF0FBECDBF1AA619A61CA61BA66D
:101000001EA61DA669ED72E0CE018996E3D61A826E
:1010100019821C821B821E821D8264ED72E0CE0149
:101020000196D8D6BE016F5F7F4FCE018396F8D66A
:101030000DA51EA5E9A4FAA4E114F10409F49CC0CD
:1010400001151105B1F08FA198A5080F191FB8015E
:10105000CE01839686D6882309F48EC02BA13CA1AD
:101060008FA198A5B701820F931F0E949E1F18A7FA
:101070000FA3BE016D5D7F4FCE018F96D1D68BA1A0
:101080009CA10E94281E89819A810E94281E89A500
:101090009AA50E94281E4FA558A92BA961E0CE0150
:1010A00001967DDECE01019656D130910C02209141
:1010B0000D0290910E0280910F023BA32CA39DA3E1
:1010C0008EA324E0AE014D5D5F4F65E0CE01019639
:1010D00066DECE0101963FD18CEEA82E82E0B82EBE
:1010E00098E2C92E92E0D92E10E02CE5922EE12C48
:1010F000F12C00E099A219821A830B83F501EE0D01
:10110000FF1D30812181928183813C832D839E83C9
:101110008F83F601EE0DFF1D308121819281838145
:10112000388729879A878B87CE01019614D10F5F64
:1011300084E0E80EF11C0330E9F61F5F8CE0A80E96
:10114000B11C8CE0C80ED11C183089F68FA598A967
:101150000E94281EE4960FB6F894DEBF0FBECDBFE6
:10116000DF91CF911F910F91FF90EF90DF90CF9083
:10117000BF90AF909F900895CE01839619D679CFF6
:10118000FA0193E0899FE00DF11D112470E0E60F54
:10119000F71F908195FF04C090917B00986003C079
:1011A00090917B00977F90937B0090819F71906CD2
:1011B00090937C0090917A00906890937A0090913F
:1011C0007A00906490937A0090917A0096FDFCCF1B
:1011D000909178004091790020917A002F772093A8
:1011E0007A00292F30E08430D8F4942F9170B92FF1
:1011F000A0E02A2B3B2B41FD325090E0AC01440F84
:10120000551F840F951F87569D4FFC01E60FF71F52
:101210008081882319F0319521953109C9010895FC
:101220004370C901942B0895EF92FF920F931F937F
:10123000CF93DF937C018C01C8ECD0E0CE010E94FB
:101240000F1CF80181938F012196CC3CD105B1F799
:10125000C701DF91CF911F910F91FF90EF900895FB
:10126000DF92EF92FF920F931F93CF93DF937C0156
:101270008C01C8ECD0E0F801D1908F01CE010E9422
:101280000F1CD81621F06D2DCE010E94171C21963F
:10129000CC3CD10581F7C701DF91CF911F910F9110
:1012A000FF90EF90DF9008954F925F926F927F9240
:1012B0008F929F92AF92BF92CF92DF92EF92FF9266
:1012C000CF93DF93C82FD62FE3DB2B013C01812C7A
:1012D000912C5401C12CD12C7601DADBDC01CB013D
:1012E00084199509A609B709883C9105A105B1059E
:1012F000C8F440E152E06D2F8C2F42DFBC01990F02
:10130000880B990B0E94F91A9B01AC01C701B60129
:101310000E94831C6B017C018FEF881A980AA80A2F
:10132000B80ADBCFC501B4010E94F71A9B01AC01DA
:10133000C701B6010E94E71CDF91CF91FF90EF90AB
:10134000DF90CF90BF90AF909F908F907F906F90E5
:101350005F904F900895CF93DF93EC016AEA8DE0A0
:1013600094E0B5D868A185E58627FE01262F30E0F8
:1013700093E0359527959A95E1F72C0F3D1FE217DD
:10138000F30719F091918927FACF89A38DE094E0B2
:101390009ED869A18DE094E09AD848A150E083E0FE
:1013A000559547958A95E1F74115510531F0BE01F4
:1013B0008DE094E0DF91CF9110C3DF91CF9108953C
:1013C000009761F0FC0101900020E9F73197AF012F
:1013D000481B590BBC018DE094E0FFC280E090E017
:1013E00008958F929F92AF92BF920F931F93CF93C6
:1013F000DF93CDB7DEB7A1970FB6F894DEBF0FBE6F
:10140000CDBF19A2423008F44AE08E010F5D1F4F94
:10141000842E912CA12CB12CA50194010E94511C69
:10142000E62FB901CA0101501109EA3014F4E05D58
:1014300001C0E95CD801EC93232B242B252B61F709
:10144000C801BEDFA1960FB6F894DEBF0FBECDBFB8
:10145000DF91CF911F910F91BF90AF909F908F9090
:1014600008958F929F92AF92BF92CF92DF92EF92A8
:10147000FF920F931F93CF93DF936B017C01142F87
:101480009B01AC010E94841D882319F088ED92E035
:1014900027C046015701E894B7F82FEF3FEF4FE719
:1014A0005FE7C501B4010E94841D81110DC02FEFBB
:1014B0003FEF4FE75FE7C501B4010E94F31A18162A
:1014C0001CF48CED92E00CC02FEF3FEF4FE75FE490
:1014D000C701B6010E94801D18167CF480EE92E0D0
:1014E000DF91CF911F910F91FF90EF90DF90CF9000
:1014F000BF90AF909F908F9063CF2FEF3FEF4FE75C
:101500005FECC701B6010E94F31A87FDE7CF20E028
:1015100030E0A901C701B6010E94F31A87FF0BC092
:101520006DE28DE094E00E946702EC01F7FAF0941E
:10153000F7F8F09402C0C0E0D0E000E060E070E0B6
:1015400080E09FE3101741F020E030E040E251E4FA
:101550000E94E71C0F5FF6CFA70196010E94831C33
:101560006B017C010E94541D4B015C014AE039DF94
:10157000C80FD91F1123B1F1C501B4010E94F71A98
:101580009B01AC01C701B6010E94821C6B017C016A
:101590006EE28DE094E00E946702C80FD91F20E040
:1015A00030E040E251E4C701B6010E94581B4B01F4
:1015B0005C010E94541D6B01E12CF12C4AE0C70133
:1015C000B6010FDFC80FD91FC701B6010E94F71A75
:1015D0009B01AC01C501B4010E94821C6B017C011E
:1015E0001150E9F6CE01DF91CF911F910F91FF903D
:1015F000EF90DF90CF90BF90AF909F908F90089525
:10160000CF93DF9343E02DDFEC0185ED92E0D8DE50
:101610008C0F9D1FDF91CF9108950F931F93CF9350
:10162000DF938C01C0E0D0E0F801EC0FFD1F649166
:10163000662341F08DE094E00E946702892B11F04F
:101640002196F2CFCE01DF91CF911F910F91089596
:10165000CF92DF92EF92FF92CF93DF9397FF1AC062
:101660006B017C016DE28DE094E00E946702EC0169
:1016700066277727CB016C197D098E099F094AE0FF
:10168000B0DE8C0F9D1FDF91CF91FF90EF90DF9028
:10169000CF9008954AE0DF91CF91FF90EF90DF90D7
:1016A000CF909FCECF93DF93B8DFEC0185ED92E032
:1016B00087DE8C0F9D1FDF91CF9108952F923F926F
:1016C0004F925F926F927F928F929F92AF92BF9252
:1016D000CF92DF92EF92FF920F931F93CF93DF93FE
:1016E00000D000D0CDB7DEB72C013B0100E010E008
:1016F0005201A00EB11EE12CF12C1301200E311E5F
:10170000F50181919191A191B1915F0189839A83B2
:10171000AB83BC83CE0101969E838D83C12CD12CDB
:1017200041018E0C9F1CED81FE816191FE83ED8352
:10173000C4018C0D9D1D0E94171CFFEFCF1ADF0AFC
:1017400084E0C816D10479F794E0E90EF11CECE0CE
:10175000EE16F104A9F6045F1F4F0036110541F69D
:1017600026960FB6F894DEBF0FBECDBFDF91CF91A6
:101770001F910F91FF90EF90DF90CF90BF90AF90AF
:101780009F908F907F906F905F904F903F902F90A1
:1017900008952F923F924F925F926F927F928F9215
:1017A0009F92AF92BF92CF92DF92EF92FF920F93F0
:1017B0001F93CF93DF9300D01F92CDB7DEB71C01EC
:1017C00020E6220E311C8C01CE0101965C012E0117
:1017D00095E0490E511C3B016A187B08601A710A9A
:1017E0006801ECE0CE0ED11C75014801860C971CF7
:1017F000C4018E0D9F1D0E940F1CF70181937F0174
:101800004E165F06A9F789819A81AB81BC81F801E8
:1018100081939193A193B1938F01CE16DF0621F7A7
:101820008601C214D304E1F60F900F900F900F9031
:10183000DF91CF911F910F91FF90EF90DF90CF90AC
:10184000BF90AF909F908F907F906F905F904F90E0
:101850003F902F900895CF93DF93EC0161E088E0F3
:10186000A3D8209711F460E004C0CF3FD10529F43C
:1018700061E088E0DF91CF9169C8E3E2F3E0E491B1
:101880008E2F90E0FC013197E231F10508F09DC008
:101890008827EC57FF4F8F4F0C94881D84B58068C4
:1018A00084BDC7BD97C084B5806284BDC8BD92C0E9
:1018B00080918000806880938000D0938900C093DD
:1018C000880088C080918000806280938000D093DF
:1018D0008B00C0938A007EC08091800088608093D6
:1018E0008000D0938D00C0938C0074C08091B000B4
:1018F00080688093B000C093B3006CC08091B0004A
:1019000080628093B000C093B40064C08091900066
:10191000806880939000D0939900C09398005AC03B
:1019200080919000806280939000D0939B00C09340
:101930009A0050C080919000886080939000D0936E
:101940009D00C0939C0046C08091A0008068809359
:10195000A0008091A0008F7B8093A000D093A9006D
:10196000C093A80037C08091A00080628093A0003F
:10197000D093AB00C093AA002DC08091A0008860D6
:101980008093A000D093AD00C093AC0023C08091A1
:101990002001806880932001D0932901C093280101
:1019A00019C080912001806280932001D0932B0187
:1019B000C0932A010FC0809120018860809320018C
:1019C000D0932D01C0932C0105C0C038D1050CF077
:1019D0004FCF49CFDF91CF910895CF92DF92EF9211
:1019E000FF920F931F93CF93DF936C017A018B01CA
:1019F000C0E0D0E0CE15DF0581F0D8016D918D01FA
:101A0000D601ED91FC910190F081E02DC601199570
:101A1000892B11F02196EECF7E01C701DF91CF9186
:101A20001F910F91FF90EF90DF90CF9008952F922C
:101A30003F924F925F926F927F928F929F92AF925E
:101A4000BF92CF92DF92EF92FF920F931F93CF93AB
:101A5000DF93C82FD62F39014A01843040F4662322
:101A600031F0613031F03501460111E005C01FEF62
:101A700003C03701480119E1812F90E0ECDE68E7EF
:101A800075E080E090E00E9410056D2F8C2FC4302F
:101A900040F40ADC20E030E040E05BE30E94581BA9
:101AA00007C002DC20E030EC4FE754E40E94E71C62
:101AB0002AE037ED43E250E40E94581B2EE338EF52
:101AC00040E850E40E94581B6B017C0180E090E0EC
:101AD000C2DE68E775E080E090E00E9410056D2F9F
:101AE0008C2FC430D0F4E0DB20E030E040E05BE35A
:101AF0000E94581B2AE037ED43E250E40E94581B35
:101B00002EE338EF40E850E40E94581BD1111BC06F
:101B100020E030E040E85FE321C0C6DB20E030ECAD
:101B20004FE754E40E94E71C2AE037ED43E250E41B
:101B30000E94581B2EE338EF40E850E40E94581BE7
:101B40001B012C0127C0D13029F020E030E048E40F
:101B500053E404C020E030E040E251E40E94E71C7E
:101B60001B012C01DD2339F0D13051F020E030E0B1
:101B700048E453E409C020E030E040E85FE304C0FB
:101B800020E030E040E251E4C701B6010E94E71CCA
:101B90006B017C01A2019101C701B6010E94821C68
:101BA0009B01AC01B301C4010E94E71C6B017C01E5
:101BB00082E993E032DD6C2F70E080E090E04AE053
:101BC00010DC88E893E029DD6D2F70E080E090E084
:101BD0004AE007DC8FE793E020DD612F70E080E0D2
:101BE00090E04AE0FEDB80E793E017DD43E0B301DD
:101BF000C40137DC89E693E010DD43E0C701B6019C
:101C000030DC86E693E009DD81E693E006DDA7019E
:101C10009601C201B1010E94581B9B01AC0160E01A
:101C200070E0CB010E94821CEBDC8C2F90E0FC0169
:101C3000EE0FFF1FE80FF91FED0FF11DEE0FFF1F55
:101C4000EE0FFF1FE85DFD4FC082D182E282F3827A
:101C5000DF91CF911F910F91FF90EF90DF90CF9088
:101C6000BF90AF909F908F907F906F905F904F90BC
:101C70003F902F90089590916A059111FCCF91E0CB
:101C800090936A05909369052FEF20936805109251
:101C90006705260F2093660590936505909165056D
:101CA000880F892B8093650580916405813061F4EC
:101CB00010926405809165058093BB008091BC0003
:101CC00083FDF8CF85EC01C085EE8093BC00809148
:101CD0006A058130E1F380916705861710F4609101
:101CE0006705A4E4B5E0E4E2F5E080E0861721F0C2
:101CF0009D9191938F5FFACF08950F931F930E9448
:101D0000480560931504709316048093170490930C
:101D100018048DE094E00E940E0297FF1FC00E94FD
:101D20004805009115041091160420911704309174
:101D30001804DC01CB01801B910BA20BB30B0091AB
:101D4000110410911204209113043091140480178F
:101D50009107A207B307E8F28FEF9FEF1F910F9152
:101D600008950F931F93CF93DF93EC01888199819E
:101D7000009729F02A813B812617370788F48B01C9
:101D80006F5F7F4F0E94B11E009761F09983888337
:101D90001B830A832C813D81232B11F4FC011082CB
:101DA00081E001C080E0DF91CF911F910F910895F4
:101DB000CF93DF93EC0188819981009711F00E9405
:101DC000281E198218821D821C821B821A82DF91B2
:101DD000CF910895EF92FF920F931F93CF93DF93CC
:101DE000EC018B016115710549F0CB010E94771957
:101DF0007C01BC01CE01B5DF811103C0CE01D8DF6B
:101E000007C0FD82EC82B801888199810E94701917
:101E1000CE01DF91CF911F910F91FF90EF90089528
:101E2000EF92FF920F931F93CF93DF93FC011182E8
:101E3000108213821282158214828617970729F165
:101E4000DB010D911C91119701151105F1F0EC01C9
:101E50001496ED90FC901597B70183DF811108C0AF
:101E6000CE01DF91CF911F910F91FF90EF90A0CF06
:101E7000FD82EC82B80188819981DF91CF911F9119
:101E80000F91FF90EF900C949E1FDF91CF911F91C7
:101E90000F91FF90EF900895CF93DF93CDB7DEB70A
:101EA000C854D1090FB6F894DEBF0FBECDBF7894E9
:101EB00084B5826084BD84B5816084BD85B582604F
:101EC00085BD85B5816085BD80916E008160809300
:101ED0006E00109281008091810082608093810069
:101EE0008091810081608093810080918000816079
:101EF000809380008091B10084608093B1008091D4
:101F0000B00081608093B0008091910082608093E6
:101F10009100809191008160809391008091900068
:101F20008160809390008091A10082608093A100E5
:101F30008091A10081608093A1008091A0008160C8
:101F40008093A00080912101826080932101809183
:101F50002101816080932101809120018160809323
:101F6000200180917A00846080937A0080917A00C9
:101F7000826080937A0080917A00816080937A00F9
:101F800080917A00806880937A001092C100E0917D
:101F90001D04F0911E0482E08083E0911904F09109
:101FA0001A041082E0911B04F0911C0480E18083EC
:101FB00010922504E0912104F091220486E08083B0
:101FC000E0911F04F0912004808180618083E09182
:101FD0001F04F0912004808188608083E0911F04B9
:101FE000F0912004808180688083E0911F04F0914B
:101FF000200480818F7D808361E085E10E94D4048C
:1020000060E084E10E94D40461E084E10E94A604BF
:1020100004E1E02EF12C8FE2C82E83E0D82E9BED58
:10202000A92E91E0B92E25E9822E21E0922E0E9460
:1020300019192B013C01617085E10E94A60461E041
:1020400070E080E090E00E941005F6018491F501B7
:102050000491F40114911123A1F081110E94500404
:10206000E12FF0E0EE0FFF1FE959FE4FA591B4916B
:102070008C91082331E020E009F430E0832F922F87
:1020800002C080E090E0092E000CAA0BBB0BF1E02F
:102090004F2255246624772484159505A605B70597
:1020A00009F0C3C221E0E21AF10809F0C0CF0FB66F
:1020B000F894A895809160008861809360001092E8
:1020C00060000FBE8091920290919302A0919402C1
:1020D00089A79AA7ABA719821A821B821C821D822C
:1020E0001E821F82188619861A861B861C8600E0AF
:1020F00010E0E9E2F0E0EC0FFD1FE00FF11F80813E
:1021000090E0A9DB8DEA92E088DA8DE094E00E940D
:102110003002892BD1F31CA21BA21EA21DA218A65D
:102120001FA260E070E0CE0183961BDE811104C027
:10213000CE0183963DDE08C018A61FA267ED72E0AF
:102140008BA19CA10E949E1FD8DD97FD1EC08A30E6
:102150009105D9F08DA71EA6EFA0F8A48FEFE81A7D
:10216000F80AB701CE018396FCDD882369F32BA121
:102170003CA18FA198A5BE01635D7F4F820F931F85
:102180000E949E1FF8A6EFA2DFCF8BA19CA1009713
:1021900029F00E946D196B017C0103C0C12CD12C68
:1021A00076018BA19CA10E94281E20E030E0A901AD
:1021B000C701B6010E94F31A811103C00150110931
:1021C00012C0F801EE0FFF1FEE0FFF1FA1E0B0E0FD
:1021D000AC0FBD1FEA0FFB1FC082D182E282F382E7
:1021E000C701B6010DDA0F5F1F4F033011050CF464
:1021F00080CF86E992E056DA8DE094E00E943002CA
:10220000892BD1F38EE792E04DDA19AA812C8985CA
:102210009A85AB85BC8589AF9AAFABAFBCAF8D81DA
:102220009E81AF81B88521968CAF9DAFAEAFBFAF19
:10223000219789819A81AB81BC8125968CAF9DAF16
:10224000AEAFBFAF2597A9ACBAACCBACDCAC219696
:10225000ECACFDAC0EAD1FAD21979C01AD01682D1E
:1022600089A9E5DB839493E08912D1CFA9A9AF5F57
:10227000A9ABA43059F68AE292E014DAECEEF2E06F
:10228000F8AFEFABFEABEDAB412C512C32012DA8DA
:102290003EA8C12CD12C760108EE13E0812C912CA4
:1022A000540140E052E06C2D842D0E94C008BC0116
:1022B000990F880B990B0E94F91A9B01AC01C5017B
:1022C000B4010E94831C4B015C010150110949F7C4
:1022D00020E030E04AE754E40E94E71C9601211513
:1022E000310551F02130310571F4812C912CA0E29F
:1022F000AA2EA1E4BA2E0DC0812C912CF0E8AF2EAD
:10230000FFE3BF2E06C0812C912CE8E4AE2EE3E45F
:10231000BE2E20E030E040E05BE30E94581B2AE044
:1023200037ED43E250E40E94581BA50194010E943E
:10233000E71C29966CAF7DAF8EAF9FAF2997D10177
:102340006D937D938D939D931D0184E292E065D9F9
:10235000C301B2017DD98AE192E05FD9C701B6011C
:1023600077D987E192E059D98DE092E056D9299644
:102370006CAD7DAD8EAD9FAD299742D9BFEFCB1A25
:10238000DB0AEB0AFB0AE3E0CE16D104E104F10418
:1023900009F082CFFFEF4F1A5F0A6F0A7F0A8DA9FB
:1023A0009EA90C969EAB8DAB94E049165104610436
:1023B000710409F06CCF6CE1662E63E0762E730138
:1023C00074E0872E570100E010E058EEC52E53E070
:1023D000D52E212C312C210140E052E0602F882D98
:1023E0000E94C008BC01990F880B990B0E94F91A32
:1023F0009B01AC01C201B1010E94831C1B012C0195
:10240000A1E0CA1AD10841F720E030E04AE754E4DD
:102410000E94E71C0115110551F00130110571F002
:10242000212C312C48E4442E43E4542E0DC0212CA1
:10243000312C30E8432E3FE3532E06C0212C312CA3
:1024400020E2422E21E4522E20E030E040E05BE327
:102450000E94581B2AE037ED43E250E40E94581BCB
:10246000A20191010E94E71CF50161937193819390
:1024700091935F010F5F1F4F0330110509F0A5CF46
:102480008394FCE0EF0EF11C28E082129BCFECEE6F
:10249000F2E010AA11AA12AA13AA14AA15AA16AA3F
:1024A00017AA10AE11AE12AE13AE3C966E167F0692
:1024B00081F718E5412E12E0512EA9ACBAACCBAC95
:1024C000DCAC2196ECACFDAC0EAD1FAD2197259692
:1024D0002CAD3DAD4EAD5FAD259760E089A9A7DA83
:1024E00080E090E0D3014D915D916D917C91F3017D
:1024F000E80FF91F4083518362837383F2014081A7
:10250000518162817381E80FF91F40835183628397
:10251000738304968C30910529F7F9A9FF5FF9AB15
:102520002CE0620E711C8CE0480E511CF83029F62C
:1025300060E070E088E292E0C1D860E670E08CEE86
:1025400092E0BCD860E070E088E292E022D960E6D8
:1025500070E08CEE92E01DD980E792E0A3D8B8E25B
:10256000EB2EB2E0FB2E812C912C540100E010E008
:10257000412C512C32018DE692E04FD8C501B401B7
:1025800067D88AE692E049D8C301B20161D88FE5E5
:1025900092E043D8F701E00FF11F608171818281E1
:1025A000938143E00E94310A86E592E036D8EFA994
:1025B000F8ADE00FF11F608171818281938143E06A
:1025C0000E94310A85ED92E00E94E0099FEF491ACE
:1025D000590A690A790A0C5F1F4FA3E04A16510491
:1025E0006104710441F6BFEF8B1A9B0AAB0ABB0A68
:1025F000ECE0EE0EF11C8FA998AD0C9698AF8FAB66
:1026000098E089169104A104B10409F0AFCF8EE3DC
:1026100092E048D89CE088E10FB6F894A8958093A2
:1026200060000FBE90936000FFCF1092EB021092FB
:10263000EA021092E9021092E80210926A0581E023
:10264000809369051092640561E084E10E94A6040C
:1026500061E085E10E94A6048091B9008E7F80939D
:10266000B9008091B9008D7F8093B90088E4809390
:10267000B80085E48093BC0083E693E09093E70282
:102680008093E60284E693E09093E5028093E4026F
:102690008CE08093B80084E690E0A0E0B0E0809306
:1026A000AE049093AF04A093B004B093B10406EBD2
:1026B00014E087E0F82ECE0101966C01D601EF2DD3
:1026C0001D92EA95E9F781E090E00E94901D9E83BB
:1026D0008D83F601D8018F2D01900D928A95E1F737
:1026E000095F1F4FF4E0003E1F0741F710924E03B1
:1026F00010924F0310925003109251031092520304
:1027000081E08093530382E08093540383E08093BD
:10271000550361E08DE00E94D4048AE6809322058F
:1027200010920A05A4ECEA2EF12C00EC10E0C8018E
:102730000E940F1C873820F060E0C8010E949F07AC
:10274000C7010E940F1C843020F060E0C7010E9486
:102750009F070F5F1F4F2FEFE21AF20A043C11058B
:1027600031F780910C0290910D02A0910E02B09170
:102770000F0289A79AA7ABA7BCA78BA39CA3ADA365
:10278000BEA389839A83AB83BC83CE0189960E94C2
:102790001409FC0180819181A281B381892B8A2B4C
:1027A0008B2B09F43CC3CE0183960E941409FC01D3
:1027B00080819181A281B38181319742A105B105C8
:1027C00008F02DC340E152E060E080E00E94C008C4
:1027D00080917A008E7F80937A0060E070E088E2DA
:1027E00092E00E94C90B60E670E08CEE92E00E94DD
:1027F000C90B0E94E9070E944805609392037093F9
:10280000930380939403909395030FB6F894A8953F
:1028100080916000886180936000109260000FBE1C
:1028200080E890E018D88091950290919602A0914E
:102830009702B091980289AF9AAFABAFBCAFDE01FF
:102840001596B8ABAFA70E9448056536710581059E
:10285000910508F0A8958DE094E00E943002892B44
:1028600009F445C00E9448054B015C010E944805DF
:10287000DC01CB0188199909AA09BB09883B9B4057
:10288000A105B105A0F58DE094E00E943002039708
:102890006CF38DE094E00E940E028A3A910531F7C4
:1028A0002CDA97FFC0C20091000510E0E3E0159517
:1028B0000795EA95E1F7F0EECF2EF4E0DF2EE12C5C
:1028C000F12C0E151F0509F4B7C20E944805DC0162
:1028D000CB0188199909AA09BB09883B9B40A1052E
:1028E000B10508F4C4C2E016F1060CF0A5C2F090E0
:1028F0009E03F110B4C00E9448050091920310910C
:1029000093032091940330919503DC01CB01801B4C
:10291000910BA20BB30B893E9340A105B10508F4BE
:1029200046C00E94A107A2E5CA2EA3E0DA2E00EC61
:1029300010E0C80174D7D6018D936D0187FF1DC0CB
:1029400020914C0330914D0366E973E082E593E0FA
:10295000E6EBF4E0AC0142555340421753076CF4E8
:10296000DC014D91CD015081541303C0DB01ED9387
:10297000FC9337966E5F7F4FEDCF0F5F1F4F043C88
:102980001105B9F6FEE4CF2EF3E0DF2EC80147D7DC
:10299000F60181936F010F5F1F4F083C1105B1F7DE
:1029A0008CE092E00E941409F1E0F0939E030E94F3
:1029B000480580908E0390908F03A0909003B09074
:1029C0009103DC01CB0188199909AA09BB09893B4C
:1029D0009B40A105B105C0F10E94480586169706E7
:1029E000A806B90671F00E944805DC01CB018819E0
:1029F0009909AA09BB0911E084369105A105B10521
:102A000008F010E00E944805DC01CB018819990903
:102A1000AA09BB09893C9105A105B10580F00E9476
:102A20004805DC01CB0188199909AA09BB09FF24D3
:102A3000F3948C329140A105B10508F0F12C612F7F
:102A40006F298DE00E94A6040E94480560938E03C2
:102A500070938F038093900390939103DDC16091F5
:102A60000C0270910D0280910E0290910F02BFD561
:102A70009B01AC0160E070E080E291E4A8D76B01BB
:102A80007C0120E030E040E85FE3ADD587FD06C083
:102A9000C12CD12CE0E8EE2EEFE3FE2E89AD9AADED
:102AA000ABADBCAD89839A83AB83BC83DE01119649
:102AB0004D01F40121914F0180917A00806880934B
:102AC0007A006CE330E0F901E25BFC4FA901440FAE
:102AD000551FCA01820F931F80509E4F7081DC01E9
:102AE000A70FB11D7C9170937C006150B9F7809164
:102AF0007A008F7780937A00D901AE5ABC4F8C91BF
:102B00005901AA0CBB1CAA0CBB1C87FD14C040E1D8
:102B100052E060810E94C008850102581C4FBC0130
:102B2000990F880B990B65D5D8016D937D938D9383
:102B30009C93139784C0FA01EA56FC4F00811181DF
:102B4000F8018381833021F063E0C8010E941C07F3
:102B5000C8010E94EE06D80111968C91119787301A
:102B600089F41496ED91FC91159750814181328141
:102B70002381852F942FA32FB22F89AB9AABABABB8
:102B8000BCAB52C0813009F441C0823061F4D8013D
:102B90001496ED91FC9115976081062E000C770B31
:102BA000880B990B2FC0833069F4D8011496ED91EE
:102BB000FC911597618170E0762F66278081680F00
:102BC000711D2BC0843089F4D8011496ED91FC91CD
:102BD0001597618170E0762F66278081680F711DDF
:102BE000072E000C880B990B0DC0853079F08630CC
:102BF00059F4D8011496ED91FC911597608170E01D
:102C000080E090E0F6D40CC0883071F4D8011496BE
:102C1000ED91FC911597608170E080E090E0E7D441
:102C200069AB7AAB8BAB9CABF501E258FC4F89A941
:102C30009AA9ABA9BCA980839183A283B3838501A0
:102C400002591C4FA701960160E070E080E89FE305
:102C500059D6D8012D913D914D915C9129D52B01EB
:102C60003C01F501E258FC4F2081318142815381C2
:102C7000C701B6011DD59B01AC01C301B20143D60A
:102C8000F80160837183828393838FA598A9881646
:102C9000990609F00ECF80910C0290910D02A0913F
:102CA0000E02B0910F020B97A105B10530F061E063
:102CB00070E080E090E00E9410050E9448050091BD
:102CC0006A0310916B0320916C0330916D03DC015A
:102CD000CB01801B910BA20BB30B00910C02109146
:102CE0000D0220910E0230910F0280179107A2076A
:102CF000B30708F491C00E944805B62EC72ED82EFF
:102D0000A92E60936A0370936B0380936C03909376
:102D10006D0310920905AEE6B3E0BEABADAB92E633
:102D2000E92E93E0F92E2AE5822E23E0922EE5E0AB
:102D3000F5E0F8AFEFAB00E010E0ADA9BEA94D9013
:102D40005D906D907D90BEABADAB20E030E84FEF75
:102D500053ECC301B201D4D6181664F420E030E875
:102D60004FEF53E4C301B2013ED487FD06C06FEFBD
:102D700081E007C061E08EEF04C0C301B2018FD6CD
:102D8000872FF70160838183F2E0EF0EF11C262F7D
:102D9000382F37FF03C0319521953109D4012C9389
:102DA00011963C93B2E08B0E911CEFA9F8AD2193E4
:102DB000F8AFEFAB881F8827881FA8014F5F5F4FD0
:102DC00001C0880F4A95EAF770910905872B232ED9
:102DD000312C910121703327002E01C0220F0A945B
:102DE000EAF7822B809309050E5F1F4F083011050B
:102DF00009F0A3CFB0925603C0925703D092580364
:102E0000A0925903B0920205C0920305D092040526
:102E100082E095E00E94AB090E94D40214CDC60165
:102E20000E943009CFCC809300050E947D0E97FD53
:102E30003ACD8093010537CD609101058091000561
:102E400095E59827282F30E073E0359527957A95FA
:102E5000E1F7E0EEF4E0AF01405E54404217530763
:102E60001CF441919427F7CF691341CD12C08DE036
:102E700094E00E943002892B09F423CD2FEFE21A4F
:102E8000F20A8DE094E00E940E02D6018D936D014E
:102E900018CD8770813019F40E94E90728CD84305D
:102EA00059F58091E004813019F480939E0302C0AB
:102EB00010929E0360E08DE00E94A60442E5E42E9D
:102EC00043E0F42E0EE413E050ECC52ED12CF701B4
:102ED00061917F01C6010E949F07D8016D918D010C
:102EE000C60104960E949F07BFEFCB1ADB0AE4ECF1
:102EF000CE16D10461F7B0C0863041F50E94A1071B
:102F000006EB14E0E12CF12C80914C0390914D03E1
:102F1000E816F9060CF0EBCCD80112968C911297BA
:102F20008BA38C918CA322E0AE014D5D5F4F63E0DB
:102F3000CE0101960E94CF06CE0101960E94AB09F8
:102F4000BFEFEB1AFB0A095F1F4FDECF833099F406
:102F50008091E00490E061E02091E104211101C042
:102F600060E0FC01E25BFC4F60838C539F4F0E944A
:102F70009F0777D0BCCC823009F045C08091E10436
:102F800087FD0CC0D090E004ED2DF0E0811184E0CD
:102F9000EE5AFC4FD80ED08264D029C030E8D32E30
:102FA000D80E06EB14E0E12CF12C80914C039091AB
:102FB0004D03E816F906DCF4F8018081D81211C03F
:102FC0008091E00490E0FC01EE0FFF1FEA56FC4FF9
:102FD00011830083FC01EE5AFC4F2091E104208311
:102FE00040D0FFEFEF1AFF0A095F1F4FDECF80913D
:102FF000E00490E0FC01EE5AFC4F608180549F4F4A
:103000000E949F0774CC853009F071CC8091E10457
:1030100090E0982F88272091E004820F911DAC0149
:10302000990F660B770B40930C0250930D0260933F
:103030000E0270930F028BA35CA36DA37EA324E00A
:10304000AE014D5D5F4F65E0CE0101960E94CF0657
:10305000CE0101960E94AB098CE092E00E943009FB
:1030600046CCA2E5B3E0EEE4F3E040E050E020E03F
:1030700063E070E08D91843018F48081837003C028
:10308000883038F4CB01042E01C0880F0A94EAF787
:10309000282B31964E5F5F4F4830510559F72093EA
:1030A0000A050895FF920F931F93CF93DF93109219
:1030B000100410920F0488EE93E0A0E0B0E080933B
:1030C000110490931204A0931304B093140425EBFD
:1030D00032E030930E0420930D0425EC30E0309361
:1030E0001A042093190424EC30E030931C0420933C
:1030F0001B0420EC30E030931E0420931D0421ECCF
:1031000030E03093200420931F0422EC30E0309311
:1031100022042093210426EC30E0309324042093F1
:10312000230410922604109227041092280410926F
:1031300029041092AD041092AC048093AE049093D5
:10314000AF04A093B004B093B10487EC92E09093E5
:10315000AB048093AA0480912205877088668093CF
:103160002205809100058770886680930005C6EB74
:10317000D4E000EE14E087E0F82EFE018F2D1192CE
:103180008A95E9F781E090E0CBD49D838C832796E4
:103190000C171D0791F7DF91CF911F910F91FF90B1
:1031A00008958F929F92AF92BF92CF92DF92EF924B
:1031B000FF92CF93DF93EC01688179818A819B81B3
:1031C000611571058105910521F464E279ED8BE5C6
:1031D00097E02DE133EF41E050E037D349015A0148
:1031E0009B01AC01A7EAB1E44CD36B017C01ACEECE
:1031F000B4EFA501940151D3DC01CB018C0D9D1DD1
:10320000AE1DBF1DB7FF03C00197A109B048888359
:103210009983AA83BB83BC01CD019F77DF91CF91B6
:10322000FF90EF90DF90CF90BF90AF909F908F90E6
:1032300008958F929F92AF92BF92CF92DF92EF92BA
:10324000FF92609188027091890280918A02909128
:103250008B02611571058105910521F464E279ED18
:103260008BE597E02DE133EF41E050E0EED24901EC
:103270005A019B01AC01A7EAB1E403D36B017C01C5
:10328000ACEEB4EFA501940108D3DC01CB018C0DA9
:103290009D1DAE1DBF1DB7FF03C00197A109B0481A
:1032A0008093880290938902A0938A02B0938B0244
:1032B000BC01CD019F77FF90EF90DF90CF90BF9042
:1032C000AF909F908F9008956093880270938902C9
:1032D00080938A0290938B0208956627772710C007
:1032E000FB01DC0105900D920020E1F70895FC013F
:1032F00005900020E9F7809590958E0F9F1F089507
:103300008F929F92AF92BF92CF92DF92EF92FF92F5
:103310000F931F93CF93DF93EC016B016115710540
:1033200019F0FB01918380837E01FFEFEF1AFF0A02
:103330000881802F90E037D1892B11F0E701F4CF7D
:103340000D3239F47E0182E0E80EF11C098111E0B2
:1033500008C00B3229F47E0192E0E90EF11C0981CC
:1033600010E0E701219743E050E064E371E0CE0113
:1033700022D1892BB9F4239645E050E06FE271E049
:10338000CE0119D1892B09F42596C114D10419F065
:10339000F601D183C0831111F0C060E070E080E8D5
:1033A0009FE7F4C043E050E06CE271E0CE0103D14E
:1033B000892B59F4C114D10409F4E4C0F2E0EF0EF2
:1033C000F11CF601F182E082DDC020E030E0A901CD
:1033D000C0E0D0E0F70160EDA62EA00E89E08A15CE
:1033E00028F1912F9260B92E812F887012FF04C0AE
:1033F000811123C0219621C081112197A5E0B0E061
:1034000040D2DC01CB01880F991FAA1FBB1F9C0172
:10341000AD012A0D311D411D511D283989E938079B
:10342000480789E1580748F0166006C09EEFA912C8
:103430000AC013FD40C01860B12E8FEFE81AF80AD9
:1034400000811B2DC7CF802F8F7D8534A1F5808112
:103450008D3211F4106106C08B3221F0319661E09B
:1034600070E004C08181329662E070E080538A305F
:1034700018F0E61BF70B1FC060E070E060389CE0BE
:1034800079075CF4DB01AA0FBB1FAA0FBB1F6A0FF1
:103490007B1F660F771F680F711D3196DF01119733
:1034A0008C9180538A3050F314FF03C0719561955D
:1034B0007109C60FD71F11FF08C0C114D10429F02C
:1034C000CF010197F60191838083CA01B9018FD0A2
:1034D000212F2370233019F04B015C0106C04B01F2
:1034E0005C01B7FAB094B7F8B09420E030E0A901DD
:1034F000C501B40178D0882309F43CC0D7FF06C0C9
:10350000D195C195D1090BE411E002C003E611E0A9
:103510006801F8E1CF1AD10890E2E92EF12CCE151E
:10352000DF056CF0F8012591359145915491C50165
:10353000B401BED04B015C01CE19DF09F0CF0450BD
:103540001109F594E7940C151D0549F78A2D880F8C
:103550008B2D881F8F3F41F020E030E0A901C5018D
:10356000B40141D0811106C082E290E090936C05D5
:1035700080936B05C501B40109C060E070E080E88C
:103580009FEF04C060E070E080EC9FE7DF91CF9197
:103590001F910F91FF90EF90DF90CF90BF90AF9071
:1035A0009F908F9008959111E6C0803219F0895054
:1035B0008550D0F70895FB01DC014150504088F060
:1035C0008D9181341CF08B350CF4805E65916134F3
:1035D0001CF06B350CF4605E861B611171F3990B66
:1035E0000895881BFCCF40D008F481E00895E8944A
:1035F00009C097FB3EF490958095709561957F4F3B
:103600008F4F9F4F9923A9F0F92F96E9BB279395E8
:10361000F695879577956795B795F111F8CFFAF4F8
:10362000BB0F11F460FF1BC06F5F7F4F8F4F9F4F29
:1036300016C0882311F096E911C0772321F09EE887
:10364000872F762F05C0662371F096E8862F70E0ED
:1036500060E02AF09A95660F771F881FDAF7880FC7
:103660009695879597F90895990F0008550FAA0B1D
:10367000E0E8FEEF16161706E807F907C0F0121685
:103680001306E407F50798F0621B730B840B950B88
:1036900039F40A2661F0232B242B252B21F40895DD
:1036A0000A2609F4A140A6958FEF811D811D08957A
:1036B0000BD07BC06CD028F071D018F0952309F0A6
:1036C0005DC062C01124A5C081D0A0F3959FD1F345
:1036D000950F50E0551F629FF001729FBB27F00DC0
:1036E000B11D639FAA27F00DB11DAA1F649F662715
:1036F000B00DA11D661F829F2227B00DA11D621F64
:10370000739FB00DA11D621F839FA00D611D221F1D
:10371000749F3327A00D611D231F849F600D211D01
:10372000822F762F6A2F11249F5750408AF0E1F0A4
:1037300088234AF0EE0FFF1FBB1F661F771F881FED
:1037400091505040A9F79E3F510570F017C061C0DD
:103750005F3FECF3983EDCF3869577956795B795D8
:10376000F795E7959F5FC1F7FE2B880F911D969502
:10377000879597F9089599278827089597F99F675E
:1037800080E870E060E008959FEF80EC08950024E9
:103790000A941616170618060906089500240A94B6
:1037A00012161306140605060895092E0394000C3C
:1037B00011F4882352F0BB0F40F4BF2B11F460FFCB
:1037C00004C06F5F7F4F8F4F9F4F089557FD9058F4
:1037D000440F551F59F05F3F71F04795880F97FBD5
:1037E000991F61F09F3F79F087950895121613068F
:1037F0001406551FF2CF4695F1DF08C016161706BE
:103800001806991FF1CF86957105610508940895F2
:10381000E894BB2766277727CB0197F90895F99994
:10382000FECF92BD81BDF89A992780B50895262FC5
:10383000F999FECF1FBA92BD81BD20BD0FB6F89495
:10384000FA9AF99A0FBE01960895052E97FB16F481
:1038500000940FD057FD05D024D007FC02D046F4C9
:1038600008C050954095309521953F4F4F4F5F4F81
:10387000089590958095709561957F4F8F4F9F4FDC
:10388000089531D0A59F900DB49F900DA49F800DF9
:10389000911D11240895B7FFF4CFF3DF821B930B22
:1038A0000895A1E21A2EAA1BBB1BFD010DC0AA1F81
:1038B000BB1FEE1FFF1FA217B307E407F50720F099
:1038C000A21BB30BE40BF50B661F771F881F991F14
:1038D0001A9469F760957095809590959B01AC015D
:1038E000BD01CF010895A29FB001B39FC001A39F66
:1038F000700D811D1124911DB29F700D811D112429
:10390000911D08955058BB27AA270ED04ECF3FDFF8
:1039100030F044DF20F031F49F3F11F41EF434CF37
:103920000EF4E095E7FB2ACFE92F50DF80F3BA17BA
:10393000620773078407950718F071F49EF568CF46
:103940000EF4E0950B2EBA2FA02D0B01B9019001BA
:103950000C01CA01A0011124FF27591B99F0593FFE
:1039600050F4503E68F11A16F040A22F232F342F46
:103970004427585FF3CF469537952795A795F04094
:103980005395C9F77EF41F16BA0B620B730B840BA9
:10399000BAF09150A1F0FF0FBB1F661F771F881F61
:1039A000C2F70EC0BA0F621F731F841F48F48795B9
:1039B00077956795B795F7959E3F08F0B3CF9395A8
:1039C000880F08F09927EE0F9795879508950CD0EA
:1039D000ECCEE4DE40F0DBDE30F021F45F3F19F0A6
:1039E000CDCE511116CFD0CEF1DE98F39923C9F385
:1039F0005523B1F3951B550BBB27AA2762177307F5
:103A0000840738F09F5F5F4F220F331F441FAA1FA8
:103A1000A9F333D00E2E3AF0E0E830D09150504068
:103A2000E695001CCAF729D0FE2F27D0660F771F16
:103A3000881FBB1F261737074807AB07B0E809F0F8
:103A4000BB0B802DBF01FF2793585F4F2AF09E3F8D
:103A5000510568F093CEDDCE5F3FECF3983EDCF38A
:103A6000869577956795B795F7959F5FC9F7880F06
:103A7000911D9695879597F90895E1E0660F771F58
:103A8000881FBB1F621773078407BA0720F0621BE9
:103A9000730B840BBA0BEE1F88F7E095089504D0E2
:103AA0006894B111B6CE089599DE88F09F5790F0D2
:103AB000B92F9927B751A0F0D1F0660F771F881F53
:103AC000991F1AF0BA95C9F712C0B13081F0A0DE83
:103AD000B1E008959DCE672F782F8827B85F39F021
:103AE000B93FCCF3869577956795B395D9F73EF4B2
:103AF00090958095709561957F4F8F4F9F4F08955A
:103B0000B3DD08F48FEF0895AFDD880B990B0895AE
:103B1000EE0FFF1F881F8BBF0790F691E02D1994C1
:103B20000F931F93CF93DF938230910510F482E0BF
:103B300090E0E0916F05F091700520E030E0A0E0AA
:103B4000B0E0309719F1408151810281138148170B
:103B50005907C8F08417950769F4109731F0129649
:103B60000C93129713961C9327C000936F05109324
:103B7000700522C02115310519F04217530718F4BA
:103B80009A01BD01EF01DF01F801DBCF21153105FD
:103B9000F9F0281B390B2430310580F48A819B8190
:103BA0006115710521F0FB019383828304C090931A
:103BB000700580936F05FE01329644C0FE01E20F4E
:103BC000F31F8193919322503109398328833AC09E
:103BD00020916D0530916E05232B41F420918E02CA
:103BE00030918F0230936E0520936D0520918C02E9
:103BF00030918D022115310541F42DB73EB740912A
:103C0000900250919102241B350BE0916D05F091CB
:103C10006E05E217F307A0F42E1B3F0B2817390798
:103C200078F0AC014E5F5F4F2417350748F04E0F18
:103C30005F1F50936E0540936D058193919302C071
:103C4000E0E0F0E0CF01DF91CF911F910F91089557
:103C5000CF93DF93009709F481C0FC013297138260
:103C60001282A0916F05B0917005109781F42081A8
:103C70003181820F931F20916D0530916E052817B9
:103C8000390751F5F0936E05E0936D0567C0ED01BE
:103C900020E030E0CE17DF0740F44A815B819E01CF
:103CA00041155105F1F0EA01F5CFD383C28340817C
:103CB0005181840F951FC817D90759F488819981BC
:103CC000840F951F0296918380838A819B819383C1
:103CD00082832115310529F4F0937005E0936F0577
:103CE0003DC0E901FB83EA8349915991C40FD51F77
:103CF000EC17FD0761F480819181840F951F029676
:103D0000E90199838883828193819B838A83E0E0A0
:103D1000F0E012968D919C911397009719F0FD0198
:103D2000DC01F7CF8D919C9111979D012E5F3F4F44
:103D3000820F931F20916D0530916E05281739076A
:103D400069F4309729F41092700510926F0502C043
:103D500013821282B0936E05A0936D05DF91CF910F
:103D600008956F927F928F929F92AF92BF92CF925F
:103D7000DF92EF92FF920F931F93CF93DF93009701
:103D800081F4CB01DF91CF911F910F91FF90EF90C4
:103D9000DF90CF90BF90AF909F908F907F906F906B
:103DA000BFCEFC01E60FF71F9C0122503109E2173C
:103DB000F30708F4A5C0EC01D9010D911C911197EE
:103DC00006171707A8F00530110508F497C0C801B9
:103DD00004978617970708F491C002501109061B33
:103DE000170B019311936D937C93CF0131DF86C044
:103DF0005B01A01AB10A4C01800E911EA0916F05C3
:103E0000B0917005612C712CE12CF12C109709F404
:103E100046C08D919C911197A815B905B1F56C011B
:103E200042E0C40ED11CCA14DB0478F14C018A189C
:103E30009B08640142E0C40ED11C1296BC901297FC
:103E40001396AC91B5E0CB16D10440F0B282A383B7
:103E500091828082D9016D937C9309C00E5F1F4FC0
:103E6000800F911FF90191838083EB2DFA2FE114CC
:103E7000F10431F0D7011396FC93EE9312973EC0F4
:103E8000F0937005E0936F0539C06816790608F461
:103E90003C017D0112960D90BC91A02DB7CF809171
:103EA0006D0590916E0588169906E1F46616770601
:103EB000C8F480918C0290918D02009741F48DB7E7
:103EC0009EB74091900250919102841B950BE81788
:103ED000F907B0F4F0936E05E0936D05F901718375
:103EE00060830CC0CB011CDE7C01009749F0A80167
:103EF000BE011BD0CE01ACDEC70104C0CE0102C0A2
:103F000080E090E0DF91CF911F910F91FF90EF90B3
:103F1000DF90CF90BF90AF909F908F907F906F90E9
:103F2000089581E090E0F89410C0FB01DC0102C02C
:103F300001900D9241505040D8F70895FB01DC01EB
:0E3F400001900D920020E1F70895F894FFCF54
:103F4E0011080A1A0C0E31282A3A2C2E01000000F4
:103F5E0010090B1B0D0F30292B3B2D2F00000002DB
:103F6E0002022020202222220000803F0000803FFB
:103F7E000000803F0000803F0000803F0000803F37
:103F8E000000803F0000803F0000803F0000803F27
:103F9E000000803F0000803F0000803F0000803F17
:103FAE000000803F0000803F0000803F0000803F07
:103FBE000000803F0000803F0000803F0000803FF7
:103FCE000000803F0000803F0100000000007105EE
:103FDE008000FF190100010203000101010101002F
:103FEE0001010101010101010101010101010101B3
:103FFE0001000000006702ED0CFF01B30230020E5B
:10400E0002220200000000BD039103EC0365038948
:10401E0003750366030D0A006E616E00696E66001D
:04402E006F76660043
:00000001FF
