:1000000011C100003FC100003DC100003BC1000024
:1000100039C1000037C1000035C1000033C1000004
:1000200031C100002FC100002DC100002BC1000014
:1000300029C1000027C1000025C1000023C1000024
:1000400021C100001FC100001DC100001BC1000034
:1000500019C1000017C1000015C100005AC40000FA
:1000600011C1000020C40000F5C300000BC1000056
:1000700009C1000007C1000005C1000003C1000064
:1000800001C10000FFC00000FDC00000FBC0000077
:10009000F9C00000F7C00000F5C00000F3C0000088
:1000A000F1C00000EFC00000EDC00000EBC0000098
:1000B000E9C00000E7C00000E5C00000E3C00000A8
:1000C000E1C00000DFC00000DDC00000DBC00000B8
:1000D000D9C00000D7C00000D5C00000D3C00000C8
:1000E000D1C00000BD06C006AF06B306B706F706CE
:1000F000C406C806CE06D206D606DC06E006E4062E
:10010000F706EA06EE06F2067665723D005068795B
:10011000734C6F67676572315F3000000021002407
:100120000027002A002D00300033000101000004E8
:100130000107010A0100002200250028002B002EE3
:10014000003100340002010000050108010B010527
:10015000050505070508080808020202020A0A0840
:100160000804040404010101010101010103030366
:100170000303030303040707070C0C0C0C0C0C0C03
:100180000C0202020206060606060606060B0B0B0A
:100190000B0B0B0B0B010210202008081020401045
:1001A000204080020102010804020101020408103B
:1001B0002040808040201008040201800402018059
:1001C0004020100804020108040201010204081082
:1001D000204080010204081020408000000A0B0229
:1001E000090C0D0E080703040100000000000000C8
:1001F00000000000000000000000000000000000FF
:1002000000000000000000121110000000000000BB
:1002100000000000000000000000000000000000DE
:100220000000D30411241FBECFEFD1E2DEBFCDBF4B
:1002300000E00CBF23E0ACE4B2E001C01D92AF3798
:10024000B207E1F712E0A0E0B2E0ECE8FBE100E089
:100250000BBF02C007900D92AC34B107D9F711E083
:10026000C2E1D1E000E006C021970109802FFE0124
:100270000E94A70BC131D10780E00807A9F7CCD3B2
:100280000C94C40DBDCECF92DF92EF92FF920F93EC
:100290001F93CF93DF936C017A018B01C0E0D0E014
:1002A000CE15DF0581F0D8016D918D01D601ED915C
:1002B000FC910190F081E02DC6011995892B11F078
:1002C0002196EECF7E01C701DF91CF911F910F9153
:1002D000FF90EF90DF90CF900895089580E090E038
:1002E0000895FC01538D448D252F30E0842F90E03C
:1002F000821B930B541710F0CF9608950197089521
:10030000FC01918D828D981761F0828DDF01A80F1D
:10031000B11D5D968C91928D9F5F9F73928F90E03F
:1003200008958FEF9FEF0895FC01918D828D9817AE
:1003300031F0828DE80FF11D858D90E008958FEFEB
:100340009FEF0895FC01918D228D892F90E0805CB4
:100350009F4F821B91098F73992708958AE992E034
:10036000F1DF21E0892B09F420E0822F0895FC01C0
:10037000848DDF01A80FB11DA35ABF4F2C91848D2E
:1003800090E001968F739927848FA689B7892C9363
:10039000A089B1898C91837080648C93938D848DB6
:1003A000981306C00288F389E02D80818F7D8083B9
:1003B0000895EF92FF920F931F93CF93DF93EC0179
:1003C00081E0888F9B8D8C8D981305C0E889F98911
:1003D000808185FD25C0F62E0B8D10E00F5F1F4F2D
:1003E0000F731127E02E8C8DE8120BC00FB607FC9F
:1003F000FACFE889F989808185FFF5CFCE01B7DF93
:10040000F2CF8B8DFE01E80FF11DE35AFF4FF08212
:100410009FB7F8940B8FEA89FB89808180620AC0BC
:100420009FB7F894EE89FF896083E889F989808114
:100430008370806480839FBF81E090E0DF91CF91E3
:100440001F910F91FF90EF900895CF93DF93EC01F0
:100450006AEA8AE992E0ADDF68A185E58627FE01B8
:10046000262F30E093E0359527959A95E1F72C0FEC
:100470003D1FE217F30719F091918927FACF89A35D
:100480008AE992E096DF69A18AE992E092DF48A1C9
:1004900050E083E0559547958A95E1F74115510560
:1004A00031F0BE018AE992E0DF91CF91ECCEDF918D
:1004B000CF910895CF93DF93EC01888D8823C1F00D
:1004C000EA89FB89808185FD05C0A889B9898C915D
:1004D00086FD0EC00FB607FCF5CF808185FFF2CFF9
:1004E000A889B9898C9185FFEDCFCE0140DFE8CF97
:1004F000DF91CF91089580E090E0892B19F02EDFF5
:10050000811125C080E090E0892B41F080E090E0EF
:10051000892B21F00E94000081111CC080E090E036
:10052000892B41F080E090E0892B21F00E940000AF
:10053000811113C080E090E0892BA1F080E090E071
:10054000892B81F00E94000081110AC008950E9449
:100550000000D8CF0E940000E1CF0E940000EACF47
:100560000C94000008953FB7F89480915102909147
:100570005202A0915302B091540226B5A89B05C027
:100580002F3F19F00196A11DB11D3FBFBA2FA92F12
:10059000982F8827820F911DA11DB11DBC01CD018F
:1005A00042E0660F771F881F991F4A95D1F708957B
:1005B0002FB7F89460914D0270914E0280914F02D6
:1005C000909150022FBF0895677030E0F90173E0F9
:1005D000EE0FFF1F7A95E1F7E62BDC019096EC9386
:1005E000FC01DA01CD01841B950B8217930718F4E7
:1005F0008D918193F7CF08950E94B00D0F931F93B3
:10060000CF93DF93EC0188819981009729F02A81AB
:100610003B812617370788F48B016F5F7F4F0E945D
:10062000D00C009761F0998388831B830A832C8107
:100630003D81232B11F4FC01108281E001C080E098
:10064000DF91CF911F910F910895CF93DF93EC012C
:1006500088819981009711F00E94470C19821882B5
:100660001D821C821B821A82DF91CF910895EF9226
:10067000FF920F931F93CF93DF93EC018B016115D2
:10068000710541F0CB013FD67C01BC01CE01B6DF44
:10069000811103C0CE01D9DF06C0FD82EC82B80112
:1006A0008881998129D6CE01DF91CF911F910F9139
:1006B000FF90EF900895EF92FF920F931F93CF93C7
:1006C000DF93FC0111821082138212821582148240
:1006D0008617970729F1DB010D911C9111970115E0
:1006E0001105F1F0EC011496ED90FC901597B7010F
:1006F00085DF811108C0CE01DF91CF911F910F914D
:10070000FF90EF90A2CFFD82EC82B80188819981A1
:10071000DF91CF911F910F91FF90EF900C94BD0D41
:10072000DF91CF911F910F91FF90EF900895EF927D
:10073000FF920F931F93CF93DF93CDB7DEB7E4976C
:100740000FB6F894DEBF0FBECDBF1AA619A61CA621
:100750001BA61EA61DA66DE071E0CE01899687DF5F
:100760001A8219821C821B821E821D8268E071E03F
:10077000CE0101967CDFBE016F5F7F4FCE01839675
:100780009ADF0DA51EA5E9A4FAA4E114F10409F469
:100790005DC001151105B1F08FA198A5080F191FB3
:1007A000B801CE0183962ADF882309F44FC02BA11C
:1007B0003CA18FA198A5B701820F931F0E94BD0D88
:1007C00018A70FA3BE016D5D7F4FCE018F9673DF1B
:1007D0008BA19CA10E94470C89819A810E94470CA1
:1007E00089A59AA50E94470C4FA558A92BA961E09D
:1007F000CE010196E9DECE01019627DE309100029E
:100800002091010290910202809103023BA32CA34C
:100810009DA38EA324E0AE014D5D5F4F66E0CE0147
:100820000196D2DECE01019610DE8FA598A90E9416
:10083000470CE4960FB6F894DEBF0FBECDBFDF9134
:10084000CF911F910F91FF90EF900895CE01839665
:10085000FCDEB8CF1F920F920FB60F9211240BB689
:100860000F922F933F934F935F936F937F938F9349
:100870009F93AF93BF93EF93FF938AE992E077DD65
:10088000FF91EF91BF91AF919F918F917F916F9168
:100890005F914F913F912F910F900BBE0F900FBE24
:1008A0000F901F9018951F920F920FB60F92112460
:1008B0000BB60F922F938F939F93EF93FF93E0913B
:1008C000AA02F091AB028081E091B002F091B102F6
:1008D00082FD12C090818091B3028F5F8F7320914F
:1008E000B402821751F0E091B302F0E0E656FD4FFA
:1008F000958F8093B30201C08081FF91EF919F910A
:100900008F912F910F900BBE0F900FBE0F901F90E5
:1009100018951F920F920FB60F9211242F933F93A9
:100920008F939F93AF93BF9380914D0290914E020E
:10093000A0914F02B091500230914C0223E0230F5E
:100940002D3720F40196A11DB11D05C026E8230F07
:100950000296A11DB11D20934C0280934D029093ED
:100960004E02A0934F02B093500280915102909199
:100970005202A0915302B09154020196A11DB11DE3
:100980008093510290935202A0935302B093540269
:10099000BF91AF919F918F913F912F910F900FBE7B
:1009A0000F901F901895EAE9F2E01382128288EE08
:1009B00093E0A0E0B0E084839583A683B7838EE3C1
:1009C00092E09183808385EC90E09587848784EC26
:1009D00090E09787868780EC90E0918B808B81EC0C
:1009E00090E0938B828B82EC90E0958B848B86ECED
:1009F00090E0978B868B118E128E138E148EE9E504
:100A0000F3E080A18770886680A3E7E3F3E080A12C
:100A10008770886680A30895CF93DF93CDB7DEB744
:100A2000AE970FB6F894DEBF0FBECDBF789484B5F5
:100A3000826084BD84B5816084BD85B5826085BDDA
:100A400085B5816085BD80916E00816080936E0068
:100A5000109281008091810082608093810080915A
:100A6000810081608093810080918000816080930B
:100A700080008091B10084608093B1008091B000CB
:100A800081608093B000809191008260809391009A
:100A900080919100816080939100809190008160AD
:100AA000809390008091A10082608093A10080914A
:100AB000A10081608093A1008091A000816080935B
:100AC000A000809121018260809321018091210109
:100AD00081608093210180912001816080932001B9
:100AE00080917A00846080937A0080917A0082609D
:100AF00080937A0080917A00816080937A0080915F
:100B00007A00806880937A001092C100E091AA0276
:100B1000F091AB0212E01083E091A602F091A702DF
:100B20001082E091A802F091A90280E180831092E6
:100B3000B202E091AE02F091AF0286E08083E091D4
:100B4000AC02F091AD02808180618083E091AC02C3
:100B5000F091AD02808188608083E091AC02F091D9
:100B6000AD02808180688083E091AC02F091AD029B
:100B700080818F7D8083109261038CE6809379035E
:100B8000D6DD109295021092960210929702109262
:100B900098021092910281E0809392021093930246
:100BA00083E080939402E2EAF1E02491ECE5F1E045
:100BB0008491882399F090E0880F991FFC01E55EED
:100BC000FE4FA591B491FC01EB5CFE4F8591949191
:100BD0009FB7F8948C91822B8C939FBF8AE992E007
:100BE000B1DB892B09F46AC0E3DC4B015C01E0DC7A
:100BF000DC01CB0188199909AA09BB09883B9B40F4
:100C0000A105B10508F05AC08AE992E09BDB039781
:100C100074F38AE992E074DB8A3A910541F707E5BB
:100C200013E0C6DC6093A2027093A3028093A40237
:100C30009093A5028AE992E063DB97FFCDC2B8DC0E
:100C4000C090A202D090A302E090A402F090A5026E
:100C5000DC01CB018C199D09AE09BF09C0909E0231
:100C6000D0909F02E090A002F090A1028C159D050B
:100C7000AE05BF05F8F20091570310E053E015955B
:100C800007955A95E1F767E3C62E63E0D62EE12C6F
:100C9000F12C0E151F0509F484C28ADCDC01CB019E
:100CA00088199909AA09BB09883B9B40A105B10590
:100CB00008F49CC2E016F1060CF073C279DCC09017
:100CC0008D02D0908E02E0908F02F09090026C1511
:100CD0007D058E059F0569F06BDCDC01CB018C196D
:100CE0009D09AE09BF0911E084369105A105B10542
:100CF00008F010E05DDCDC01CB018C199D09AE0928
:100D0000BF09893C9105A105B10568F051DCDC0102
:100D1000CB018C199D09AE09BF0921E08C329140AD
:100D2000A105B10508F020E0E8EEF1E04491E2EA27
:100D3000F1E09491ECE5F1E03491332309F46CC0D7
:100D4000442309F454C050E0FA013197E231F1052F
:100D500008F04DC08827EE58FF4F8F4FF8C48091A0
:100D600080008F7707C0809180008F7D03C08091C5
:100D70008000877F809380003AC084B58F7702C05F
:100D800084B58F7D84BD33C08091B0008F7703C060
:100D90008091B0008F7D8093B00029C08091900039
:100DA0008F7707C0809190008F7D03C08091900065
:100DB000877F809390001BC08091A0008F7707C031
:100DC0008091A0008F7D03C08091A000877F8093D9
:100DD000A0000DC0809120018F7707C08091200175
:100DE0008F7D03C080912001877F80932001E32FB6
:100DF000F0E0EE0FFF1FEB5CFE4FA591B4913FB703
:100E0000F8948C91111105C0211103C0909598237D
:100E100001C0982B9C933FBF8091990281111DC006
:100E2000C7DB00918D0210918E0220918F023091CC
:100E30009002DC01CB01801B910BA20BB30B893B11
:100E40009B40A105B10548F0B3DB60938D02709320
:100E50008E0280938F0290939002609100027091B5
:100E6000010280910202909103025AD29B01AC01CF
:100E700060E070E080E291E4CDD34B015C0120E0C2
:100E800030E040E85FE348D287FD06C0812C912C1A
:100E9000B0E8AB2EBFE3BB2E25E932E038A72FA385
:100EA0000DE712E08DE692E09AA789A7A1E9EA2E64
:100EB000A2E0FA2E1C01EFA1F8A54191F8A7EFA33B
:100EC0003701F7017081872F90E050E09C01220FDD
:100ED000331FF901E80FF91FEE5DFD4FE40FF51F19
:100EE000608165FF04C060917B00686003C0609111
:100EF0007B00677F60937B00F901E80FF91FEE5DCF
:100F0000FD4FE40FF51F20812F71206C20937C0092
:100F100020917A00206820937A0020917A00206442
:100F200020937A0020917A0026FDFCCF6091780012
:100F3000E091790030917A003F7730937A003091D8
:100F40007A003F7730937A00262F30E07430D8F45F
:100F50006E2F61706CA71BA66BA57CA5622B732BF3
:100F6000E1FD72509C01220F331F820F931F865F99
:100F70009D4FFC01E40FF51F8081882339F07195A6
:100F80006195710903C0E370B9017E2B072E000C37
:100F9000880B990BC7D16801F80160837183828344
:100FA0009383FFEFEF1AFF0AF3012081243028F426
:100FB0002BEA3AEA4AEA5FE304C020E030E040E688
:100FC0005FE30FD2F80160837183828393830C5FA8
:100FD0001F4FA501940160E070E080E89FE3B5D267
:100FE000F1012081318142815381FBD12B013C01F0
:100FF000F6012081318142815381C501B401F1D1D3
:101000009B01AC01C301B201A1D2F10161937193C3
:10101000819391931F012DE832E02017310709F0E9
:101020004ACFC0900002D0900102E0900202F090FE
:1010300003023BE0C316D104E104F10498F5B8DAE9
:101040000091690210916A0220916B0230916C024A
:10105000DC01CB01801B910BA20BB30B8C159D0502
:10106000AE05BF0508F49BC0A3DA762EA72EB82ED6
:10107000692E6093690270936A0280936B02909369
:101080006C021092600381E6C82E82E0D82E99E5AA
:10109000E92E92E0F92E2CE5822E23E0922E00E03C
:1010A00010E011C060DA4B015C015DDADC01CB01BC
:1010B00088199909AA09BB09883E9340A105B10581
:1010C00008F0BDCFF2CFE9A5FAA52190319041906B
:1010D0005190FAA7E9A720E030E84FEF53ECC201A6
:1010E000B10131D3181664F420E030E84FEF53E437
:1010F000C201B10111D187FD06C06FEF81E007C0C9
:1011000061E08EEF04C0C201B101ECD2872FF6017D
:1011100060838183F2E0CF0ED11C262F382F37FF5A
:1011200003C0319521953109F70120833183F2E025
:10113000EF0EF11CF40121934F01881F8827881FAF
:10114000A8014F5F5F4F01C0880F4A95EAF7709181
:101150006003872B3DA71EA62DA53EA52170332732
:10116000002E01C0220F0A94EAF7822B80936003BD
:101170000E5F1F4F0830110509F0A5CF7092550280
:10118000A0925602B0925702609258027092590390
:10119000A0925A03B0925B0389E593E056D9ABD98C
:1011A0001DCD609158038091570395E59827282F0E
:1011B00030E043E0359527954A95E1F7E7E3F3E022
:1011C000AF0147535340421753071CF441919427F2
:1011D000F7CF691373CD1AC0F80181938F0129E508
:1011E00033E02E173F0709F01CCD45CD8AE992E088
:1011F000A9D8892B09F44DCD3FEFE31AF30A8AE908
:1012000092E07ED8F60181936F0143CD87708130E3
:1012100011F48DDA53CD853051F48091370381304C
:1012200019F4809399024ACD1092990247CD8330E8
:1012300011F5E0913703F0E0EB56FD4F8091380354
:10124000808380919602F4E08F9F90011124909109
:10125000970240E1949FC0011124822B20919502B6
:10126000282B90919802E0E49E9FC0011124822BCC
:101270008093610323CD8230B9F490913703E92F35
:10128000F0E080913803811184E0EF56FD4F890F23
:1012900080831092950210929602109297021092FB
:1012A0009802109261030ACD863009F007CD809133
:1012B000380390E0982F882720913703820F911DE3
:1012C000AC01990F660B770B40930002509301021B
:1012D00060930202709303028BA35CA36DA37EA3B1
:1012E00024E0AE014D5D5F4F66E0CE0101966CD902
:1012F000CE010196AAD8E2CCFB01DC0105900D924B
:101300000020E1F70895FC0105900020E9F78095A1
:1013100090958E0F9F1F089540D008F481E00895A6
:10132000E89409C097FB3EF490958095709561957F
:101330007F4F8F4F9F4F9923A9F0F92F96E9BB2735
:101340009395F695879577956795B795F111F8CFB1
:10135000FAF4BB0F11F460FF1BC06F5F7F4F8F4F1C
:101360009F4F16C0882311F096E911C0772321F012
:101370009EE8872F762F05C0662371F096E8862FAA
:1013800070E060E02AF09A95660F771F881FDAF701
:10139000880F9695879597F90895990F0008550F2E
:1013A000AA0BE0E8FEEF16161706E807F907C0F0EB
:1013B00012161306E407F50798F0621B730B840BF3
:1013C000950B39F40A2661F0232B242B252B21F4CD
:1013D00008950A2609F4A140A6958FEF811D811D6D
:1013E00008950BD078C069D028F06ED018F09523FE
:1013F00009F05AC05FC01124A2C07ED0A0F3959F0F
:10140000D1F3950F50E0551F629FF001729FBB27EB
:10141000F00DB11D639FAA27F00DB11DAA1F649F97
:101420006627B00DA11D661F829F2227B00DA11D4A
:10143000621F739FB00DA11D621F839FA00D611DD0
:10144000221F749F3327A00D611D231F849F600DF1
:10145000211D822F762F6A2F11249F5750408AF02A
:10146000E1F088234AF0EE0FFF1FBB1F661F771FB6
:10147000881F91505040A9F79E3F510570F014C04D
:101480005EC05F3FECF3983EDCF3869577956795F9
:10149000B795F795E7959F5FC1F7FE2B880F911DD4
:1014A0009695879597F9089597F99F6780E870E07A
:1014B00060E008959FEF80EC089500240A941616CA
:1014C000170618060906089500240A941216130632
:1014D000140605060895092E0394000C11F48823C0
:1014E00052F0BB0F40F4BF2B11F460FF04C06F5FDC
:1014F0007F4F8F4F9F4F089557FD9058440F551FB2
:1015000059F05F3F71F04795880F97FB991F61F085
:101510009F3F79F087950895121613061406551FFC
:10152000F2CF4695F1DF08C0161617061806991F68
:10153000F1CF86957105610508940895E894BB275D
:1015400066277727CB0197F908955058BB27AA271C
:101550000ED0C1CFB2DF30F0B7DF20F031F49F3FC3
:1015600011F41EF4A7CF0EF4E095E7FB9DCFE92F11
:10157000C3DF80F3BA17620773078407950718F073
:1015800071F49EF5DBCF0EF4E0950B2EBA2FA02D53
:101590000B01B90190010C01CA01A0011124FF2720
:1015A000591B99F0593F50F4503E68F11A16F0401B
:1015B000A22F232F342F4427585FF3CF469537951A
:1015C0002795A795F0405395C9F77EF41F16BA0BDF
:1015D000620B730B840BBAF09150A1F0FF0FBB1F8D
:1015E000661F771F881FC2F70EC0BA0F621F731FD6
:1015F000841F48F4879577956795B795F7959E3F33
:1016000008F0B3CF9395880F08F09927EE0F9795C0
:10161000879508950CD05FCF57DF40F04EDF30F054
:1016200021F45F3F19F040CF511189CF43CF64DFE0
:1016300098F39923C9F35523B1F3951B550BBB2799
:10164000AA2762177307840738F09F5F5F4F220F46
:10165000331F441FAA1FA9F333D00E2E3AF0E0E83F
:1016600030D091505040E695001CCAF729D0FE2F8B
:1016700027D0660F771F881FBB1F2617370748071D
:10168000AB07B0E809F0BB0B802DBF01FF279358D3
:101690005F4F2AF09E3F510568F006CF50CF5F3F65
:1016A000ECF3983EDCF3869577956795B795F795BB
:1016B0009F5FC9F7880F911D9695879597F90895B3
:1016C000E1E0660F771F881FBB1F6217730784074F
:1016D000BA0720F0621B730B840BBA0BEE1F88F75E
:1016E000E095089504D06894B11129CF08950CDFD6
:1016F00088F09F5790F0B92F9927B751A0F0D1F0FB
:10170000660F771F881F991F1AF0BA95C9F712C084
:10171000B13081F013DFB1E0089510CF672F782F3B
:101720008827B85F39F0B93FCCF3869577956795F0
:10173000B395D9F73EF490958095709561957F4F5C
:101740008F4F9F4F089529DE08F48FEF0895EE0F15
:10175000FF1F881F8BBF0790F691E02D19940F9300
:101760001F93CF93DF938230910510F482E090E0D5
:10177000E0917D03F0917E0320E030E0A0E0B0E056
:10178000309719F14081518102811381481759071F
:10179000C8F08417950769F4109731F012960C93EE
:1017A000129713961C9327C000937D0310937E031A
:1017B00022C02115310519F04217530718F49A0178
:1017C000BD01EF01DF01F801DBCF21153105F9F093
:1017D000281B390B2430310580F48A819B816115E7
:1017E000710521F0FB019383828304C090937E03F3
:1017F00080937D03FE01329644C0FE01E20FF31F89
:101800008193919322503109398328833AC02091E2
:101810007B0330917C03232B41F42091060230910D
:10182000070230937C0320937B03209104023091C4
:1018300005022115310541F42DB73EB7409108024C
:1018400050910902241B350BE0917B03F0917C033E
:10185000E217F307A0F42E1B3F0B2817390778F087
:10186000AC014E5F5F4F2417350748F04E0F5F1FE6
:1018700050937C0340937B038193919302C0E0E0FB
:10188000F0E0CF01DF91CF911F910F910895CF9399
:10189000DF93009709F481C0FC0132971382128212
:1018A000A0917D03B0917E03109781F42081318156
:1018B000820F931F20917B0330917C0328173907F7
:1018C00051F5F0937C03E0937B0367C0ED0120E0CA
:1018D00030E0CE17DF0740F44A815B819E0141155D
:1018E0005105F1F0EA01F5CFD383C28340815181E4
:1018F000840F951FC817D90759F488819981840FDF
:10190000951F0296918380838A819B819383828332
:101910002115310529F4F0937E03E0937D033DC04A
:10192000E901FB83EA8349915991C40FD51FEC1754
:10193000FD0761F480819181840F951F0296E90172
:1019400099838883828193819B838A83E0E0F0E09E
:1019500012968D919C911397009719F0FD01DC016F
:10196000F7CF8D919C9111979D012E5F3F4F820F74
:10197000931F20917B0330917C032817390769F46A
:10198000309729F410927E0310927D0302C01382D7
:101990001282B0937C03A0937B03DF91CF910895D3
:1019A0006F927F928F929F92AF92BF92CF92DF926F
:1019B000EF92FF920F931F93CF93DF93009781F4E1
:1019C000CB01DF91CF911F910F91FF90EF90DF90AE
:1019D000CF90BF90AF909F908F907F906F90BFCE31
:1019E000FC01E60FF71F9C0122503109E217F307B3
:1019F00008F4A5C0EC01D9010D911C9111970617AF
:101A00001707A8F00530110508F497C0C80104971E
:101A10008617970708F491C002501109061B170B8F
:101A2000019311936D937C93CF0131DF86C05B01ED
:101A3000A01AB10A4C01800E911EA0917D03B091B5
:101A40007E03612C712CE12CF12C109709F446C017
:101A50008D919C911197A815B905B1F56C0142E0E3
:101A6000C40ED11CCA14DB0478F14C018A189B08FF
:101A7000640142E0C40ED11C1296BC9012971396DA
:101A8000AC91B5E0CB16D10440F0B282A383918231
:101A90008082D9016D937C9309C00E5F1F4F800F28
:101AA000911FF90191838083EB2DFA2FE114F1044A
:101AB00031F0D7011396FC93EE9312973EC0F0934A
:101AC0007E03E0937D0339C06816790608F43C0173
:101AD0007D0112960D90BC91A02DB7CF80917B0314
:101AE00090917C0388169906E1F466167706C8F48F
:101AF0008091040290910502009741F48DB79EB742
:101B00004091080250910902841B950BE817F907D0
:101B1000B0F4F0937C03E0937B03F901718360835D
:101B20000CC0CB011CDE7C01009749F0A801BE016E
:101B30001BD0CE01ACDEC70104C0CE0102C080E0E4
:101B400090E0DF91CF911F910F91FF90EF90DF9088
:101B5000CF90BF90AF909F908F907F906F9008959F
:101B600081E090E0F89410C0FB01DC0102C001901C
:101B70000D9241505040D8F70895FB01DC010190CF
:0C1B80000D920020E1F70895F894FFCFCB
:101B8C000100000000007F03800000010101010141
:101B9C00000101010101010101010101010101012A
:101BAC00010110090B1B0D0F30292B3B2D2F0000B1
:101BBC000002020220202022222200000000D90173
:0C1BCC00430171015A02A2018001940142
:00000001FF
