:100000000DC300003CC300003AC3000038C3000029
:1000100036C3000034C3000032C3000030C3000008
:100020002EC300002CC300002AC3000028C3000018
:1000300026C3000024C3000022C3000020C3000028
:100040001EC300001CC300001AC3000018C3000038
:1000500016C3000014C3000012C300000C943C112E
:100060000EC300000C94730F0C949E0A08C300008A
:1000700006C3000004C3000002C3000000C3000068
:10008000FEC20000FCC20000FAC20000F8C200007C
:10009000F6C20000F4C20000F2C200000C94861107
:1000A000EEC20000ECC20000EAC20000E8C200009C
:1000B000E6C20000E4C20000E2C20000E0C20000AC
:1000C000DEC20000DCC20000DAC20000D8C20000BC
:1000D000D6C20000D4C20000D2C20000D0C20000CC
:1000E000CEC20000C70BCC0BD10BDB0BE50B5E0CBB
:1000F000EF0BF70BFF0B090C130C1D0C2C0C360C23
:100100005E0C400C4A0C540C53105610451049100C
:100110004F108D105A105E10641068106C10721021
:1001200076107A108D108010841088104E414E4940
:100130004E495459494E46CDCCCC3D0AD7233C17A5
:10014000B7D13877CC2B329595E6241FB14F0A00F2
:100150000020410000C84200401C4620BCBE4CCAE2
:100160001B0E5AAEC59D7400407A10F35A00A0725F
:100170004E18090010A5D4E80000E87648170000E2
:10018000E40B54020000CA9A3B000000E1F50500B0
:100190000080969800000040420F000000A08601F9
:1001A000000000102700000000E8030000000064C9
:1001B00000000000000A0000000000010000000034
:1001C000002C76D888DC674F0823DFC1DFAE59E109
:1001D000B1B796E5E3E453C63AE651997696E8E678
:1001E000C28426EB898C9B62ED407C6FFCEFBC9C4B
:1001F0009F40F2BAA56FA5F490055A2AF75C936B5D
:100200006CF9676DC11BFCE0E40D47FEF520E6B517
:1002100000D0ED902E0300943577050080841E08F1
:100220000000204E0A000000C80C333333330F980F
:100230006E12831141EF8D2114893BE65516CFFED6
:10024000E6DB18D1844B381BF77C1D901DA4BBE462
:1002500024203284725E228100C9F124ECA1E53DA4
:10026000270D0A006F6666736574203D20002C2000
:10027000002C204761696E203D20004368203D200E
:100280000043616C6962726174696E6720666F72A7
:1002900020494E4C0D0A000D0A5265737461727448
:1002A0002074686520506879734C6F6767657220A9
:1002B000666F7220746865206368616E676573207D
:1002C000746F2074616B65206566666563742E00CB
:1002D0000D0A43616C6962726174696F6E206861B6
:1002E000732066696E6973686564207375636365FE
:1002F000737366756C6C792E000D0A43616C6962CC
:10030000726174696F6E20686173206661696C65E3
:10031000642E00207365656D7320746F2062652004
:10032000686176696E6720686172647761726520C2
:1003300070726F626C656D73000D0A4368616E6E5A
:10034000656C20000D0A43616C6962726174696FAB
:100350006E2070696E207365656D7320746F206206
:100360006520686176696E67206861726477617282
:1003700065206973737565732E000D0A002C204982
:100380004E4C203D20005D203E20444E4C203D2020
:10039000005D5B00635B000A0A536176656420447C
:1003A0006174613A000D0A000D0A0043616C6962D4
:1003B000726174696F6E2068617320626567756E23
:1003C0002E0D0A00004B696E646C792072656D6FAA
:1003D00076652074686520444D4D20616E64207000
:1003E0007265737320616E79206B657920746F205C
:1003F000636F6E74696E75652E2E2E000D0A54683B
:10040000652076616C7565207365656D7320777204
:100410006F6E672E204B696E646C79206D65617319
:1004200075726520616761696E0D0A003A20456E3C
:1004300074657220766F6C746167652061742063E7
:10044000616C6962726174696F6E2070696E2028D8
:1004500056293A20003A20456E74657220766F6CFA
:10046000746167652061742063616C696272617494
:10047000696F6E2070696E20286D56293A20002021
:10048000636F6E6E656374656420696E2063616C72
:100490006962726174696F6E206D6F64650D0A0028
:1004A000506879734C6F676765722076312E320021
:1004B0007665723D00506879734C6F67676572317D
:1004C0005F32002C2063203D20002C206D203D2039
:1004D000002C2056204170706C696564203D20001E
:1004E0002C2050574D203D20002C204761696E2064
:1004F0003D20004368203D2000000020002300260E
:100500000029002C002F003200000100000301062A
:10051000010901050505050705080808080202028A
:10052000020A0A080804040404010101010101018E
:10053000010303030303030303040707070C0C0C65
:100540000C0C0C0C0C02020202060606060606063D
:10055000060B0B0B0B0B0B0B0B01021020200808DA
:100560001020401020408002010201080402010115
:1005700002040810204080804020100804020180FE
:100580000402018040201008040201080402010155
:10059000020408102040800102040810204080005E
:1005A000000A0B02090C0D0E0807030401000000ED
:1005B000000000000000000000000000000000003B
:1005C00000000000000000000000001211100000F8
:1005D000000000000000000000000000000000001B
:1005E000000000000000002100240027002A002D48
:1005F000003000330001010000040107010A01007E
:10060000002200250028002B002E003100340002BB
:10061000010000050108010B01001B1C11241FBE75
:10062000CFEFD1E2DEBFCDBF00E00CBF12E0A0E013
:10063000B2E0ECE1F2E500E00BBF02C007900D92E2
:10064000AA3DB107D9F725E0AAEDB2E001C01D929D
:10065000A736B207E1F713E0CEE0D3E000E006C032
:1006600021970109802FFE010E94EF26CD30D1078E
:1006700080E00807A9F70E941B160C940C29C0CC37
:10068000EF92FF920F931F93CF93DF931F92CDB7FB
:10069000DEB7FF24F39487E0E82E80913E0390912B
:1006A0003F03E89E8001E99E100D112409551B4F60
:1006B000D801FC9261E0C8010E94191381110BC09E
:1006C000D8011496ED91FC911597108212961C9208
:1006D00012971C9236C0C8010E94F012D8011496DD
:1006E000ED91FC911597808181508E3F50F5FC92E1
:1006F000808112968C9362E0C8010E941913C80190
:100700000E94F012D8011496ED91FC91159780810A
:1007100011968C931982AE014F5F5F4F62E0C80162
:100720000E940B0D63E0C8010E94191380913E03E3
:1007300090913F03019690933F0380933E03069769
:1007400024F4F394B0E8FB12A8CF0F90DF91CF917F
:100750001F910F91FF90EF900895FA0193E0899F08
:10076000E00DF11D112470E0E60FF71F908195FF59
:1007700004C090917B00986003C090917B00977FAC
:1007800090937B0090819F71906C90937C009091EE
:100790007A00906890937A0090917A009064909398
:1007A0007A0090917A0096FDFCCF9091780040916C
:1007B000790020917A002F7720937A00292F30E05A
:1007C0008430D8F4942F9170B92FA0E02A2B3B2BC2
:1007D00041FD325090E0AC01440F551F840F951F2E
:1007E00087569D4FFC01E60FF71F8081882319F083
:1007F000319521953109C90108954370C901942BA0
:100800000895AF92BF92CF92DF92EF92FF920F9333
:100810001F93CF93DF93CDB7DEB7C057D1090FB683
:10082000F894DEBF0FBECDBF65EB74E0CE018B5BED
:100830009F4F0E94DC1360EB74E0CE0101960E9492
:10084000DC13BE016F5F7F4FCE0183960E941214AE
:100850002B964EAD5FAD2B9727966EAD7FAD27974C
:10086000CE0183960E949D13811104C0CE01839610
:100870000E94CA13BE016D5D7F4FCE0189599F4F03
:100880000E941214CE018396C2D6CE010196BFD625
:10089000CE018B5B9F4FBBD6A9964EAD5FADA9979E
:1008A000AC962FADAC9761E0CE0101960E94CA12C2
:1008B000CE010196B1D630916C0220916D029091DB
:1008C0006E0280916F02AE963FAFAE97AF962FAF9C
:1008D000AF97E0969FAFE097E1968FAFE19724E066
:1008E000AE0143595F4F65E0CE0183960E94CA1264
:1008F000CE01839691D6CE018B5B9F4F0E94EE1264
:1009000064E0CE018B5B9F4F0E94B7126BE0CE017B
:100910008B5B9F4F0E94BE1226961FAE26978EEDD0
:10092000A82E82E0B82E90E0C92E92E0D92E10E0D9
:10093000E12CF12C00E027961FAF279728960FAFE8
:100940002897F501EE0DFF1D308121819281838171
:1009500029963FAF29972A962FAF2A972B969FAFBC
:100960002B972C968FAF2C97F601EE0DFF1D308143
:100970002181928183812D963FAF2D972E962FAFA7
:100980002E972F969FAF2F9760968FAF6097CE01CF
:100990008B5B9F4F41D60F5F84E0E80EF11C033064
:1009A00051F61F5F8CE0A80EB11C8CE0C80ED11C64
:1009B000183009F0BDCFCE0189599F4F28D6C059B4
:1009C000DF4F0FB6F894DEBF0FBECDBFDF91CF91E2
:1009D0001F910F91FF90EF90DF90CF90BF90AF905D
:1009E0000895CF93DF93CDB7DEB7CA56D1090FB6BE
:1009F000F894DEBF0FBECDBF0FB6F894A8958091D6
:100A00006000886180936000109260000FBEF9DE84
:100A10008091920290919302A09194026A968DAF78
:100A20009EAFAFAF6A9729961CAE1DAE1EAE1FAE2D
:100A300029972D961CAE1DAE1EAE1FAE2D9761964A
:100A40001CAE1DAE1EAE1FAE619760EA74E0CE0113
:100A500001960E94DC1361E0CE0101960E94D71D31
:100A6000CE010196D4D56FE774E0CE0101960E94C5
:100A7000DC1360E0CE0101960E94D71DCE010196E5
:100A8000C6D500E010E0E7E5F0E0EC0FFD1FE00F59
:100A9000F11F808190E058D60230110509F043C063
:100AA00063E070E0CE0101960E94171DBE016F5FEA
:100AB0007F4FCE0183960E94121465E574E0CE014B
:100AC00083960E94511E811104C0CE0183960E941C
:100AD000CA13BE016D5D7F4FCE018F5A9F4F0E949A
:100AE0001214CE018F5A9F4F0E94AB1E20E030E0BF
:100AF0004AE754E40E9452266B017C01CE018F5AD2
:100B00009F4F85D5CE01839682D5CE0101967FD5A4
:100B10002FE632E143E05CE3C701B6010E945E24A8
:100B200087FD53C068C0B8016F5F7F4FCE0101964B
:100B30000E94171DBE016F5F7F4FCE0183960E94FA
:100B400012146CE274E0CE0183960E94511E811152
:100B500004C0CE0183960E94CA13BE016D5D7F4F13
:100B6000CE018F5A9F4F0E941214CE018F5A9F4F71
:100B70000E94AB1E6B017C01CE018F5A9F4F47D55F
:100B8000CE01839644D5CE01019641D501151105BC
:100B900079F420E030E040E450E4C701B6010E945F
:100BA0005E2487FD12C02AE939E949E850E427C0EC
:100BB0000130110551F52AE939E949E95EE3C70138
:100BC000B6010E945E2487FF11C06CEF73E0CE0176
:100BD00001960E94DC1360E0CE0101960E94D71DB1
:100BE000CE01019614D5015011091EC026EF38E23E
:100BF0004CED5EE304C02FE832EC45EF5CE3C70147
:100C0000B6010E94EB26181604F3F801EE0FFF1F41
:100C1000EE0FFF1F85E490E08C0F9D1FE80FF91F7A
:100C2000C082D182E282F3820F5F1F4F0330110531
:100C30000CF429CF65EC73E0CE0101960E94DC1321
:100C400060E0CE0101960E94D71DCE010196DFD44F
:100C500064EC73E0CE018F5A9F4F0E94DC1361E079
:100C6000CE018F5A9F4F0E94D71DCE0183960E94BE
:100C7000EE1267E0CE0183960E94B71261E0CE01CA
:100C800083960E94BE1282E08BA3CE018396C4D4C9
:100C9000CE0101960E94EE128EEF93E0FBD7892BD6
:100CA00011F4A895F9CF68EE73E0CE010196FDD658
:100CB000843091F789A18770873071F7CE018F5A00
:100CC0009F4FA5D46BEA73E0CE0101960E94DC131E
:100CD00060E0CE0101960E94D71DCE01019697D407
:100CE00010E0712C2E969FAD2E97A8969FAFA897D7
:100CF0002F96AFAD2F97A996AFAFA9976096BFADCE
:100D00006097AA96BFAFAA976196EFAD6197AB9631
:100D1000EFAFAB972D968CAD9DADAEADBFAD2D9722
:100D2000A0968CAF9DAFAEAFBFAFA09729968CAD0C
:100D30009DADAEADBFAD2997A4968CAF9DAFAEAFC4
:100D4000BFAFA4976A969FAD6A97A5969FAFA597E8
:100D50006996AFAD6997A696AFAFA6976896BFADF7
:100D60006897A796BFAFA797EF93AA96EFADAA97FC
:100D7000EF93A996FFADA997FF93A8962FADA897DB
:100D80002F93A0968CAC9DACAEACBFACA097A496B4
:100D9000CCACDDACEEACFFACA497A5960FADA5979F
:100DA000A6962FADA697A7964FADA797672D812F33
:100DB0000E946F1468EA73E0CE0101960E94DC1372
:100DC00060E0CE0101960E94D71DCE0101961FD48E
:100DD00073940F900F900F900F9083E0781282CF52
:100DE0001F5F143009F07DCF61E872E0CE010196FB
:100DF0000E94DC1360E0CE0101960E94D71DCE0157
:100E0000019605D4AEEDB2E06C96BFAFAEAF6C9775
:100E10005D01612C712C6501E12CF12CB8EE8B2E5B
:100E2000B3E09B2E212C312C210140E652E06E2DA7
:100E3000862D93DCBC01990F880B990B0E946424CA
:100E40009B01AC01C201B1010E94EE251B012C01E6
:100E5000B1E08B1A910849F720E030E04AE754E40A
:100E60000E945226E114F10459F0E1E0EE16F1047B
:100E700071F0212C312CA8E44A2EA3E45A2E0DC087
:100E8000212C312CF0E84F2EFFE35F2E06C0212CE1
:100E9000312CE0E24E2EE1E45E2E20E030E040E036
:100EA0005BE30E94C3242AE037ED43E250E40E9452
:100EB000C324A20191010E9452261B012C01D601DC
:100EC0006D937D938D939D936D016BE772E0CE01E1
:100ED00001960E94DC1361E0CE0101960E94D71DAD
:100EE000CE01019694D3B301CE0101960E94171D45
:100EF00060E0CE0101960E94D71DCE01019687D3F6
:100F000061E772E0CE0101960E94DC1361E0CE0140
:100F100001960E94D71DCE01019679D3B701CE016B
:100F200001960E94171D60E0CE0101960E94D71D18
:100F3000CE0101966CD36EE672E0CE0101960E945E
:100F4000DC1360E0CE0101960E94D71DCE01019610
:100F50005ED364E672E0CE0101960E94DC1361E08C
:100F6000CE0101960E94D71DCE01019650D3B20149
:100F7000A101CE0101960E94E91C60E0CE0101961C
:100F80000E94D71DCE01019642D361E672E0CE01E8
:100F900001960E94DC1360E0CE0101960E94D71DED
:100FA000CE01019634D3BFEFEB1AFB0AE3E0EE1655
:100FB000F10409F033CFFFEF6F1A7F0A2CE0A20E85
:100FC000B11C84E06816710409F025CF6EE0662E2E
:100FD00063E0762E230104E01201E12CF12C58EE9F
:100FE000C52E53E0D52E812C912C540140E652E0C1
:100FF0006E2D802FB2DBBC01990F880B990B0E94DC
:1010000064249B01AC01C501B4010E94EE254B0193
:101010005C0191E0C91AD10849F720E030E04AE7C5
:1010200054E4C501B4010E945226E114F10459F0C0
:10103000A1E0EA16F10471F0812C912C48E4A42E71
:1010400043E4B42E0DC0812C912C30E8A32E3FE355
:10105000B32E06C0812C912C20E2A22E21E4B22EC8
:1010600020E030E040E05BE30E94C3242AE037ED5B
:1010700043E250E40E94C324A50194010E94522639
:10108000F10161937193819391931F01FFEFEF1A27
:10109000FF0A23E0E216F10409F0A1CF0F5F8CE014
:1010A000480E511C083009F097CFEEEDF2E010AA7F
:1010B00011AA12AA13AA14AA15AA16AA17AA10AE40
:1010C00011AE12AE13AE3C966E167F0681F790E31A
:1010D000492E92E0592EAB969FADAB979F93AA965F
:1010E000AFADAA97AF93A996BFADA997BF93A896A6
:1010F000EFADA897EF93A0968CAC9DACAEACBFAC17
:10110000A097A496CCACDDACEEACFFACA497A596B2
:101110000FADA597A6962FADA697A7964FADA7970B
:1011200060E0812F0E946F1465EA73E0CE010196A2
:101130000E94DC1360E0CE0101960E94D71DCE0113
:10114000019665D20F900F900F900F9080E090E085
:10115000D3014D915D916D917C91F301E80FF91FE1
:101160004083518362837383F201408151816281A4
:101170007381E80FF91F4083518362837383049660
:101180008C30910529F71F5FFCE06F0E711C2CE07D
:10119000420E511C183009F09ECF60E070E080E0F4
:1011A00092E00E94411D60E670E08EED92E00E94A8
:1011B000411D60E070E080E092E064D260E670E0A3
:1011C0008EED92E05FD267E973E0CE0101960E9456
:1011D000DC1360E0CE0101960E94D71DCE0101967E
:1011E00016D280E0882E82E0982E340100E010E0D4
:1011F000A12CB12CE12CF12C64E973E0CE01019615
:101200000E94DC1360E0CE0101960E94D71DCE0142
:101210000196FDD1B801CE0101960E94171D60E034
:10122000CE0101960E94D71DCE010196F0D161E951
:1012300073E0CE0101960E94DC1360E0CE010196BE
:101240000E94D71DCE010196E2D1B701CE010196D1
:101250000E94171D60E0CE0101960E94D71DCE01AD
:101260000196D5D166E873E0CE0101960E94DC13A9
:1012700060E0CE0101960E94D71DCE010196C7D134
:10128000F301EA0DFB1D4081518162817381CE0122
:1012900001960E94E91C60E0CE0101960E94D71DD4
:1012A000CE010196B4D16DE773E0CE0101960E94A4
:1012B000DC1360E0CE0101960E94D71DCE0101969D
:1012C000A6D16C96EEADFFAD6C97EA0DFB1D40818B
:1012D000518162817381CE0101960E94E91C60E018
:1012E000CE0101960E94D71DCE01019690D16AE7EA
:1012F00073E0CE0101960E94DC1360E0CE010196FE
:101300000E94D71DCE01019682D18FEFE81AF80A0C
:1013100094E0A90EB11CA3E0EA16F10409F06CCF29
:101320000F5F1F4FBCE06B0E711C6C96EEADFFADF6
:101330006C973C966C96FFAFEEAF6C97083011053A
:1013400009F056CF8091950290919602A091970254
:10135000B09198028BA39CA3ADA3BEA300E010E0C4
:10136000E12CF12C6801F3E0CF22DD2483E290E050
:101370008C0F9D1FC80ED91EF401EE0DFF1D40807D
:101380005180628073802DEC3CEC4CE85FE3C3013C
:10139000B2010E94EB26181654F026E636E646E621
:1013A0005FE3C301B2010E945E2487FF02C0D60141
:1013B0001C92B4E0EB0EF11CECE0EE16F104E1F649
:1013C0000F5F1F4FFCE08F0E911C0830110541F696
:1013D0007E0123E2E20EF11C9E01295D3F4FF701E1
:1013E00000E081E09191911102C001E001C080E034
:1013F0002E173F07B9F7882379F064E473E0CE0134
:1014000001960E94DC1360E0CE0101960E94D71D78
:10141000CE010196FCD041C011E4D7018D917D0130
:10142000811137C069E373E0CE0101960E94DC139D
:1014300060E0CE0101960E94D71DCE010196E7D053
:101440001A8219821C821B821E821D8262961FAF25
:10145000629763961FAE6397BE016F5A7F4FCE01AE
:1014600001960E947F1E60E0CE0101960E94D71D6A
:10147000CE010196CCD063E173E0CE0101960E94CB
:10148000DC1360E0CE0101960E94D71DCE010196CB
:10149000BED01F5F153409F0C0CF002319F069EFEB
:1014A00072E002C060ED72E0CE0101960E94DC1392
:1014B00060E0CE0101960E94D71DCE010196A7D013
:1014C00067E972E0CE0101960E94DC1360E0CE0174
:1014D00001960E94D71DCE01019699D0CE010196AA
:1014E0000E94EE1264E0CE0101960E94B71261E004
:1014F000CE0101960E94BE1285E08983CE0101963D
:101500008BD0CE0101960E94EE1264E0CE010196CE
:101510000E94B71261E0CE0101960E94BE1286E0E1
:101520008983CE01019678D0FFCF8EEF93E0B2D3BE
:1015300021E0892B09F420E0822F08951F920F9259
:101540000FB60F9211240BB60F922F933F934F9328
:101550005F936F937F938F939F93AF93BF93EF931B
:10156000FF938EEF93E0F5D4FF91EF91BF91AF9190
:101570009F918F917F916F915F914F913F912F91AB
:101580000F900BBE0F900FBE0F901F901895EF920B
:10159000FF920F931F93CF93DF937C018C01C8ECD4
:1015A000D0E0CE010E947A25F80181938F01219627
:1015B000CC3CD105B1F7C701DF91CF911F910F91BD
:1015C000FF90EF900895DF92EF92FF920F931F9399
:1015D000CF93DF937C018C01C8ECD0E0F801D1906F
:1015E0008F01CE010E947A25D81621F06D2DCE01F3
:1015F0000E9482252196CC3CD10581F7C701DF915D
:10160000CF911F910F91FF90EF90DF900895FC0113
:10161000808191810C948F27CF93DF93EC016AEA4C
:101620008EEF93E0B8D468A185E58627FE01262FCA
:1016300030E093E0359527959A95E1F72C0F3D1F03
:10164000E217F30719F091918927FACF89A38EEF5A
:1016500093E0A1D469A18EEF93E09DD448A150E01E
:1016600083E0559547958A95E1F74115510539F085
:10167000BE018EEF93E0DF91CF910C944C13DF917C
:10168000CF9108952F923F924F925F926F927F92E7
:101690008F929F92AF92BF92CF92DF92EF92FF9282
:1016A0000F931F93CF93DF9300D01F92CDB7DEB778
:1016B0001C0120E6220E311C8C01CE0101965C013A
:1016C0002E0195E0490E511C3B016A187B08601AF7
:1016D000710A6801ECE0CE0ED11C75014801860C40
:1016E000971CC4018E0D9F1D0E947A25F7018193DE
:1016F0007F014E165F06A9F789819A81AB81BC8173
:10170000F80181939193A193B1938F01CE16DF06D7
:1017100021F78601C214D304E1F60F900F900F90C9
:101720000F90DF91CF911F910F91FF90EF90DF907D
:10173000CF90BF90AF909F908F907F906F905F9071
:101740004F903F902F900895CF93DF93EC0161E08D
:1017500088E012D5209711F460E004C0CF3FD10596
:1017600029F461E088E0DF91CF91D8C4E7EAF5E0A1
:10177000E4918E2F90E0FC013197E231F10508F001
:101780009DC08827EE58FF4F8F4F0C94EF2684B5ED
:10179000806884BDC7BD97C084B5806284BDC8BD64
:1017A00092C080918000806880938000D0938900EF
:1017B000C093880088C08091800080628093800000
:1017C000D0938B00C0938A007EC080918000886097
:1017D00080938000D0938D00C0938C0074C0809162
:1017E000B00080688093B000C093B3006CC080915B
:1017F000B00080628093B000C093B40064C0809158
:101800009000806880939000D0939900C0939800D6
:101810005AC080919000806280939000D0939B008A
:10182000C0939A0050C0809190008860809390008F
:10183000D0939D00C0939C0046C08091A00080681A
:101840008093A0008091A0008F7B8093A000D09314
:10185000A900C093A80037C08091A0008062809347
:10186000A000D093AB00C093AA002DC08091A0002F
:1018700088608093A000D093AD00C093AC0023C0DB
:1018800080912001806880932001D0932901C0932A
:10189000280119C080912001806280932001D0939B
:1018A0002B01C0932A010FC0809120018860809392
:1018B0002001D0932D01C0932C0105C0C038D10563
:1018C0000CF04FCF49CFDF91CF910895282F309161
:1018D000FD03313208F04AC08091D9038111FCCF59
:1018E0009091FC0342E04093D9032093D8032FEF5B
:1018F0002093D7031092D6033093D503ECEDF3E099
:10190000A5EBB3E020E0321721F041914D932F5F1A
:10191000FACF1092B4032091B403990F922B9093B5
:10192000B4039091B303913061F41092B30390919A
:10193000B4039093BB009091BC0093FDF8CF95EC5D
:1019400001C095EE9093BC009091D9039230E1F3E1
:101950009091D7039F3F79F08091D703803241F077
:101960008091D703803331F084E005C081E003C06B
:1019700082E001C083E01092DB031092FD0310921D
:10198000DA0308959091D9039111FCCF613208F0E8
:1019900060E291E09093D9039093D8032FEF2093C6
:1019A000D7031092D603260F2093D5039093B40348
:1019B0009091B403880F892B8093B4038091B30373
:1019C000813061F41092B3038091B4038093BB0023
:1019D0008091BC0083FDF8CF85EC01C085EE80933B
:1019E000BC008091D9038130E1F38091D603861742
:1019F00010F46091D603A5EBB3E0E3E9F3E080E0F7
:101A0000861721F09D9191938F5FFACF10929203E8
:101A1000809391030895EF92FF920F931F93CF93BA
:101A2000DF93EC01062F7A01888111E01093DA032D
:101A30008093FC031092DB031092FD0364E08BE9BA
:101A400094E01DD2602F8BE994E019D261E08BE91C
:101A500094E015D241E050E0B7018BE994E0E3D186
:101A600081E034DF84E08B831E838C819D810E9422
:101A70008F270E8110E0C8010E94F7269D838C837A
:101A80008881B80190E07EDF882331F08BE994E013
:101A9000AED121E0019709F020E0822FDF91CF91B4
:101AA0001F910F91FF90EF9008952F923F924F92C8
:101AB0005F926F927F928F929F92AF92BF92CF92DE
:101AC000DF92EF92FF920F931F93CF93DF93EC017E
:101AD0006B01C6D34B015C01E12CF12CC1D3DC01BD
:101AE000CB0188199909AA09BB098C159D05AE057A
:101AF000BF0510F087E08AC08EEF93E0CBD003974C
:101B00006CF38EEF93E0A4D08A3A910539F78E01F9
:101B1000005E1F4F3E0182E2680E711CA1D36093EC
:101B200006047093070480930804909309048EEFD1
:101B300093E08ED097FF54C093D320910604309148
:101B400007044091080450910904DC01CB01821B79
:101B5000930BA40BB50B2091020430910304409128
:101B600004045091050482179307A407B507F8F2FF
:101B700028A0312C53E0359427945A95E1F73E0183
:101B80002E0100E010E02016310681F069D3DC015F
:101B9000CB0188199909AA09BB098C159D05AE05C9
:101BA000BF0530F1021513050CF4A4CF39A188A1AB
:101BB00025E5282790E043E0959587954A95E1F73C
:101BC000C80FD91F6C167D0629F0F30181913F01E2
:101BD0002827F8CF321302C084E018C08AE016C06C
:101BE000F80181938F01E615F70509F097CFC0CF73
:101BF0008EEF93E04FD0892B31F20F5F1F4F8EEFA6
:101C000093E026D0F20181932F01BDCFDF91CF91D8
:101C10001F910F91FF90EF90DF90CF90BF90AF900A
:101C20009F908F907F906F905F904F903F902F90FC
:101C30000895FC01538D448D252F30E0842F90E0D2
:101C4000821B930B541710F0CF96089501970895B7
:101C5000FC01918D828D981761F0828DDF01A80FB4
:101C6000B11D5D968C91928D9F5F9F73928F90E0D6
:101C700008958FEF9FEF0895FC01918D828D981745
:101C800031F0828DE80FF11D858D90E008958FEF82
:101C90009FEF0895FC01918D228D892F90E0805C4B
:101CA0009F4F821B91098F739927089580E090E0E0
:101CB000892B19F03ADC811125C080E090E0892B56
:101CC00041F080E090E0892B21F00E94000081111A
:101CD0001CC080E090E0892B41F080E090E0892BEF
:101CE00021F00E940000811113C080E090E0892B58
:101CF000A1F080E090E0892B81F00E94000081112A
:101D00000AC008950E940000D8CF0E940000E1CFD1
:101D10000E940000EACF0C94000008953FB7F894A9
:101D200080915D0590915E05A0915F05B091600581
:101D300026B5A89B05C02F3F19F00196A11DB11D26
:101D40003FBFBA2FA92F982F8827820F911DA11D61
:101D5000B11DBC01CD0142E0660F771F881F991F9E
:101D60004A95D1F7089585ED8093BC008091BC0021
:101D700084FDFCCF1092D903089540913505262F9C
:101D800030E0240F311D21323105DCF42091D903DC
:101D90002430C9F4FC0180E090E0861758F43091BB
:101DA00035052191DC01AB5EBA4FA30FB11D2C9319
:101DB0000196F3CF80913505680F6093350580E07B
:101DC000089581E0089582E00895089508950895A2
:101DD000E091920380919103E81730F4F0E0ED5622
:101DE000FC4F808190E008958FEF9FEF08959091D0
:101DF000920380919103981750F4E92FF0E0ED568B
:101E0000FC4F208130E09F5F9093920302C02FEF40
:101E10003FEFC90108958091910390E020919203D2
:101E2000821B91090895CF92DF92EF92FF920F9358
:101E30001F93CF93DF937C01CB018A012091DA03BA
:101E4000222389F0EB016B01C40ED51ECC15DD05F4
:101E500061F06991D701ED91FC910190F081E02D45
:101E6000C7011995F3CF642F88DFC801DF91CF91A7
:101E70001F910F91FF90EF90DF90CF900895CF9337
:101E8000DF931F92CDB7DEB769832091DA03222357
:101E9000D1F02091FD03203240F021E030E0FC0140
:101EA0003383228380E090E014C08091DB03E82F2D
:101EB000F0E0E452FC4F998190838F5F8093DB03C5
:101EC0008093FD0304C061E0CE01019656DF81E0FE
:101ED00090E00F90DF91CF910895089580E090E019
:101EE00008950E94F8281F920F920FB60F921124A6
:101EF0000BB60F922F938F939F93EF93FF93E091E5
:101F00000E04F0910F048081E0911404F091150407
:101F100082FD12C09081809117048F5F8F73209192
:101F20001804821751F0E0911704F0E0E250FC4FE2
:101F3000958F8093170401C08081FF91EF919F914D
:101F40008F912F910F900BBE0F900FBE0F901F908F
:101F50001895FC01848DDF01A80FB11DA35ABF4F56
:101F60002C91848D90E001968F739927848FA68998
:101F7000B7892C93A089B1898C91837080648C93EC
:101F8000938D848D981306C00288F389E02D80819B
:101F90008F7D80830895EF92FF920F931F93CF93CD
:101FA000DF93EC0181E0888F9B8D8C8D981305C0A9
:101FB000E889F989808185FD25C0F62E0B8D10E01A
:101FC0000F5F1F4F0F731127E02E8C8DE8120BC08F
:101FD0000FB607FCFACFE889F989808185FFF5CF34
:101FE000CE01B7DFF2CF8B8DFE01E80FF11DE35A72
:101FF000FF4FF0829FB7F8940B8FEA89FB898081AD
:1020000080620AC09FB7F894EE89FF896083E889EF
:10201000F98980818370806480839FBF81E090E034
:10202000DF91CF911F910F91FF90EF900895CF9383
:10203000DF93EC01888D8823C1F0EA89FB898081D8
:1020400085FD05C0A889B9898C9186FD0EC00FB6A3
:1020500007FCF5CF808185FFF2CFA889B9898C91E3
:1020600085FFEDCFCE0175DFE8CFDF91CF910895E9
:1020700090E0FC013197E231F10508F04EC088276D
:10208000EC57FF4F8F4F0C94EF26809180008F7795
:1020900003C0809180008F7D80938000089580919F
:1020A0008000877FF9CF84B58F7702C084B58F7D9C
:1020B00084BD08958091B0008F7703C08091B000F7
:1020C0008F7D8093B0000895809190008F7707C036
:1020D000809190008F7D03C080919000877F8093D6
:1020E000900008958091A0008F7707C08091A00094
:1020F0008F7D03C08091A000877F8093A00008950A
:10210000809120018F7707C0809120018F7D03C0CF
:1021100080912001877F8093200108951F93CF93A2
:10212000DF93282F30E0F901E156FA4F8491F9014D
:10213000E75AFA4FD491F901ED5EFA4FC491CC23DE
:10214000B9F0162F811194DFEC2FF0E0EE0FFF1F96
:10215000E150FA4FA591B4919FB7F894111104C0C2
:102160008C91D095D82302C0EC91DE2BDC939FBFDD
:10217000DF91CF911F910895CF93DF9390E0FC0101
:10218000E75AFA4F2491FC01ED5EFA4F84918823BF
:1021900061F190E0880F991FFC01EB51FA4FC59156
:1021A000D491FC01E150FA4FA591B491611109C09D
:1021B0009FB7F8948881209582238883EC912E2301
:1021C0000BC0623061F49FB7F8948881322F30954C
:1021D00083238883EC912E2B2C939FBF06C08FB74F
:1021E000F894E8812E2B28838FBFDF91CF9108953B
:1021F0008F929F92AF92BF92CF92DF92EF92FF9217
:102200006B017C018BDD4B015C01C114D104E10445
:10221000F104E9F083DDDC01CB0188199909AA09F1
:10222000BB09883E9340A105B10578F321E0C21AAD
:10223000D108E108F10888EE880E83E0981EA11C01
:10224000B11CC114D104E104F10421F7DECFFF90E9
:10225000EF90DF90CF90BF90AF909F908F900895B8
:102260002FB7F8946091590570915A0580915B05DC
:1022700090915C052FBF08951F920F920FB60F9299
:1022800011242F933F938F939F93AF93BF9380918C
:10229000590590915A05A0915B05B0915C0530916C
:1022A000580523E0230F2D3720F40196A11DB11D01
:1022B00005C026E8230F0296A11DB11D20935805E5
:1022C0008093590590935A05A0935B05B0935C05E4
:1022D00080915D0590915E05A0915F05B0916005CC
:1022E0000196A11DB11D80935D0590935E05A0939D
:1022F0005F05B0936005BF91AF919F918F913F9122
:102300002F910F900FBE0F901F9018951F920F9254
:102310000FB60F9211240BB60F922F933F934F934A
:102320005F936F937F938F939F93AF93BF93EF933D
:10233000FF938091B900887F803609F49CC068F5CE
:10234000883209F45BC090F4803109F454C038F449
:10235000882309F4F6C0883009F44DC0F5C08831EF
:1023600009F44CC0803209F45DC0EEC0803409F439
:1023700068C048F4803309F455C0883309F0E4C0DC
:102380008093D703D8C0803509F44FC0883509F44D
:102390005DC0883409F0D8C0D6C0883909F4C7C0F8
:1023A000A8F4883709F467C038F4883609F463C0A4
:1023B000803709F460C0C8C0883809F4B8C08039D3
:1023C00009F45FC0803809F0BFC05BC0803B09F4EE
:1023D00086C038F4803A09F466C0883A09F47FC0B0
:1023E000B3C0803C09F4A7C0883C09F4A4C0883B72
:1023F00009F48AC0A9C08091B40310C09091D6039B
:102400008091D503981770F5E091D60381E08E0F87
:102410008093D603F0E0EB54FC4F80818093BB00A7
:1024200085EC86C08093D7038EC0E091D60381E00F
:102430008E0F8093D6038091BB00F0E0EB54FC4FED
:1024400080839091D6038091D5036EC0E091D6032E
:1024500081E08E0F8093D6038091BB00F0E0EB54B7
:10246000FC4F80838091D80381116DC081E08093FF
:10247000B30384EA61C083E08093D90310925705C7
:10248000CFCF80915705803208F051C0E0915705B9
:1024900081E08E0F809357058091BB00F0E0E95CEE
:1024A000FA4F8083BDCF85EC8093BC001092D90396
:1024B00080915705803230F4E0915705F0E0E95CF7
:1024C000FA4F10826091570570E0E091DA02F091C6
:1024D000DB0287E395E019951092570535C084E03B
:1024E0008093D9031092360510923505E091DC02F5
:1024F000F091DD02199580913505811105C081E0CB
:102500008093350510921505E091360581E08E0F18
:1025100080933605F0E0EB5EFA4F80818093BB003C
:102520009091360580913505981708F479CF85E8A4
:102530008093BC0009C085EC8093BC001092D90345
:1025400003C01092D7030FDCFF91EF91BF91AF91C1
:102550009F918F917F916F915F914F913F912F91BB
:102560000F900BBE0F900FBE0F901F901895FC019F
:1025700090A1987F6770692B60A30895FC01962F46
:1025800060A1262F277088E0989FB0011124622B4C
:1025900060A30895EF92FF921F93CF93DF93182FBC
:1025A000D92F7A01C22FE3DF6C2F812F9D2FE6DF19
:1025B000CC2371F02C2F30E0E12FFD2FD701CD017E
:1025C0008E199F098217930718F48D918193F7CF85
:1025D000DF91CF911F91FF90EF9008956DE0CECFE6
:1025E000EF92FF920F931F93CF93DF93FC016681CD
:1025F0006623C1F0EC0170E0808190E0C3D900E077
:1026000010E08E8190E00817190764F4EC80FD80DB
:10261000E00EF11E8BE994E0EADBF70180830F5FA7
:102620001F4FEFCFDF91CF911F910F91FF90EF9050
:1026300008951F93CF93DF93EC01162F888191E0CB
:102640009093DA038093FC031092DB031092FD0356
:102650008BE994E014DC81E039D91B83888161E047
:1026600070E090E08FD9882381F08BE994E0BFDBA4
:102670008E838C819D810E948F278E8190E00E94A5
:10268000F7269D838C8381E001C080E0DF91CF91AC
:102690001F9108950C948225CF92DF92EF92FF92C2
:1026A0000F931F93CF93DF936C017A018B01C0E0EE
:1026B000D0E0CE15DF0581F0D8016D918D01D601F6
:1026C000ED91FC910190F081E02DC6011995892BC7
:1026D00011F02196EECF7E01C701DF91CF911F91BE
:1026E0000F91FF90EF90DF90CF9008950F931F937D
:1026F000CF93DF93EC0188819981009729F02A819B
:102700003B812617370788F48B016F5F7F4F0E944C
:102710001828009761F0998388831B830A832C8192
:102720003D81232B11F4FC01108281E001C080E087
:10273000DF91CF911F910F910895EF92FF920F9328
:102740001F93CF93DF936115710511F480E01BC0D7
:1027500041155105B9F07B01EC018C819D818A0105
:10276000080F191FB801CE01C1DF882379F3288132
:1027700039818C819D81B701820F931F0E940529A9
:102780001D830C8381E0DF91CF911F910F91FF900A
:10279000EF900895CF93DF93EC01888199810097A2
:1027A00011F00E948F27198218821D821C821B82C1
:1027B0001A82DF91CF910895EF92FF920F931F93AA
:1027C000CF93DF93EC01198218821B821A821D823B
:1027D0001C8261157105F9F08B01CB010E9461200B
:1027E0007C01BC01CE0182DF811108C0CE01DF91E6
:1027F000CF911F910F91FF90EF90CCCFFD82EC8293
:10280000B80188819981DF91CF911F910F91FF903D
:10281000EF900C945A20DF91CF911F910F91FF9070
:10282000EF900895EF92FF920F931F93CF93DF9352
:10283000FC01118210821382128215821482861783
:10284000970729F1DB010D911C91119701151105D5
:10285000F1F0EC011496ED90FC901597B70146DF6E
:10286000811108C0CE01DF91CF911F910F91FF9090
:10287000EF9090CFFD82EC82B80188819981DF9141
:10288000CF911F910F91FF90EF900C940529DF914C
:10289000CF911F910F91FF90EF900895A4E4B3E0C2
:1028A000E0E4F3E040E050E020E063E070E08D9190
:1028B000843018F48081837003C0883038F4CB01F1
:1028C000042E01C0880F0A94EAF7282B31964E5F38
:1028D0005F4F4830510559F72093FB0408952F921C
:1028E0003F924F925F926F927F928F929F92AF92A0
:1028F000BF92CF92DF92EF92FF920F931F93CF93ED
:10290000DF9300D000D0CDB7DEB7782E162F642E1F
:102910004C8D3D8D9E8D8F8D53E0571568F066234D
:1029200059F0613031F0C42ED32EE92EF82E602EEE
:1029300003C064017501622E862D90E00E94A40BF5
:1029400068E775E080E090E053DC83E0612F871555
:1029500048F0872DE6D720E030E040E05BE30E94BE
:10296000C32408C0872DDDD720E030EC4FE754E4C6
:102970000E9452262AE037ED43E250E40E94C3242D
:102980002EE338EF40E850E40E94C3244B015C0181
:1029900080E090E00E94A40B68E775E080E090E0A2
:1029A00027DC53E0612F872D5715D0F0BAD720E0F0
:1029B00030E040E05BE30E94C3242AE037ED43E2CD
:1029C00050E40E94C3242EE338EF40E850E40E9414
:1029D000C32411111BC020E030E040E85FE321C0B8
:1029E000A0D720E030EC4FE754E40E9452262AE0C2
:1029F00037ED43E250E40E94C3242EE338EF40E871
:102A000050E40E94C3241B012C0127C0113029F07F
:102A100020E030E048E453E404C020E030E040E24D
:102A200051E40E9452261B012C01112339F0113070
:102A300051F020E030E048E453E409C020E030E009
:102A400040E85FE304C020E030E040E251E4C5012B
:102A5000B4010E9452264B015C01A2019101C50103
:102A6000B4010E94ED259B01AC01B601C7010E9493
:102A700052264B015C0163EF74E0CE0101969CDEAF
:102A800060E0CE0101960E94D71DCE0101960E9402
:102A9000070B672DCE0101960E94AC1D60E0CE01B0
:102AA00001960E94D71DCE0101960E94070B69EE88
:102AB00074E0CE01019680DE60E0CE0101960E94B6
:102AC000D71DCE0101960E94070B612FCE01019602
:102AD0000E94AC1D60E0CE0101960E94D71DCE0180
:102AE00001960E94070B60EE74E0CE01019664DE51
:102AF00060E0CE0101960E94D71DCE0101960E9492
:102B0000070B662DCE0101960E94AC1D60E0CE0140
:102B100001960E94D71DCE0101960E94070B61ED20
:102B200074E0CE01019648DE60E0CE0101960E947D
:102B3000D71DCE0101960E94070BA601B701CE0159
:102B4000019647D760E0CE0101960E94D71DCE01C5
:102B500001960E94070B6AEC74E0CE0101962CDE10
:102B600060E0CE0101960E94D71DCE0101960E9421
:102B7000070BB501A401CE0101962BD760E0CE0171
:102B800001960E94D71DCE0101960E94070B63ECAF
:102B900074E0CE01019610DE60E0CE0101960E9445
:102BA000D71DCE0101960E94070BA5019401C20119
:102BB000B1010E94C3249B01AC0160E070E0CB0135
:102BC0000E94ED25AB01BC01CE01019602D760E069
:102BD000CE010196ECD7CE0101960E94070B872DFE
:102BE00090E0FC01EE0FFF1FE80FF91FE10FF11D50
:102BF000EE0FFF1FEE0FFF1FE050FE4F808291820D
:102C0000A282B38226960FB6F894DEBF0FBECDBF68
:102C1000DF91CF911F910F91FF90EF90DF90CF90B8
:102C2000BF90AF909F908F907F906F905F904F90EC
:102C30003F902F900895CF93DF93CDB7DEB7E897FD
:102C40000FB6F894DEBF0FBECDBF789484B5826016
:102C500084BD84B5816084BD85B5826085BD85B540
:102C6000816085BD80916E00816080936E001092BE
:102C70008100809181008260809381008091810039
:102C800081608093810080918000816080938000CA
:102C90008091B10084608093B1008091B000816028
:102CA0008093B00080919100826080939100809128
:102CB0009100816080939100809190008160809369
:102CC00090008091A10082608093A1008091A1007A
:102CD00081608093A1008091A00081608093A0001A
:102CE0008091210182608093210180912101816086
:102CF0008093210180912001816080932001809147
:102D00007A00846080937A0080917A008260809358
:102D10007A0080917A00816080937A0080917A00B5
:102D2000806880937A001092C100E0910E04F091C7
:102D30000F0482E08083E0910A04F0910B0410827A
:102D4000E0910C04F0910D0480E180831092160450
:102D5000E0911204F091130486E08083E091100466
:102D6000F0911104808180618083E0911004F091E2
:102D70001104808188608083E0911004F091110437
:102D8000808180688083E0911004F091110480813B
:102D90008F7D808361E085E1EFD960E084E1ECD94B
:102DA00061E084E1BBD934E1E32EF12C43EBC42E86
:102DB00045E0D42E5DE6A52E55E0B52E67E2862EC1
:102DC00065E0962E0E9403202B013C01617085E195
:102DD000A5D961E070E080E090E00ADAF601849124
:102DE000F5010491F4011491112399F0811140D956
:102DF000E12FF0E0EE0FFF1FE750FB4FA591B491DC
:102E00008C91082331E020E009F430E0832F922FE9
:102E100002C080E090E0092E000CAA0BBB0BF1E091
:102E20004F2255246624772484159505A605B705F9
:102E300039F421E0E21AF10809F0C4CF0E94F1044C
:102E400010929203109291031092DB031092FD03F3
:102E50001092D90381E08093D8031092B30361E00C
:102E600084E15CD961E085E159D98091B9008E7F18
:102E70008093B9008091B9008D7F8093B90088E478
:102E80008093B80085E48093BC0085EE9EE090932B
:102E9000DD028093DC0286EE9EE09093DB0280935D
:102EA000DA028CE08093B80084E690E0A0E0B0E025
:102EB00080939F049093A004A093A104B093A204D4
:102EC00007EA14E087E0F82EFE0131966F01D60183
:102ED000EF2D1D92EA95E9F781E090E00E94F72638
:102EE0009E838D83F601D8018F2D01900D928A95D6
:102EF000E1F7095F1F4FF4E0013D1F0741F7109212
:102F00004003109241031092420310924303109227
:102F1000440381E08093450382E08093460383E08D
:102F20008093470361E08DE027D96DE083EF94E063
:102F300025DB62E083EF94E01ADB1092FB0494EC53
:102F4000E92EF12C00EC10E0C8010E947A258738A8
:102F500018F060E0C8019EDBC7010E947A2584302A
:102F600018F060E0C70196DB0F5F1F4F2FEFE21AEA
:102F7000F20A043C110541F780916C0290916D02B8
:102F8000A0916E02B0916F028FA398A7A9A7BAA7CC
:102F90008BA39CA3ADA3BEA389839A83AB83BC837D
:102FA000CE0187960E94C70AFC0180819181A2818F
:102FB000B381892B8A2B8B2B09F439C4CE018396DC
:102FC0000E94C70AFC0180819181A281B381813175
:102FD0009742A105B10508F02AC440E752E060E03D
:102FE00080E00E94AD0380917A008E7F80937A000A
:102FF00060E070E080E092E00E94420B60E670E0EA
:103000008EED92E00E94420B0E94010429D9609348
:1030100084037093850380938603909387030FB690
:10302000F894A89580916000886180936000109268
:1030300060000FBE80E890E00E94A40B6091B10296
:103040007091B2028091B3029091B4026DAB7EABED
:103050008FAB98AFCE0105969CA78BA701D965369B
:1030600071058105910508F0A8958EEF93E00E9407
:103070004A0E892B09F43BC168EB7BE081ED94E0BB
:103080000E94550D843009F032C18091F10487709F
:10309000813019F40E9401042AC1843041F58091E5
:1030A000D104813019F48093900302C010929003F0
:1030B00060E08DE033D814E4E12E13E0F12E00E45B
:1030C00013E080ECC82ED12CD7016D917D01C60193
:1030D000E1DAF80161918F01C6010496DBDAFFEFB6
:1030E000CF1ADF0A24ECC216D10471F7ABC08630C8
:1030F00039F50E94400307EA14E0E12CF12C80919D
:103100003E0390913F03E816F9060CF0F0C0D80199
:1031100012968C9112978BA38C918CA322E0AE0116
:103120004D5D5F4F63E0CE01019634DACE0101962A
:103130000E940C0BBFEFEB1AFB0A095F1F4FDFCF9A
:10314000833091F48091D10490E061E02091D20429
:10315000211101C060E0FC01E05CFC4F60838C53F6
:103160009F4F98DA9BDBC3C0823009F044C0809146
:10317000D20487FD0CC0D090D104ED2DF0E0811178
:1031800084E0EC5BFC4FD80ED08288DB29C0B0E82D
:10319000DB2ED80E07EA14E0E12CF12C80913E03DF
:1031A00090913F03E816F906DCF4F8018081D8120B
:1031B00011C08091D10490E0FC01EE0FFF1FE85791
:1031C000FC4F11830083FC01EC5BFC4F2091D20487
:1031D000208364DBFFEFEF1AFF0A095F1F4FDECF8A
:1031E0008091D10490E0FC01EC5BFC4F6081805445
:1031F0009F4F50DA7CC0853051F58091D20490E029
:10320000982F88272091D104820F911DAC01990F2E
:10321000660B770B40936C0250936D0260936E02C5
:1032200070936F028BA35CA36DA37EA324E0AE0119
:103230004D5D5F4F65E0CE010196ACD9CE010196A0
:103240000E940C0B8CE692E00E94E30A50C087308B
:1032500009F04DC08091D104833009F507EA14E0EC
:10326000E12CF12C80913E0390913F03E816F90682
:10327000F4F5D8019C918091D20498130AC08091F2
:10328000D3048983AE014F5F5F4F61E0C8010E94A4
:103290000B0DBFEFEB1AFB0A095F1F4FE3CF843022
:1032A00031F507EA14E0E12CF12C80913E03909176
:1032B0003F03E816F906DCF4F80190818091D2040E
:1032C00098130FC08091D404813059F46091D304D5
:1032D0008091D5048983AE014F5F5F4FC8010E9482
:1032E0000B0DFFEFEF1AFF0A095F1F4FDECFF090C3
:1032F0009003F110B6C00E94301100918403109128
:1033000085032091860330918703DC01CB01801B6C
:10331000910BA20BB30B893E9340A105B10508F4B4
:1033200048C00E94400364E4C62E63E0D62E00EC41
:1033300010E0C8010E947A25D6018D936D0187FFA8
:103340001DC020913E0330913F0368E873E084E4A0
:1033500093E0E7EAF4E0AC014454534042175307CA
:103360006CF4DC014D91CD015081541303C0DB019D
:10337000ED93FC9337966E5F7F4FEDCF0F5F1F4F3E
:10338000043C1105B1F650E4C52E53E0D52EC8011A
:103390000E947A25F60181936F010F5F1F4F083C51
:1033A0001105A9F78CE692E00E94C70AF1E0F093BC
:1033B00090030E9430118090800390908103A09030
:1033C0008203B0908303DC01CB0188199909AA0913
:1033D000BB09893B9B40A105B105C0F10E9430119A
:1033E00086169706A806B90671F00E943011DC0116
:1033F000CB0188199909AA09BB0911E08436910506
:10340000A105B10508F010E00E943011DC01CB01EC
:1034100088199909AA09BB09893C9105A105B1053B
:1034200080F00E943011DC01CB0188199909AA09AA
:10343000BB09FF24F3948C329140A105B10508F03B
:10344000F12C612F6F298DE00E948E100E943011A7
:10345000609380037093810380938203909383032E
:10346000E3C160916C0270916D0280916E02909147
:103470006F020E9462249B01AC0160E070E080E278
:1034800091E40E9452264B015C0120E030E040E8CC
:103490005FE30E945E2487FD06C0812C912C40E8EA
:1034A000A42E4FE3B42E8DA99EA9AFA9B8AD8983F0
:1034B0009A83AB83BC83DE0111963D01F301E19059
:1034C0003F01F12C87010C5B1C4FD8012C91C701E7
:1034D000880F991F27FD31C020917A002068209322
:1034E0007A004CE3D701A05CBC4F8E0D9F1D805A23
:1034F0009D4F2C91FC01E20FF11D208120937C0057
:103500004150B9F780917A008F7780937A0040E735
:1035100052E06C91D8018C910E94AD038701000F9D
:10352000111F000F111F00591C4FBC01990F880B70
:10353000990B0E946424F80179C0FC01E857FC4F04
:1035400000811181D80113968C91833019F063E0CA
:10355000C8016FD8C80144D8F8018181873081F44F
:103560000480F581E02D5081418132812381852FB6
:10357000942FA32FB22F8DA79EA7AFA7B8AB4BC098
:103580008130D1F1823051F40480F581E02D6081E9
:10359000062E000C770B880B990B29C0833059F449
:1035A0000480F581E02D618170E0762F66278081AF
:1035B000680F711D28C0843079F40480F581E02DF6
:1035C000618170E0762F66278081680F711D072E5C
:1035D000000C880B990B0BC0853071F0863051F4CC
:1035E0000480F581E02D608170E080E090E00E9431
:1035F00064240DC0883079F4D8011496ED91FC91C3
:103600001597608170E080E090E00E9462246DA7D1
:103610007EA78FA798ABF701EE0FFF1FEE0FFF1FDE
:10362000E059FC4F6DA57EA58FA598A96083718395
:10363000828393838701000F111F000F111FC801A0
:10364000805A9C4F2C01A501940160E070E080E855
:103650009FE30E94ED25D2012D913D914D915C910A
:103660000E94C3246B017C01F801E059FC4F2081CA
:10367000318142815381C501B4010E94C3249B0161
:10368000AC01C701B6010E94EE25F201608371838F
:10369000828393836BA57CA56616770609F00ECF0F
:1036A00080916C0290916D02A0916E02B0916F02B8
:1036B0000B97A105B10530F061E070E080E090E08B
:1036C0000E94F8100E94301100915C0310915D037C
:1036D00020915E0330915F03DC01CB01801B910BD5
:1036E000A20BB30B00916C0210916D0220916E023F
:1036F00030916F0280179107A207B30708F494C0B6
:103700000E943011B62EC72ED82EA92E60935C03CE
:1037100070935D0380935E0390935F031092FA04AD
:1037200080E693E09CAB8BAB94E5E92E93E0F92E19
:103730002CE4822E23E0922EA6EFB4E0BAABA9AB24
:1037400000E010E0EBA9FCA94190519061907190CC
:10375000FCABEBAB20E030E84FEF53ECC301B20120
:103760000E94EB2618166CF420E030E84FEF53E48B
:10377000C301B2010E945E2487FD06C06FEF81E0A5
:1037800008C061E08EEF05C0C301B2010E94BA26F5
:10379000872FD7016C9311968C93B2E0EB0EF11C3E
:1037A000262F382F37FF03C0319521953109F401B9
:1037B00020833183F2E08F0E911CA9A9BAA92D9321
:1037C000BAABA9AB881F8827881FA8014F5F5F4F3E
:1037D00001C0880F4A95EAF77091FA04872B232ECF
:1037E000312C910121703327002E01C0220F0A9441
:1037F000EAF7822B8093FA040E5F1F4F0830110501
:1038000009F0A0CFB0924803C0924903D0924A0376
:10381000A0924B03B092F304C092F404D092F5044A
:1038200083EF94E00E940C0B0E94560E17CCC60149
:103830000E94E30AD2CB1F93CF93DF93109201042F
:103840001092000488EE93E0A0E0B0E080930204C0
:1038500090930304A0930404B093050429EB32E091
:103860003093FF032093FE0325EC30E030930B04EC
:1038700020930A0424EC30E030930D0420930C04D0
:1038800020EC30E030930F0420930E0421EC30E064
:10389000309311042093100422EC30E03093130491
:1038A0002093120426EC30E0309315042093140486
:1038B00010921704109218041092190410921A040E
:1038C00010929E0410929D0480939F049093A004F4
:1038D000A093A104B093A2048BEC92E090939C047B
:1038E00080939B0483EF94E00E94EE1281ED94E0BC
:1038F0000E94EE12C7EAD4E017E0FE01812F119278
:103900008A95E9F781E090E00E94F7269D838C83F9
:103910002796E4E0C13DDE0781F7DF91CF911F914B
:1039200008954F925F926F927F928F929F92AF9283
:10393000BF92CF92DF92EF92FF92CF93DF93C82F87
:10394000D62F0E9430112B013C01812C912C540167
:10395000C12CD12C76010E943011DC01CB018419DD
:103960009509A609B709883C9105A105B105C8F4D8
:1039700040E752E06D2F8C2F0E94AD03BC01990FE0
:10398000880B990BA1D79B01AC01C701B6010E941E
:10399000EE256B017C018FEF881A980AA80AB80AF5
:1039A000DACFC501B4018ED79B01AC01C701B601C6
:1039B0000E945226DF91CF91FF90EF90DF90CF9041
:1039C000BF90AF909F908F907F906F905F904F903F
:1039D0000895EF92FF920F931F93CF93DF93CDB78C
:1039E000DEB7A1970FB6F894DEBF0FBECDBF7C0146
:1039F000CB01BA01F7011182108213821282158263
:103A000014828E010F5F1F4F23E045E095D2BC0169
:103A1000C70175D1A1960FB6F894DEBF0FBECDBF1A
:103A2000DF91CF911F910F91FF90EF9008950F9329
:103A30001F93CF93DF93CDB7DEB762970FB6F8949D
:103A4000DEBF0FBECDBF8C01CB01F8011182108209
:103A500013821282158214824AE0BE016F5F7F4F8B
:103A600039D3BE016F5F7F4FC80149D162960FB64F
:103A7000F894DEBF0FBECDBFDF91CF911F910F91A4
:103A800008952F923F924F925F926F927F928F9202
:103A90009F92AF92BF92CF92DF92EF92FF920F93DD
:103AA0001F93CF93DF9300D000D0CDB7DEB72C01AA
:103AB0003B0100E010E05201A00EB11EE12CF12C00
:103AC0001301200E311EF50181919191A191B191C7
:103AD0005F0189839A83AB83BC83CE0101969E8369
:103AE0008D83C12CD12C41018E0C9F1CED81FE8158
:103AF0006191FE83ED83C4018C0D9D1D0E94822582
:103B0000FFEFCF1ADF0A84E0C816D10479F794E0FA
:103B1000E90EF11CECE0EE16F104A9F6045F1F4F6C
:103B20000036110541F626960FB6F894DEBF0FBE9B
:103B3000CDBFDF91CF911F910F91FF90EF90DF905C
:103B4000CF90BF90AF909F908F907F906F905F903D
:103B50004F903F902F9008950F931F93CF93DF9333
:103B6000CDB7DEB729970FB6F894DEBF0FBECDBF35
:103B70008C01862FF8011182108213821282158225
:103B800014824AE0BE016F5F7F4F90E0ADD2BE016C
:103B90006F5F7F4FC801B3D029960FB6F894DEBF90
:103BA0000FBECDBFDF91CF911F910F9108959F92CE
:103BB000AF92BF92CF92DF92EF92FF920F931F933B
:103BC000CF93DF93CDB7DEB7A2970FB6F894DEBFE1
:103BD0000FBECDBF6C01662319F082E0982E02C0A3
:103BE00099249394E12CF12CD60114960D911C91FB
:103BF00015975701E016F10608F041C00E191F098C
:103C00000E31110510F00EE110E0CE0101960E9478
:103C1000EE1264E0CE0101960E94B71261E0600FDF
:103C2000CE0101960E94BE129982E00EF11EF601AD
:103C300044815581E416F50610F484E08983FE0181
:103C40003296C5019C012A193B092017310794F4CB
:103C50008417950758F4D6012D913C912115310513
:103C600029F0D901A80FB91F2C9101C020E02193A0
:103C70000196E8CFCE0101960E940C0BB5CFA2961B
:103C80000FB6F894DEBF0FBECDBFDF91CF911F916D
:103C90000F91FF90EF90DF90CF90BF90AF909F90EB
:103CA0000895EF92FF920F931F93CF93DF936115C7
:103CB000710511F480E01CC08B01EC01CB0101D235
:103CC0000097A9F02C813D817C01E20EF31EB70123
:103CD000CE010E947613882369F3288139818C8173
:103CE0009D81B801820F931FE5D1FD82EC8281E0B6
:103CF000DF91CF911F910F91FF90EF900895EF9278
:103D0000FF920F931F93CF93DF938C017B0161157B
:103D1000710569F0FB0101900020E9F73197EF018F
:103D2000C61BD70BBE010E947613811104C0C801C7
:103D30000E94CA1308C0F801D583C483B7018081EB
:103D400091810E940529C801DF91CF911F910F91A8
:103D5000FF90EF9008958F929F92AF92BF92CF9273
:103D6000DF92EF92FF920F931F93CF93DF93CDB724
:103D7000DEB7E0970FB6F894DEBF0FBECDBF5C0193
:103D80008EEF93E00E944A0E892B29F08EEF93E08C
:103D90000E94280EF5CFD50114968D919C91159710
:103DA0008E010F5F1F4F892B81F4C8010E94EE1214
:103DB00067E0C8010E94B71261E0C8010E94BE120C
:103DC00081E08983C8010E940C0BC12CD12CF50124
:103DD000E480F5804601CE14DF0408F041C0EC1801
:103DE000FD08FEE1EF16F10418F03EE1E32EF12CA0
:103DF000C8010E94EE1267E0C8010E94B71261E09C
:103E00006E0DC8010E94BE12CE0CDF1CD5011496A7
:103E10004D915C91159781E0C416D50608F480E0B9
:103E20008983FE013296C4019C01281939092E1597
:103E30003F0594F48417950758F4D5012D913C91D2
:103E40002115310529F0D901A80FB91F2C9101C006
:103E500020E021930196E8CFC8010E940C0BB7CF58
:103E6000C8010E94EE128EEF93E00E944A0E892B49
:103E700011F4A895F8CF68EE73E0C8010E94550DC3
:103E8000843089F789A18770873069F769E176E026
:103E9000CE0189960E94DC13780189A190E023E08D
:103EA000959587952A95E1F79701201B310B2817E7
:103EB0003907F4F4F70181917F011CA21BA21EA215
:103EC0001DA218A61FA28FA718AABE01615D7F4F71
:103ED000CE01839614DF4FA158A56BA17CA1CE0122
:103EE00089960E949D13CE0183960E94070BD5CF21
:103EF00089A59AA5009721F0DAD06B017C0103C057
:103F0000C12CD12C7601CE0189960E94070BC701E6
:103F1000B601E0960FB6F894DEBF0FBECDBFDF91BD
:103F2000CF911F910F91FF90EF90DF90CF90BF90B6
:103F3000AF909F908F900895EF920F931F93CF9320
:103F4000DF93E80147FD02C034E001C034E1042EF4
:103F5000000C550B57FF03C0519541955109E32EB5
:103F6000022F242FAE01D9D0CE01DF91CF911F9126
:103F70000F91EF9008958F929F92AF92BF92CF9240
:103F8000DF92EF92FF92CF93DF93EC01688179810A
:103F90008A819B81611571058105910521F464E297
:103FA00079ED8BE597E02DE133EF41E050E0B8D5B6
:103FB00049015A019B01AC01A7EAB1E4CDD56B01DF
:103FC0007C01ACEEB4EFA5019401D2D5DC01CB01AC
:103FD0008C0D9D1DAE1DBF1DB7FF03C00197A1092C
:103FE000B04888839983AA83BB83BC01CD019F77A6
:103FF000DF91CF91FF90EF90DF90CF90BF90AF9087
:104000009F908F9008958F929F92AF92BF92CF9280
:10401000DF92EF92FF926091880270918902809105
:104020008A0290918B02611571058105910521F439
:1040300064E279ED8BE597E02DE133EF41E050E06C
:104040006FD549015A019B01AC01A7EAB1E484D5BF
:104050006B017C01ACEEB4EFA501940189D5DC01C4
:10406000CB018C0D9D1DAE1DBF1DB7FF03C0019779
:10407000A109B0488093880290938902A0938A0294
:10408000B0938B02BC01CD019F77FF90EF90DF9042
:10409000CF90BF90AF909F908F90089560938802CB
:1040A0007093890280938A0290938B020895662709
:1040B0007727A9C1FB01DC0105900D920020E1F7F3
:1040C0000895FC0105900020E9F7809590958E0FEA
:1040D0009F1F0895BB274A3031F4992322F4BDE293
:1040E000909581959F4F01C0BB27FB015527AA27BB
:1040F000880F991FAA1FA41710F0A41B8395505175
:10410000B9F7A05DAA3308F0A95DA193009779F7EC
:10411000B111B1931192CB01C1C38F929F92AF9213
:10412000BF92CF92DF92EF92FF920F931F93CF93A4
:10413000DF93CDB7DEB729970FB6F894DEBF0FBE79
:10414000CDBF6A01122FB02E2BE3201720F0FF24E1
:10415000F394F00E02C02CE3F22E0F2D27E0AE01F7
:104160004F5F5F4FA3D2BC014981842F897081309A
:1041700031F0E1FC06C0E0FE06C090E205C09DE221
:1041800003C09BE201C090E05E2D507143FF3CC034
:10419000911102C083E001C084E0811718F4212F3F
:1041A000281B01C020E051110BC0F601822F30E224
:1041B000882319F031938150FBCFC20ED11C20E02F
:1041C000992329F0D6019C93F60131966F01C6011F
:1041D0000396E2FE0AC03EE4D6013C9341E4119608
:1041E0004C93119712963C9306C03EE6F60130833D
:1041F00041E641833283FC01322F40E2332309F44C
:1042000042C041933150FACF42FF44C0911102C0E5
:1042100083E001C084E0811718F4212F281B01C01E
:1042200020E051110BC0F601822F30E2882319F0F3
:1042300031938150FBCFC20ED11C20E0992329F08D
:10424000D6019C93F60131966F01C6010396E2FEFA
:104250000BC039E4D6013C933EE411963C93119790
:1042600036E412963C9307C039E6F60130833EE609
:10427000318336E63283FC01322F40E2332319F0DA
:1042800041933150FBCFFC01E20FF11D10828EEF04
:104290009FEFA6C021E030E0911102C020E030E0A5
:1042A000161617061CF4FB01319602C0E1E0F0E09F
:1042B0002E0F3F1FBB2021F0EB2DF0E0319602C006
:1042C000E0E0F0E02E0F3F1FE12FF0E02E173F0758
:1042D0001CF4121B212F01C020E08E2D887159F48F
:1042E000F601822F30E2882319F031938150FBCF01
:1042F000C20ED11C20E0992329F0D6019C93F6012F
:1043000031966F0151110BC0F601822F90E3882383
:1043100019F091938150FBCFC20ED11C20E00F2DDC
:10432000060F9A81342F307144FF03C0913309F492
:104330000150101624F4093018F008E001C001E023
:10434000AB0177FF02C040E050E0FB01E41BF50B3E
:10435000A1E0B0E0AC0FBD1FEA0FFB1F8EE2A82E5C
:104360004B01801A91080B2D10E011950195110950
:104370004F3FBFEF5B0721F4D601AC9211966D0160
:10438000641775072CF08416950614F4818101C01A
:1043900080E3415051093196D60111967D014017B5
:1043A000510724F0D6018C936701E2CF641775079B
:1043B00039F4963320F4953319F4311101C081E3B7
:1043C000F6018083F701822F90E2882319F0919300
:1043D0008150FBCFF701E20FF11D108280E090E0E9
:1043E00029960FB6F894DEBF0FBECDBFDF91CF91F7
:1043F0001F910F91FF90EF90DF90CF90BF90AF9003
:104400009F908F9008958F929F92AF92BF92CF927C
:10441000DF92EF92FF920F931F93CF93DF93EC0104
:104420006B016115710519F0FB01918380837E0199
:10443000FFEFEF1AFF0A0881802F90E00FD2892B3F
:1044400011F0E701F4CF0D3239F47E0182E0E80E7D
:10445000F11C098111E008C00B3229F47E0192E0C1
:10446000E90EF11C098110E0E701219743E050E0DB
:1044700064E371E0CE01FAD1892BB9F4239645E0CB
:1044800050E06FE271E0CE01F1D1892B09F425965D
:10449000C114D10419F0F601D183C0831111F0C009
:1044A00060E070E080E89FE7F4C043E050E06CE239
:1044B00071E0CE01DBD1892B59F4C114D10409F488
:1044C000E4C0F2E0EF0EF11CF601F182E082DDC003
:1044D00020E030E0A901C0E0D0E0F70160EDA62EB9
:1044E000A00E89E08A1528F1912F9260B92E812FB4
:1044F000887012FF04C0811123C0219621C0811150
:104500002197A5E0B0E028D3DC01CB01880F991FEB
:10451000AA1FBB1F9C01AD012A0D311D411D511D5C
:10452000283989E93807480789E1580748F01660B3
:1045300006C09EEFA9120AC013FD40C01860B12E3C
:104540008FEFE81AF80A00811B2DC7CF802F8F7DCF
:104550008534A1F580818D3211F4106106C08B3253
:1045600021F0319661E070E004C08181329662E012
:1045700070E080538A3018F0E61BF70B1FC060E034
:1045800070E060389CE079075CF4DB01AA0FBB1F88
:10459000AA0FBB1F6A0F7B1F660F771F680F711D65
:1045A0003196DF0111978C9180538A3050F314FFBC
:1045B00003C0719561957109C60FD71F11FF08C01F
:1045C000C114D10429F0CF010197F60191838083B2
:1045D000CA01B90177D1212F2370233019F04B0183
:1045E0005C0106C04B015C01B7FAB094B7F8B09417
:1045F00020E030E0A901C501B40160D1882309F4AD
:104600003CC0D7FF06C0D195C195D1090BE411E09C
:1046100002C003E611E06801F8E1CF1AD10890E288
:10462000E92EF12CCE15DF056CF0F80125913591BE
:1046300045915491C501B401A6D14B015C01CE193D
:10464000DF09F0CF04501109F594E7940C151D050E
:1046500049F78A2D880F8B2D881F8F3F41F020E06E
:1046600030E0A901C501B40129D1811106C082E25F
:1046700090E09093620580936105C501B40109C083
:1046800060E070E080E89FEF04C060E070E080ECE4
:104690009FE7DF91CF911F910F91FF90EF90DF90F7
:1046A000CF90BF90AF909F908F900895283008F0E2
:1046B00027E03327DA01990F311D87FD91600096BD
:1046C0006105710539F432602E5F3D9330E32A9520
:1046D000E1F708959F3F30F080387105610509F0DA
:1046E0003C5F3C5F3D93913008F08068911DDF9303
:1046F000CF931F930F93FF92EF92192F987F969568
:10470000E92F96959695E90FFF27EF53FE4F9927CE
:104710003327EE24FF24A701E701059008940794AE
:1047200028F4360FE71EF81E491F511D660F771F2C
:10473000881F991F0694A1F70590079428F4E70EA7
:10474000F81E491F561FC11D770F881F991F661F2E
:104750000694A1F70590079428F4F80E491F561FF8
:10476000C71FD11D880F991F661F771F0694A1F7D9
:104770000590079420F4490F561FC71FD81F990FA3
:10478000661F771F881F0694A9F7849110951770EC
:1047900041F0D695C79557954795F794E7941A95A4
:1047A000C1F7E7E6F1E068941590159135916591B0
:1047B000959105907FE27395E118F10A430B560B32
:1047C000C90BD009C0F7E10CF11E431F561FC91FCA
:1047D000D01D7EF4703311F48A95E6CFE894015031
:1047E00030F0080F0AF40027021708F4202F239551
:1047F000022F7A3328F079E37D932A95E9F710C0E8
:104800007D932A9589F60694979567953795179520
:104810001794E118F10A430B560BC90BD00998F015
:1048200023957E9173957A3308F070E37C9320137F
:10483000B8F77E9170617D9330F0839571E37D933D
:1048400070E32A95E1F71124EF90FF900F911F91EB
:10485000CF91DF91992787FD909508959111F6C02A
:10486000803219F089508550D0F70895FB01DC01A2
:104870004150504088F08D9181341CF08B350CF400
:10488000805E659161341CF06B350CF4605E861BB4
:10489000611171F3990B0895881BFCCFDC01FC01B9
:1048A000672F71917723E1F7329704C07C916D9364
:1048B00070836291AE17BF07C8F3089540D008F423
:1048C00081E00895E89409C097FB3EF490958095A7
:1048D000709561957F4F8F4F9F4F9923A9F0F92FC6
:1048E00096E9BB279395F695879577956795B79544
:1048F000F111F8CFFAF4BB0F11F460FF1BC06F5F2A
:104900007F4F8F4F9F4F16C0882311F096E911C03B
:10491000772321F09EE8872F762F05C0662371F05C
:1049200096E8862F70E060E02AF09A95660F771F70
:10493000881FDAF7880F9695879597F90895990F4C
:104940000008550FAA0BE0E8FEEF16161706E80759
:10495000F907C0F012161306E407F50798F0621B7A
:10496000730B840B950B39F40A2661F0232B242B4F
:10497000252B21F408950A2609F4A140A6958FEF6E
:10498000811D811D08950BD07BC06CD028F071D0A3
:1049900018F0952309F05DC062C01124A5C081D034
:1049A000A0F3959FD1F3950F50E0551F629FF00142
:1049B000729FBB27F00DB11D639FAA27F00DB11D9B
:1049C000AA1F649F6627B00DA11D661F829F222724
:1049D000B00DA11D621F739FB00DA11D621F839FAB
:1049E000A00D611D221F749F3327A00D611D231F81
:1049F000849F600D211D822F762F6A2F11249F57CF
:104A000050408AF0E1F088234AF0EE0FFF1FBB1FF1
:104A1000661F771F881F91505040A9F79E3F510590
:104A200070F017C061C05F3FECF3983EDCF38695F1
:104A300077956795B795F795E7959F5FC1F7FE2B3B
:104A4000880F911D9695879597F90895992788273E
:104A5000089597F99F6780E870E060E008959FEF00
:104A600080EC089500240A94161617061806090605
:104A7000089500240A9412161306140605060895D4
:104A8000092E0394000C11F4882352F0BB0F40F45C
:104A9000BF2B11F460FF04C06F5F7F4F8F4F9F4F9C
:104AA000089557FD9058440F551F59F05F3F71F01E
:104AB0004795880F97FB991F61F09F3F79F0879585
:104AC0000895121613061406551FF2CF4695F1DF0E
:104AD00008C0161617061806991FF1CF869571059E
:104AE000610508940895E894BB2766277727CB01D2
:104AF00097F90895F999FECF92BD81BDF89A99274B
:104B000080B50895262FF999FECF1FBA92BD81BDB9
:104B100020BD0FB6F894FA9AF99A0FBE019608953F
:104B2000052E97FB16F400940FD057FD05D024D026
:104B300007FC02D046F408C0509540953095219569
:104B40003F4F4F4F5F4F08959095809570956195B9
:104B50007F4F8F4F9F4F089531D0A59F900DB49FE9
:104B6000900DA49F800D911D11240895B7FFF4CFDF
:104B7000F3DF821B930B0895A1E21A2EAA1BBB1B25
:104B8000FD010DC0AA1FBB1FEE1FFF1FA217B30719
:104B9000E407F50720F0A21BB30BE40BF50B661F2F
:104BA000771F881F991F1A9469F7609570958095F3
:104BB00090959B01AC01BD01CF010895A29FB0016A
:104BC000B39FC001A39F700D811D1124911DB29F41
:104BD000700D811D1124911D08955058BB27AA27DF
:104BE0000ED04ECF3FDF30F044DF20F031F49F3F56
:104BF00011F41EF434CF0EF4E095E7FB2ACFE92F31
:104C000050DF80F3BA17620773078407950718F01F
:104C100071F49EF568CF0EF4E0950B2EBA2FA02DFF
:104C20000B01B90190010C01CA01A0011124FF2759
:104C3000591B99F0593F50F4503E68F11A16F04054
:104C4000A22F232F342F4427585FF3CF4695379553
:104C50002795A795F0405395C9F77EF41F16BA0B18
:104C6000620B730B840BBAF09150A1F0FF0FBB1FC6
:104C7000661F771F881FC2F70EC0BA0F621F731F0F
:104C8000841F48F4879577956795B795F7959E3F6C
:104C900008F0B3CF9395880F08F09927EE0F9795FA
:104CA000879508950CD0ECCEE4DE40F0DBDE30F0EA
:104CB00021F45F3F19F0CDCE511116CFD0CEF1DEE9
:104CC00098F39923C9F35523B1F3951B550BBB27D3
:104CD000AA2762177307840738F09F5F5F4F220F80
:104CE000331F441FAA1FA9F333D00E2E3AF0E0E879
:104CF00030D091505040E695001CCAF729D0FE2FC5
:104D000027D0660F771F881FBB1F26173707480756
:104D1000AB07B0E809F0BB0B802DBF01FF2793580C
:104D20005F4F2AF09E3F510568F093CEDDCE5F3F86
:104D3000ECF3983EDCF3869577956795B795F795F4
:104D40009F5FC9F7880F911D9695879597F90895EC
:104D5000E1E0660F771F881FBB1F62177307840788
:104D6000BA0720F0621B730B840BBA0BEE1F88F797
:104D7000E095089504D06894B111B6CE089599DEF7
:104D800088F09F5790F0B92F9927B751A0F0D1F034
:104D9000660F771F881F991F1AF0BA95C9F712C0BE
:104DA000B13081F0A0DEB1E008959DCE672F782F5D
:104DB0008827B85F39F0B93FCCF38695779567952A
:104DC000B395D9F73EF490958095709561957F4F96
:104DD0008F4F9F4F0895B3DD08F48FEF0895EE0FC6
:104DE000FF1F881F8BBF0790F691E02D19940F933A
:104DF0001F93CF93DF938230910510F482E090E00F
:104E0000E0916505F091660520E030E0A0E0B0E0BB
:104E1000309719F140815181028113814817590758
:104E2000C8F08417950769F4109731F012960C9327
:104E3000129713961C9327C000936505109366057F
:104E400022C02115310519F04217530718F49A01B1
:104E5000BD01EF01DF01F801DBCF21153105F9F0CC
:104E6000281B390B2430310580F48A819B81611520
:104E7000710521F0FB019383828304C09093660542
:104E800080936505FE01329644C0FE01E20FF31FD8
:104E90008193919322503109398328833AC020911C
:104EA000630530916405232B41F420918E023091EB
:104EB0008F02309364052093630520918C0230911A
:104EC0008D022115310541F42DB73EB74091900276
:104ED00050919102241B350BE0916305F09164051C
:104EE000E217F307A0F42E1B3F0B2817390778F0C1
:104EF000AC014E5F5F4F2417350748F04E0F5F1F20
:104F000050936405409363058193919302C0E0E060
:104F1000F0E0CF01DF91CF911F910F910895CF93D2
:104F2000DF93009709F481C0FC013297138212824B
:104F3000A0916505B0916605109781F420813181BB
:104F4000820F931F2091630530916405281739075C
:104F500051F5F0936405E093630567C0ED0120E02F
:104F600030E0CE17DF0740F44A815B819E01411596
:104F70005105F1F0EA01F5CFD383C283408151811D
:104F8000840F951FC817D90759F488819981840F18
:104F9000951F0296918380838A819B81938382836C
:104FA0002115310529F4F0936605E09365053DC0B0
:104FB000E901FB83EA8349915991C40FD51FEC178E
:104FC000FD0761F480819181840F951F0296E901AC
:104FD00099838883828193819B838A83E0E0F0E0D8
:104FE00012968D919C911397009719F0FD01DC01A9
:104FF000F7CF8D919C9111979D012E5F3F4F820FAE
:10500000931F20916305309164052817390769F4CF
:10501000309729F4109266051092650502C013823C
:105020001282B0936405A0936305DF91CF91089538
:105030006F927F928F929F92AF92BF92CF92DF92A8
:10504000EF92FF920F931F93CF93DF93009781F41A
:10505000CB01DF91CF911F910F91FF90EF90DF90E7
:10506000CF90BF90AF909F908F907F906F90BFCE6A
:10507000FC01E60FF71F9C0122503109E217F307EC
:1050800008F4A5C0EC01D9010D911C9111970617E8
:105090001707A8F00530110508F497C0C801049758
:1050A0008617970708F491C002501109061B170BC9
:1050B000019311936D937C93CF0131DF86C05B0127
:1050C000A01AB10A4C01800E911EA0916505B09105
:1050D0006605612C712CE12CF12C109709F446C067
:1050E0008D919C911197A815B905B1F56C0142E01D
:1050F000C40ED11CCA14DB0478F14C018A189B0839
:10510000640142E0C40ED11C1296BC901297139613
:10511000AC91B5E0CB16D10440F0B282A38391826A
:105120008082D9016D937C9309C00E5F1F4F800F61
:10513000911FF90191838083EB2DFA2FE114F10483
:1051400031F0D7011396FC93EE9312973EC0F09383
:105150006605E093650539C06816790608F43C01D8
:105160007D0112960D90BC91A02DB7CF8091630563
:105170009091640588169906E1F466167706C8F4DE
:1051800080918C0290918D02009741F48DB79EB76B
:105190004091900250919102841B950BE817F907FA
:1051A000B0F4F0936405E0936305F90171836083C3
:1051B0000CC0CB011CDE7C01009749F0A801BE01A8
:1051C0001BD0CE01ACDEC70104C0CE0102C080E01E
:1051D00090E0DF91CF911F910F91FF90EF90DF90C2
:1051E000CF90BF90AF909F908F907F906F900895D9
:1051F00081E090E0F89410C0FB01DC0102C0019056
:105200000D9241505040D8F70895FB01DC01019008
:0C5210000D920020E1F70895F894FFCF04
:10521C000000803F0000803F0000803F0000803F86
:10522C000000803F0000803F0000803F0000803F76
:10523C000000803F0000803F0000803F0000803F66
:10524C000000803F0000803F0000803F0000803F56
:10525C000000803F0000803F0000803F0000803F46
:10526C000000803F0000803F0000803F0000803F36
:10527C0011080A1A0C0E31282A3A2C2E01000000B3
:10528C0010090B1B0D0F30292B3B2D2F000000029A
:10529C0002022020202222220100000000006705CB
:1052AC008000FF1901010101010001010101010050
:1052BC0001010101010101010101010101010101D2
:1052CC00010001020300000000CB0F4C13190E1754
:1052DC00104A0E280E3C0E000000003F0F130F6EFC
:0A52EC000FE70E0B0FF70EE80E009F
:00000001FF
