:1000000011C100003FC100003DC100003BC1000024
:1000100039C1000037C1000035C1000033C1000004
:1000200031C100002FC100002DC100002BC1000014
:1000300029C1000027C1000025C1000023C1000024
:1000400021C100001FC100001DC100001BC1000034
:1000500019C1000017C1000015C1000060C30000F5
:1000600011C1000026C30000FBC200000BC100004C
:1000700009C1000007C1000005C1000003C1000064
:1000800001C10000FFC00000FDC00000FBC0000077
:10009000F9C00000F7C00000F5C00000F3C0000088
:1000A000F1C00000EFC00000EDC00000EBC0000098
:1000B000E9C00000E7C00000E5C00000E3C00000A8
:1000C000E1C00000DFC00000DDC00000DBC00000B8
:1000D000D9C00000D7C00000D5C00000D3C00000C8
:1000E000D1C000003408370826082A082E086E08F8
:1000F0003B083F08450849084D08530857085B0866
:100100006E086108650869087665723D0050687977
:10011000734C6F67676572315F3000000021002407
:100120000027002A002D00300033000101000004E8
:100130000107010A0100002200250028002B002EE3
:10014000003100340002010000050108010B010527
:10015000050505070508080808020202020A0A0840
:100160000804040404010101010101010103030366
:100170000303030303040707070C0C0C0C0C0C0C03
:100180000C0202020206060606060606060B0B0B0A
:100190000B0B0B0B0B010210202008081020401045
:1001A000204080020102010804020101020408103B
:1001B0002040808040201008040201800402018059
:1001C0004020100804020108040201010204081082
:1001D000204080010204081020408000000A0B0229
:1001E000090C0D0E080703040100000000000000C8
:1001F00000000000000000000000000000000000FF
:1002000000000000000000121110000000000000BB
:1002100000000000000000000000000000000000DE
:100220000000070B11241FBECFEFD1E2DEBFCDBF10
:1002300000E00CBF23E0A2E7B2E001C01D92A13FA5
:10024000B207E1F712E0A0E0B2E0ECE7FFE100E086
:100250000BBF02C007900D92A237B107D9F711E08A
:10026000C2E1D1E000E006C021970109802FFE0124
:100270000E949F0DC131D10780E00807A9F717D46C
:100280000C94BC0FBDCE089580E090E00895FC0171
:10029000538D448D252F30E0842F90E0821B930BEB
:1002A000541710F0CF96089501970895FC01918D91
:1002B000828D981761F0828DDF01A80FB11D5D96C8
:1002C0008C91928D9F5F9F73928F90E008958FEF36
:1002D0009FEF0895FC01918D828D981731F0828DEA
:1002E000E80FF11D858D90E008958FEF9FEF089541
:1002F000FC01918D228D892F90E0805C9F4F821BA5
:1003000091098F739927089584EC92E0F1DF21E041
:10031000892B09F420E0822F0895FC01848DDF01F0
:10032000A80FB11DA35ABF4F2C91848D90E0019668
:100330008F739927848FA689B7892C93A089B18957
:100340008C91837080648C93938D848D981306C0F8
:100350000288F389E02D80818F7D80830895EF925C
:10036000FF920F931F93CF93DF93EC0181E0888F6F
:100370009B8D8C8D981305C0E889F989808185FD56
:1003800025C0F62E0B8D10E00F5F1F4F0F73112746
:10039000E02E8C8DE8120BC00FB607FCFACFE8896F
:1003A000F989808185FFF5CFCE01B7DFF2CF8B8D44
:1003B000FE01E80FF11DE35AFF4FF0829FB7F8945A
:1003C0000B8FEA89FB89808180620AC09FB7F8940D
:1003D000EE89FF896083E889F98980818370806470
:1003E00080839FBF81E090E0DF91CF911F910F91BB
:1003F000FF90EF900895CF93DF93EC01888D8823D1
:10040000C1F0EA89FB89808185FD05C0A889B98989
:100410008C9186FD0EC00FB607FCF5CF808185FF5D
:10042000F2CFA889B9898C9185FFEDCFCE0175DF18
:10043000E8CFDF91CF91089580E090E0892B19F00B
:1004400063DF811125C080E090E0892B41F080E0DE
:1004500090E0892B21F00E94000081111CC080E0F7
:1004600090E0892B41F080E090E0892B21F00E9400
:100470000000811113C080E090E0892BA1F080E0A2
:1004800090E0892B81F00E94000081110AC008953C
:100490000E940000D8CF0E940000E1CF0E9400001F
:1004A000EACF0C94000008953FB7F894809177024A
:1004B00090917802A0917902B0917A0226B5A89B1A
:1004C00005C02F3F19F00196A11DB11D3FBFBA2FE6
:1004D000A92F982F8827820F911DA11DB11DBC0146
:1004E000CD0142E0660F771F881F991F4A95D1F70B
:1004F00008952FB7F89460917302709174028091FF
:100500007502909176022FBF0895677030E0F9016F
:1005100073E0EE0FFF1F7A95E1F7E62BDC01909672
:10052000EC93FC01DA01CD01841B950B8217930734
:1005300018F48D918193F7CF0895EF92FF920F9366
:100540001F93CF93DF93CDB7DEB7E4970FB6F89440
:10055000DEBF0FBECDBF1AA619A61CA61BA61EA6DF
:100560001DA66DE071E0CE01899641D21A821982F2
:100570001C821B821E821D8268E071E0CE01019602
:1005800036D2BE016F5F7F4FCE01839654D20DA548
:100590001EA5E9A4FAA4E114F10409F45DC0011553
:1005A0001105B1F08FA198A5080F191FB801CE0150
:1005B0008396E4D1882309F44FC02BA13CA18FA1DD
:1005C00098A5B701820F931F0E94B50F18A70FA31C
:1005D000BE016D5D7F4FCE018F962DD28BA19CA168
:1005E0000E943F0E89819A810E943F0E89A59AA59B
:1005F0000E943F0E4FA558A92BA961E0CE0101969C
:1006000084DFCE01019629D13091000220910102B0
:1006100090910202809103023BA32CA39DA38EA381
:1006200024E0AE014D5D5F4F66E0CE0101966DDFC7
:10063000CE01019612D18FA598A90E943F0EE49693
:100640000FB6F894DEBF0FBECDBFDF91CF911F91E3
:100650000F91FF90EF900895CE018396B6D1B8CF59
:100660001F920F920FB60F9211240BB60F922F9379
:100670003F934F935F936F937F938F939F93AF932A
:10068000BF93EF93FF9384EC92E047DEFF91EF91ED
:10069000BF91AF919F918F917F916F915F914F919A
:1006A0003F912F910F900BBE0F900FBE0F901F9098
:1006B00018951F920F920FB60F9211240BB60F923E
:1006C0002F938F939F93EF93FF93E091D402F09138
:1006D000D5028081E091DA02F091DB0282FD12C046
:1006E00090818091DD028F5F8F732091DE028217EF
:1006F00051F0E091DD02F0E0EC53FD4F958F8093D7
:10070000DD0201C08081FF91EF919F918F912F9128
:100710000F900BBE0F900FBE0F901F9018951F9259
:100720000F920FB60F9211242F933F938F939F93A5
:10073000AF93BF938091730290917402A091750260
:10074000B09176023091720223E0230F2D3720F40E
:100750000196A11DB11D05C026E8230F0296A11D1B
:10076000B11D209372028093730290937402A09340
:100770007502B09376028091770290917802A091F1
:100780007902B0917A020196A11DB11D8093770282
:1007900090937802A0937902B0937A02BF91AF91BF
:1007A0009F918F913F912F910F900FBE0F901F90AF
:1007B0001895CF92DF92EF92FF920F931F93CF93F2
:1007C000DF936C017A018B01C0E0D0E0CE15DF052C
:1007D00081F0D8016D918D01D601ED91FC910190D0
:1007E000F081E02DC6011995892B11F02196EECFED
:1007F0007E01C701DF91CF911F910F91FF90EF9084
:10080000DF90CF9008950E94A80FE4ECF2E0A08959
:10081000B18982E08C93A485B5851C92A685B785A5
:1008200080E18C93108EA489B58986E08C93A2898F
:10083000B3898C9180618C93A289B3898C918860F3
:100840008C93A289B3898C9180688C930288F389F8
:10085000E02D80818F7D80830895CF93DF93EC011D
:100860006AEA84EC92E07BDD68A185E58627FE01DB
:10087000262F30E093E0359527959A95E1F72C0FD8
:100880003D1FE217F30719F091918927FACF89A349
:1008900084EC92E064DD69A184EC92E060DD48A123
:1008A00050E083E0559547958A95E1F7411551054C
:1008B00031F0BE0184EC92E0DF91CF917ACFDF91ED
:1008C000CF9108956115710579F0FB010190002029
:1008D000E9F73197AF01461B570BDC01ED91FC9115
:1008E0000280F381E02D199480E090E008958F92CA
:1008F0009F92AF92BF92EF92FF920F931F93CF936D
:10090000DF93CDB7DEB7A1970FB6F894DEBF0FBE69
:10091000CDBF7C01FA01CB0119A2223008F42AE0F4
:100920008E010F5D1F4F822E912CA12CB12CBF0187
:10093000A5019401E0D7F901CA01015011096A30FB
:1009400014F4605D01C0695CD8016C93232B242BE7
:10095000252B69F7B801C701B5DFA1960FB6F8944A
:10096000DEBF0FBECDBFDF91CF911F910F91FF90E2
:10097000EF90BF90AF909F908F9008950F931F932B
:10098000CF93DF93EC0188819981009729F02A8128
:100990003B812617370788F48B016F5F7F4F0E94DA
:1009A000C80E009761F0998388831B830A832C818A
:1009B0003D81232B11F4FC01108281E001C080E015
:1009C000DF91CF911F910F910895CF93DF93EC01A9
:1009D00088819981009711F00E943F0E1982188238
:1009E0001D821C821B821A82DF91CF910895EF92A3
:1009F000FF920F931F93CF93DF93EC018B0161154F
:100A0000710541F0CB0155D67C01BC01CE01B6DFAA
:100A1000811103C0CE01D9DF06C0FD82EC82B8018E
:100A2000888199813FD6CE01DF91CF911F910F919F
:100A3000FF90EF900895EF92FF920F931F93CF9343
:100A4000DF93FC01118210821382128215821482BC
:100A50008617970729F1DB010D911C91119701155C
:100A60001105F1F0EC011496ED90FC901597B7018B
:100A700085DF811108C0CE01DF91CF911F910F91C9
:100A8000FF90EF90A2CFFD82EC82B801888199811E
:100A9000DF91CF911F910F91FF90EF900C94B50FC4
:100AA000DF91CF911F910F91FF90EF900895CF9319
:100AB000DF93CDB7DEB7AE970FB6F894DEBF0FBEAB
:100AC000CDBF789484B5826084BD84B5816084BDD7
:100AD00085B5826085BD85B5816085BD80916E00DC
:100AE000816080936E00109281008091810082600D
:100AF000809381008091810081608093810080914A
:100B000080008160809380008091B1008460809338
:100B1000B1008091B00081608093B000809191001D
:100B20008260809391008091910081608093910018
:100B3000809190008160809390008091A1008260FC
:100B40008093A1008091A10081608093A100809199
:100B5000A00081608093A000809121018260809339
:100B600021018091210181608093210180912001E8
:100B700081608093200180917A00846080937A0064
:100B800080917A00826080937A0080917A008160FF
:100B900080937A0080917A00806880937A00109226
:100BA000C1001092A5031092A6031092A703109201
:100BB000A8031092630310926403109265031092CD
:100BC000660397DC6B017C014B015C0128EB820E14
:100BD0002BE0921EA11CB11C8CDC6C157D058E05D2
:100BE0009F0528F086169706A806B906A8F784EC94
:100BF00092E09093A4038093A30307DE7ADC6093D2
:100C000063037093640380936503909366036CE4BD
:100C100072E08091A3039091A40354DE6ADC6B011F
:100C20007C014B015C013AE0830E911CA11CB11CBC
:100C300060DC6C157D058E059F0528F086169706ED
:100C4000A806B906A8F711E010937703DEDD10922D
:100C5000D3038CE68093EB0370DC1092BB021092FE
:100C6000BC021092BD021092BE021092B702109305
:100C7000B80282E08093B90283E08093BA02E2EA8C
:100C8000F1E02491ECE5F1E08491882399F090E083
:100C9000880F991FFC01E55EFE4FA591B491FC0100
:100CA000EB5CFE4F859194919FB7F8948C91822BC9
:100CB0008C939FBF1EDC672B682B692B39F419DCE2
:100CC000623071058105910508F4FFC012DC0091C6
:100CD000C0021091C1022091C2023091C30260177C
:100CE00071078207930740F46093C0027093C102BA
:100CF0008093C2029093C3020091C0021091C1027E
:100D00002091C2023091C3026B017C01C01AD10A4A
:100D1000E20AF30A970186010A3F11052105310510
:100D200008F4D3C06093C0027093C1028093C202E2
:100D30009093C30284EF91E0A0E0B0E080936F0352
:100D400090937003A0937103B09372031092730396
:100D500010927403109275031092760380916703CA
:100D600090916803A0916903B0916A0380936B032B
:100D700090936C03A0936D03B0936E03BADB609302
:100D80006703709368038093690390936A03B1DBF0
:100D90006093630370936403809365039093660389
:100DA000A8DB6B017C016EE572E08091A30390915A
:100DB000A40388DD2AE041E050E060E070E080912B
:100DC000A3039091A40393DD65E672E08091A303F1
:100DD0009091A40377DD2AE0B701A6018091A303D7
:100DE0009091A40384DD67E672E08091A303909163
:100DF000A40368DD8091670390916803A091690363
:100E0000B0916A03B701A601481B590B6A0B7B0B13
:100E10002AE08091A3039091A40369DD67E672E064
:100E20008091A3039091A4034DDD409167035091FD
:100E300068036091690370916A0380916B039091DC
:100E40006C03A0916D03B0916E03481B590B6A0BA4
:100E50007B0B2AE08091A3039091A40348DD69E60F
:100E600072E08091A3039091A4032CDD42DBAB01DF
:100E7000BC012AE08091A3039091A40338DD009186
:100E8000A3031091A4036BE672E0C8011BDD6BE5C0
:100E900072E0C80117DD2DDB4B015C016B017C01A9
:100EA00092E0C90ED11CE11CF11C23DB6815790509
:100EB0008A059B0508F0F6C21CDB609367037093FC
:100EC00068038093690390936A0384EC92E010DADC
:100ED000892B09F46AC00DDB4B015C010ADBDC01E4
:100EE000CB0188199909AA09BB09883B9B40A10538
:100EF000B10508F05AC084EC92E0FAD9039774F374
:100F000084EC92E0D3D98A3A910541F709EC13E0D9
:100F1000F0DA6093CC027093CD028093CE0290936E
:100F2000CF0284EC92E0C2D997FFDEC2E2DAC09031
:100F3000CC02D090CD02E090CE02F090CF02DC0146
:100F4000CB018C199D09AE09BF09C090C802D09091
:100F5000C902E090CA02F090CB028C159D05AE0547
:100F6000BF05F8F20091C90310E053E0159507950D
:100F70005A95E1F769EAC62E63E0D62EE12CF12CF2
:100F80000E151F0509F495C2B4DADC01CB018819EE
:100F90009909AA09BB09883B9B40A105B10508F442
:100FA000ADC2E016F1060CF084C2A3DAC090B30221
:100FB000D090B402E090B502F090B6026C157D05B9
:100FC0008E059F0569F095DADC01CB018C199D092E
:100FD000AE09BF0911E084369105A105B10508F0FD
:100FE00010E087DADC01CB018C199D09AE09BF093D
:100FF000893C9105A105B10568F07BDADC01CB01E4
:101000008C199D09AE09BF0921E08C329140A105E0
:10101000B10508F020E0E8EEF1E04491E2EAF1E009
:101020009491ECE5F1E03491332309F46CC044234E
:1010300009F454C050E0FA013197E231F10508F0AB
:101040004DC08827EE58FF4F8F4F79C580918000A3
:101050008F7707C0809180008F7D03C080918000D2
:10106000877F809380003AC084B58F7702C084B5B3
:101070008F7D84BD33C08091B0008F7703C0809195
:10108000B0008F7D8093B00029C0809190008F7751
:1010900007C0809190008F7D03C080919000877F72
:1010A000809390001BC08091A0008F7707C0809133
:1010B000A0008F7D03C08091A000877F8093A00057
:1010C0000DC0809120018F7707C0809120018F7D16
:1010D00003C080912001877F80932001E32FF0E0FF
:1010E000EE0FFF1FEB5CFE4FA591B4913FB7F89454
:1010F0008C91111105C0211103C09095982301C056
:10110000982B9C933FBF8091BF0281111DC0F1D9E4
:101110000091B3021091B4022091B5023091B60251
:10112000DC01CB01801B910BA20BB30B893B9B40D5
:10113000A105B10548F0DDD96093B3027093B40204
:101140008093B5029093B602609100027091010203
:101150008091020290910302B9D29B01AC0160E040
:1011600070E080E291E44ED46B017C0120E030E03D
:1011700040E85FE3A7D287FD06C0C12CD12CB0E8C0
:10118000EB2EBFE3FB2E2BEB32E038A72FA303EAB5
:1011900012E083E992E09AA789A7A7EBAA2EA2E022
:1011A000BA2E1C01AFA1B8A54D91B8A7AFA33501C8
:1011B000F5017081872F90E050E09C01220F331FD2
:1011C000F901E80FF91FEE5DFD4FE40FF51F608197
:1011D00065FF04C060917B00686003C060917B0084
:1011E000677F60937B00F901E80FF91FEE5DFD4F0B
:1011F000E40FF51F20812F71206C20937C0020913B
:101200007A00206820937A0020917A00206420934D
:101210007A0020917A0026FDFCCF60917800E09161
:10122000790030917A003F7730937A0030917A00DC
:101230003F7730937A00262F30E07430D8F46E2F49
:1012400061706CA71BA66BA57CA5622B732BE1FDBF
:1012500072509C01220F331F820F931F865F9D4F98
:10126000FC01E40FF51F8081882339F071956195A9
:10127000710903C0E370B9017E2B072E000C880BA7
:10128000990B26D24801D8016D937D938D939C9341
:101290001397BFEFAB1ABB0AF3012081243060F42F
:1012A0002BEA3AEA4AEA5FE372D2D8016D937D9362
:1012B0008D939C9313970AC020E030E040E65FE3F3
:1012C00066D2F80160837183828393830C5F1F4F22
:1012D000A701960160E070E080E89FE32ED3D10182
:1012E0002D913D914D915C9152D22B013C01F40125
:1012F0002081318142815381C701B60148D29B01CF
:10130000AC01C301B2011AD3D1016D937D938D93CA
:101310009D931D01E3EBF2E0E017F10709F042CFE6
:10132000C0900002D0900102E0900202F09003020F
:10133000FBE0CF16D104E104F10498F5DAD800916E
:101340008F02109190022091910230919202DC0163
:10135000CB01801B910BA20BB30B8C159D05AE0529
:10136000BF0508F49CC0C5D8762EA72EB82E692ECE
:1013700060938F02709390028093910290939202F7
:101380001092D20387E8C82E82E0D82E9FE7E92E7C
:1013900092E0F92E2EEC822E23E0922E00E010E057
:1013A00011C082D84B015C017FD8DC01CB018819C8
:1013B0009909AA09BB09883E9340A105B10508F027
:1013C000BDCFF2CFA9A5BAA52D903D904D905D90CF
:1013D000BAA7A9A720E030E84FEF53ECC201B10152
:1013E000AAD3181664F420E030E84FEF53E4C201AA
:1013F000B10168D187FD06C06FEF81E007C061E0F1
:101400008EEF04C0C201B10165D3872FF60160835E
:101410008183F2E0CF0ED11C262F382F37FF03C077
:10142000319521953109D7012C9311963C93B2E067
:10143000EB0EF11CF40121934F01881F8827881FB0
:10144000A8014F5F5F4F01C0880F4A95EAF770917E
:10145000D203872B3DA71EA62DA53EA521703327BD
:10146000002E01C0220F0A94EAF7822B8093D20348
:101470000E5F1F4F0830110509F0A4CF70927B0258
:10148000A0927C02B0927D0260927E027092CB03A9
:10149000A092CC03B092CD038BEC93E0DED90E94F6
:1014A0001C0208CCC616D706E806F90608F0FDCCE3
:1014B00003CD6091CA038091C90395E59827282F31
:1014C00030E043E0359527954A95E1F7E9EAF3E006
:1014D000AF01495A5340421753071CF441919427D6
:1014E000F7CF691362CD1CC0D8018D938D01EBEC51
:1014F000F3E0EA17FB0709F00BCD34CD84EC92E062
:101500000E947801892B09F43BCD2FEFE21AF20AF1
:1015100084EC92E00E945601D6018D936D0130CD8E
:101520008770813011F409D840CD853051F4809115
:10153000A903813019F48093BF0237CD1092BF0206
:1015400034CD833011F5E091A903F0E0E554FD4F6F
:101550008091AA0380838091BC02B4E08B9F9001AC
:1015600011249091BD02E0E19E9FC0011124822BC5
:101570002091BB02282B9091BE02F0E49F9FC001F6
:101580001124822B8093D30310CD8230B9F4909133
:10159000A903E92FF0E08091AA03811184E0E954C6
:1015A000FD4F890F80831092BB021092BC021092F3
:1015B000BD021092BE021092D303F7CC863009F020
:1015C000F4CC8091AA0390E0982F88272091A9035A
:1015D000820F911DAC01990F660B770B40930002AF
:1015E0005093010260930202709303028BA35CA3E9
:1015F0006DA37EA324E0AE014D5D5F4F66E0CE019A
:1016000001960E948502CE01019627D9CECCE4EC4A
:10161000F2E01382128288EE93E0A0E0B0E08483CF
:101620009583A683B7838EE392E09183808385ECD4
:1016300090E09587848784EC90E09787868780EC9C
:1016400090E0918B808B81EC90E0938B828B82EC8D
:1016500090E0958B848B86EC90E0978B868B118E37
:10166000128E138E148EE1E6F3E016821782108636
:101670001186128613861486158616861786108A9A
:10168000118A128A138A148A158AEBECF3E080A17E
:101690008770886680A3E9EAF3E080A18770886696
:1016A00080A30895FB01DC0105900D920020E1F775
:1016B0000895FC0105900020E9F7809590958E0F24
:1016C0009F1F089540D008F481E00895E89409C070
:1016D00097FB3EF490958095709561957F4F8F4F65
:1016E0009F4F9923A9F0F92F96E9BB279395F6957B
:1016F000879577956795B795F111F8CFFAF4BB0FF9
:1017000011F460FF1BC06F5F7F4F8F4F9F4F16C05C
:10171000882311F096E911C0772321F09EE8872FE6
:10172000762F05C0662371F096E8862F70E060E0A2
:101730002AF09A95660F771F881FDAF7880F96951B
:10174000879597F90895990F0008550FAA0BE0E8BF
:10175000FEEF16161706E807F907C0F01216130673
:10176000E407F50798F0621B730B840B950B39F4B3
:101770000A2661F0232B242B252B21F408950A2619
:1017800009F4A140A6958FEF811D811D08950BD00E
:1017900078C069D028F06ED018F0952309F05AC0AF
:1017A0005FC01124A2C07ED0A0F3959FD1F3950F06
:1017B00050E0551F629FF001729FBB27F00DB11DD5
:1017C000639FAA27F00DB11DAA1F649F6627B00D65
:1017D000A11D661F829F2227B00DA11D621F739F4E
:1017E000B00DA11D621F839FA00D611D221F749F5C
:1017F0003327A00D611D231F849F600D211D822FA3
:10180000762F6A2F11249F5750408AF0E1F08823E9
:101810004AF0EE0FFF1FBB1F661F771F881F9150F6
:101820005040A9F79E3F510570F014C05EC05F3F65
:10183000ECF3983EDCF3869577956795B795F79529
:10184000E7959F5FC1F7FE2B880F911D96958795B1
:1018500097F9089597F99F6780E870E060E0089530
:101860009FEF80EC089500240A94161617061806B8
:101870000906089500240A94121613061406050694
:101880000895092E0394000C11F4882352F0BB0F25
:1018900040F4BF2B11F460FF04C06F5F7F4F8F4F88
:1018A0009F4F089557FD9058440F551F59F05F3FC3
:1018B00071F04795880F97FB991F61F09F3F79F072
:1018C00087950895121613061406551FF2CF4695F4
:1018D000F1DF08C0161617061806991FF1CF869576
:1018E0007105610508940895E894BB27662777275A
:1018F000CB0197F90895A1E21A2EAA1BBB1BFD018B
:101900000DC0AA1FBB1FEE1FFF1FA217B307E407DE
:10191000F50720F0A21BB30BE40BF50B661F771F36
:10192000881F991F1A9469F7609570958095909516
:101930009B01AC01BD01CF0108955058BB27AA27D8
:101940000ED09FCF90DF30F095DF20F031F49F3F35
:1019500011F41EF485CF0EF4E095E7FB7BCFE92F61
:10196000A1DF80F3BA17620773078407950718F0A1
:1019700071F49EF5B9CF0EF4E0950B2EBA2FA02D81
:101980000B01B90190010C01CA01A0011124FF272C
:10199000591B99F0593F50F4503E68F11A16F04027
:1019A000A22F232F342F4427585FF3CF4695379526
:1019B0002795A795F0405395C9F77EF41F16BA0BEB
:1019C000620B730B840BBAF09150A1F0FF0FBB1F99
:1019D000661F771F881FC2F70EC0BA0F621F731FE2
:1019E000841F48F4879577956795B795F7959E3F3F
:1019F00008F0B3CF9395880F08F09927EE0F9795CD
:101A0000879508950CD03DCF35DF40F02CDF30F0C6
:101A100021F45F3F19F01ECF511167CF21CF42DF74
:101A200098F39923C9F35523B1F3951B550BBB27A5
:101A3000AA2762177307840738F09F5F5F4F220F52
:101A4000331F441FAA1FA9F333D00E2E3AF0E0E84B
:101A500030D091505040E695001CCAF729D0FE2F97
:101A600027D0660F771F881FBB1F26173707480729
:101A7000AB07B0E809F0BB0B802DBF01FF279358DF
:101A80005F4F2AF09E3F510568F0E4CE2ECF5F3FB6
:101A9000ECF3983EDCF3869577956795B795F795C7
:101AA0009F5FC9F7880F911D9695879597F90895BF
:101AB000E1E0660F771F881FBB1F6217730784075B
:101AC000BA0720F0621B730B840BBA0BEE1F88F76A
:101AD000E095089504D06894B11107CF0895EADE27
:101AE00088F09F5790F0B92F9927B751A0F0D1F007
:101AF000660F771F881F991F1AF0BA95C9F712C091
:101B0000B13081F0F1DEB1E00895EECE672F782F8D
:101B10008827B85F39F0B93FCCF3869577956795FC
:101B2000B395D9F73EF490958095709561957F4F68
:101B30008F4F9F4F089507DE08F48FEF0895EE0F43
:101B4000FF1F881F8BBF0790F691E02D19940F930C
:101B50001F93CF93DF938230910510F482E090E0E1
:101B6000E091EF03F091F00320E030E0A0E0B0E07E
:101B7000309719F14081518102811381481759072B
:101B8000C8F08417950769F4109731F012960C93FA
:101B9000129713961C9327C00093EF031093F00342
:101BA00022C02115310519F04217530718F49A0184
:101BB000BD01EF01DF01F801DBCF21153105F9F09F
:101BC000281B390B2430310580F48A819B816115F3
:101BD000710521F0FB019383828304C09093F0038D
:101BE0008093EF03FE01329644C0FE01E20FF31F23
:101BF0008193919322503109398328833AC02091EF
:101C0000ED033091EE03232B41F420910602309135
:101C100007023093EE032093ED03209104023091EC
:101C200005022115310541F42DB73EB74091080258
:101C300050910902241B350BE091ED03F091EE0366
:101C4000E217F307A0F42E1B3F0B2817390778F093
:101C5000AC014E5F5F4F2417350748F04E0F5F1FF2
:101C60005093EE034093ED038193919302C0E0E023
:101C7000F0E0CF01DF91CF911F910F910895CF93A5
:101C8000DF93009709F481C0FC013297138212821E
:101C9000A091EF03B091F003109781F4208131817E
:101CA000820F931F2091ED033091EE03281739071F
:101CB00051F5F093EE03E093ED0367C0ED0120E0F2
:101CC00030E0CE17DF0740F44A815B819E01411569
:101CD0005105F1F0EA01F5CFD383C28340815181F0
:101CE000840F951FC817D90759F488819981840FEB
:101CF000951F0296918380838A819B81938382833F
:101D00002115310529F4F093F003E093EF033DC072
:101D1000E901FB83EA8349915991C40FD51FEC1760
:101D2000FD0761F480819181840F951F0296E9017E
:101D300099838883828193819B838A83E0E0F0E0AA
:101D400012968D919C911397009719F0FD01DC017B
:101D5000F7CF8D919C9111979D012E5F3F4F820F80
:101D6000931F2091ED033091EE032817390769F492
:101D7000309729F41092F0031092EF0302C01382FF
:101D80001282B093EE03A093ED03DF91CF910895FB
:101D90006F927F928F929F92AF92BF92CF92DF927B
:101DA000EF92FF920F931F93CF93DF93009781F4ED
:101DB000CB01DF91CF911F910F91FF90EF90DF90BA
:101DC000CF90BF90AF909F908F907F906F90BFCE3D
:101DD000FC01E60FF71F9C0122503109E217F307BF
:101DE00008F4A5C0EC01D9010D911C9111970617BB
:101DF0001707A8F00530110508F497C0C80104972B
:101E00008617970708F491C002501109061B170B9B
:101E1000019311936D937C93CF0131DF86C05B01F9
:101E2000A01AB10A4C01800E911EA091EF03B0914F
:101E3000F003612C712CE12CF12C109709F446C0B1
:101E40008D919C911197A815B905B1F56C0142E0EF
:101E5000C40ED11CCA14DB0478F14C018A189B080B
:101E6000640142E0C40ED11C1296BC9012971396E6
:101E7000AC91B5E0CB16D10440F0B282A38391823D
:101E80008082D9016D937C9309C00E5F1F4F800F34
:101E9000911FF90191838083EB2DFA2FE114F10456
:101EA00031F0D7011396FC93EE9312973EC0F09356
:101EB000F003E093EF0339C06816790608F43C019B
:101EC0007D0112960D90BC91A02DB7CF8091ED03AE
:101ED0009091EE0388169906E1F466167706C8F429
:101EE0008091040290910502009741F48DB79EB74E
:101EF0004091080250910902841B950BE817F907DD
:101F0000B0F4F093EE03E093ED03F9017183608385
:101F10000CC0CB011CDE7C01009749F0A801BE017A
:101F20001BD0CE01ACDEC70104C0CE0102C080E0F0
:101F300090E0DF91CF911F910F91FF90EF90DF9094
:101F4000CF90BF90AF909F908F907F906F900895AB
:101F500081E090E0F89410C0FB01DC0102C0019028
:101F60000D9241505040D8F70895FB01DC010190DB
:0C1F70000D920020E1F70895F894FFCFD7
:101F7C00010000000000F1038000000101010101DB
:101F8C000001010101010101010101010101010136
:101F9C00010110090B1B0D0F30292B3B2D2F0000BD
:101FAC000002020220202022222200000000AF01A9
:101FBC00D9034701FB01780156016A01564D445083
:101FCC00565F317C315F564D4450560D0A00564DCC
:101FDC004450455F003A323A007C005F564D445005
:021FEC004500AE
:00000001FF
