:10000000DEC600000DC700000BC7000009C70000D6
:1000100007C7000005C7000003C7000001C70000B4
:10002000FFC60000FDC60000FBC60000F9C60000C8
:10003000F7C60000F5C60000F3C60000F1C60000D8
:10004000EFC60000EDC60000EBC60000E9C60000E8
:10005000E7C60000E5C60000E3C600000C943712B6
:10006000DFC600000C94D7100C94AE10D9C6000067
:10007000D7C60000D5C60000D3C60000D1C6000018
:10008000CFC60000CDC60000CBC600000C94691C92
:10009000C7C60000C5C60000C3C600000C94C71A3E
:1000A000BFC60000BDC60000BBC60000B9C6000048
:1000B000B7C600000C94941CB3C60000B1C6000083
:1000C000AFC60000ADC60000ABC60000A9C6000068
:1000D000A7C60000A5C60000A3C60000A1C6000078
:1000E0009FC6000028112B111A111E112411621134
:1000F0002F11331139113D11411147114B114F117E
:100100006211551159115D11DB40A4A62EAFDA0220
:1001100081DA1281DA02818F2000A1C8D300408DDC
:10012000AED580A800002200250028002B002E005C
:100130003100340002010000050108010B0100003C
:10014000600000000000000000000000000000E06F
:100150000000000000000000000000000001E000BE
:1001600000000000000000000000000001F000009E
:10017000000000000000000000000003F00000008C
:100180000000000000000000000007F00000000078
:1001900000000000000000000007F8000000000060
:1001A00000000000000000000FF800000003C00085
:1001B0007E000001E0007F0FF800000003C000FE99
:1001C000000001E000FFEFF800000003C000FE00A7
:1001D0000001E000FFFFF800000003C000F0000095
:1001E000000F007FFE7FC0000003C000F000000091
:1001F0000F003FFE7FF83FF1FBCFFCFEF3BC3DEF6D
:10020000E01FFE7FFF7FFBFFDFFEFEFFBC3DEFE058
:100210001FC6FFFF7FFBFFDFFEFEFFBC3DEFE00FD1
:10022000E3C7FE787BC3DE1EF0FFBC3DEF0007FF97
:1002300087FC787BC3DE1EF0F83C3DEF0001FFFF3A
:10024000F0007BC3C01EF0F03C3DEF0001F37FE007
:100250003FFBC3CFFEF0F03C3DEF0003E33F807F68
:10026000FBC3DFFEF0F03C3DEF0007E73C00787B8E
:10027000C3DE1EF0F03C3DEF0007FFBE00787BC3FD
:10028000DE1EF0F03C3DEF0007FFFE00787BC3DE92
:100290001EF0F03C3DEF000FFFFE007FFBFFDFFE96
:1002A000F0F03FFDEFE00FFFFF007FFBFFDFFEF010
:1002B000F03FFDEFE00FF9FF003E79F9CF9EF0F03F
:1002C0001F3DE7E01FF1FF000000000000000000FC
:1002D0000000001F80FF007FFFFFFFFFFFFFFFFF09
:1002E000FFE01C007F007FFFFFFFFEB46D888D18CC
:1002F000E000001F007FFFFFFFFE95AD7DB577E0BA
:1003000000000F007FFFFFFFFEA5AD9D8D19E000EF
:100310000006007FFFFFFFFEB5ADEDB57EE00000FB
:1003200000000001800000000000000000000380C9
:1003300000000000000000000007C00000000000F6
:100340000000000007C00000000000000000000FD7
:10035000C00000000000000000001FE000000000DE
:1003600000000000001FE00000000000000000008E
:100370003FE00000000000000000003FF00000002F
:100380000000000000007FF0000000000000001FDF
:10039000F87FF0000000000000003FFE7FF000004A
:1003A00000000000003FFF7FF000000000000000A0
:1003B0001FFFFBE0000000000000000FFFF9FFC07E
:1003C0000000000000000FFFF9FFF800000000002F
:1003D0000007FFF1FFFF00000000000003FC73FFB7
:1003E000FF80000000000001FE3FFFFF80000000D2
:1003F000000000FF1E0FFF000000000000007FFE55
:100400001FFC000000000000003FFFFFF80000009C
:10041000000000000FDFFFE0000000000000001FF0
:1004200019FFC0000000000000003F3CFF0000007A
:1004300000000000007E7CF80000000000000000CA
:100440007FFE7C0000000000000000FFFFFC0000B9
:10045000000000000000FFFFFE00000000000000A0
:1004600000FFFFFE0000000000000001FFEFFE00A3
:1004700000000000000001FFCFFE000000000000AF
:100480000003FF07FE0000000000000003FC07FE61
:100490000000000000000003F003FE000000000068
:1004A0000000018000FE00000000000000000000CD
:1004B0007E000000000000000000003E0000000080
:1004C0000000000000000C00000000000007800099
:1004D000FC000003C0000000078001FC000003C016
:1004E000000000078001FC000003C000000007803E
:1004F00001E00000001E000000078001E000000095
:100500001E007FE3F79FF9FDE7787BDFC0FFF7FF71
:10051000BFFDFDFF787BDFC0FFF7FFBFFDFDFF786C
:100520007BDFC0F0F787BC3DE1FF787BDE00F0F7B2
:1005300087BC3DE1F0787BDE0000F787803DE1E09D
:10054000787BDE007FF7879FFDE1E0787BDE00FFB0
:10055000F787BFFDE1E0787BDE00F0F787BC3DE187
:10056000E0787BDE00F0F787BC3DE1E0787BDE00E1
:10057000F0F787BC3DE1E0787BDE00FFF7FFBFFDD1
:10058000E1E07FFBDFC0FFF7FFBFFDE1E07FFBDFC6
:10059000C07CF3F39F3DE1E03E7BCFC00000000054
:1005A00000000000000000FFFFFFFFFFFFFFFFFF54
:1005B000FFC0FFFFFFFFFD68DB111A31C0FFFFFF27
:1005C000FFFD2B5AFB6AEFC0FFFFFFFFFD4B5B3BBC
:1005D0001A33C0FFFFFFFFFD6B5BDB6AFDC0506598
:1005E0006E64756C756D004D61676E65746963004E
:1005F000506879734C616200535344313330362074
:10060000626567756E005353443133303620616C38
:100610006C6F636174696F6E206661696C656400FC
:10062000000020002300260029002C002F003200AB
:100630000001000003010601090105050505070584
:1006400008080808020202020A0A0808040404044E
:10065000010101010101010103030303030303037A
:10066000040707070C0C0C0C0C0C0C0C0202020209
:1006700006060606060606060B0B0B0B0B0B0B0BF2
:1006800001021020200808102040102040800201A4
:100690000201080402010102040810204080804089
:1006A0002010080402018004020180402010080488
:1006B0000201080402010102040810204080010226
:1006C00004081020408000000A0B02090C0D0E08DF
:1006D000070304010000000000000000000000000B
:1006E000000000000000000000000000000000000A
:1006F00000001211100000000000000000000000C7
:10070000000000000000000000000000726561644D
:10071000790043617574696F6E0050432061707099
:10072000206E6F740A636F6E6E6563746564004556
:1007300072726F72004D61696E20706F7765720A18
:100740006E6F740A636F6E6E6563746564005473D4
:1007500000206D730000486F6D696E6720696E0A36
:1007600070726F67726573730072656164790053AC
:10077000657420537065656400207261642F730096
:1007800000000000003E5B4F5B3E3E6B4F6B3E1C2B
:100790003E7C3E1C183C7E3C181C577D571C1C5E42
:1007A0007F5E1C00183C1800FFE7C3E7FF00182419
:1007B0001800FFE7DBE7FF30483A060E26297929C3
:1007C00026407F050507407F05253F5A3CE73C5AF8
:1007D0007F3E1C1C08081C1C3E7F14227F22145FD5
:1007E0005F005F5F06097F017F006689956A606030
:1007F00060606094A2FFA29408047E040810207E2A
:10080000201008082A1C08081C2A08081E101010AE
:10081000100C1E0C1E0C30383E3830060E3E0E06F4
:10082000000000000000005F000000070007001447
:100830007F147F14242A7F2A122313086462364906
:100840005620500008070300001C224100004122EE
:100850001C002A1C7F1C2A08083E080800807030F3
:100860000008080808080000606000201008040262
:100870003E5149453E00427F400072494949462168
:1008800041494D331814127F1027454545393C4ADC
:1008900049493141211109073649494936464949F3
:1008A000291E00001400000040340000000814223B
:1008B00041141414141400412214080201590906A9
:1008C0003E415D594E7C1211127C7F494949363EAA
:1008D000414141227F4141413E7F494949417F0990
:1008E0000909013E414151737F0808087F00417F9B
:1008F00041002040413F017F081422417F40404099
:10090000407F021C027F7F0408107F3E4141413E30
:100910007F090909063E4151215E7F0919294626B2
:100920004949493203017F01033F4040403F1F20B6
:1009300040201F3F4038403F63140814630304788D
:1009400004036159494D43007F41414102040810AD
:1009500020004141417F04020102044040404040E8
:10096000000307080020545478407F284444383856
:1009700044444428384444287F38545454180008C8
:100980007E090218A4A49C787F0804047800447DA2
:1009900040002040403D007F1028440000417F403F
:1009A000007C047804787C08040478384444443893
:1009B000FC1824241818242418FC7C080404084873
:1009C0005454542404043F44243C4040207C1C20C4
:1009D00040201C3C4030403C44281028444C90901F
:1009E000907C4464544C4400083641000000770079
:1009F00000004136080002010204023C2623263C86
:100A00001EA1A161123A4040207A38545455592110
:100A100055557941225454784221555478402054F8
:100A20005579400C1E527212395555555939545446
:100A3000545939555454580000457C410002457DB5
:100A4000420001457C407D1211127DF0282528F0DE
:100A50007C545545002054547C547C0A097F49320B
:100A6000494949323A4444443A324A4848303A4182
:100A700041217A3A42402078009DA0A07D3D42422B
:100A8000423D3D4040403D3C24FF2424487E4943B4
:100A9000662B2FFC2F2BFF0929F620C0887E090327
:100AA00020545479410000447D413048484A32384E
:100AB0004040227A007A0A0A727D0D19317D26297A
:100AC000292F28262929292630484D402038080872
:100AD000080808080808382F10C8ACBA2F102834A6
:100AE000FA00007B000008142A142222142A140899
:100AF0005500550055AA55AA55AAFF55FF55FF00A8
:100B00000000FF00101010FF00141414FF0010105C
:100B1000FF00FF1010F010F0141414FC001414F770
:100B200000FF0000FF00FF1414F404FC141417105D
:100B30001F10101F101F1414141F00101010F000AD
:100B40000000001F101010101F10101010F01000E7
:100B50000000FF101010101010101010FF100000F7
:100B600000FF140000FF00FF00001F10170000FC32
:100B700004F414141710171414F404F40000FF0004
:100B8000F714141414141414F700F714141417148D
:100B900010101F101F141414F4141010F010F00093
:100BA000001F101F0000001F14000000FC140000B4
:100BB000F010F01010FF10FF141414FF1410101098
:100BC0001F00000000F010FFFFFFFFFFF0F0F0F04B
:100BD000F0FFFFFF0000000000FFFF0F0F0F0F0FDF
:100BE0003844443844FC4A4A4A347E02020606022B
:100BF0007E027E0263554941633844443C04407E92
:100C0000201E2006027E020299A5E7A5991C2A490A
:100C10002A1C4C7201724C304A4D4D303048784895
:100C200030BC625A463D3E494949007E0101017E81
:100C30002A2A2A2A2A44445F444440514A444040D4
:100C4000444A51400000FF0103E080FF0000080813
:100C50006B6B083612362436060F090F0600001893
:100C6000180000001010003040FF0101001F0101BA
:100C70001E00191D1712003C3C3C3C000000000007
:100C8000000103070F1F3F7F0080C0E0F0F8FCFE6B
:100C900000002100240027002A002D00300033002E
:100CA00001010000040107010A012200FF21007C6C
:100CB0003C3E5E2B3D3F2F5B5D3B2C2A225C0000BF
:100CC000407A10F35A00A0724E18090010A5D4E81B
:100CD0000000E87648170000E40B54020000CA9AAE
:100CE0003B000000E1F50500008096980000004000
:100CF000420F000000A08601000000102700000045
:100D000000E803000000006400000000000A00008A
:100D10000000000100000000002C76D888DC674F3E
:100D20000823DFC1DFAE59E1B1B796E5E3E453C66E
:100D30003AE651997696E8E6C28426EB898C9B6266
:100D4000ED407C6FFCEFBC9C9F40F2BAA56FA5F410
:100D500090055A2AF75C936B6CF9676DC11BFCE038
:100D6000E40D47FEF520E6B500D0ED902E0300948B
:100D70003577050080841E080000204E0A00000020
:100D8000C80C333333330F986E12831141EF8D212A
:100D900014893BE65516CFFEE6DB18D1844B381B91
:100DA000F77C1D901DA4BBE424203284725E228156
:100DB00000C9F124ECA1E53D2700823674361124E8
:100DC0001FBECFEFD1E2DEBFCDBF00E00CBF12E00F
:100DD000A0E0B2E0EAEDFDE700E00BBF02C0079043
:100DE0000D92A43BB107D9F726E0A4EBB2E001C015
:100DF0001D92AD3CB207E1F716E0CEEDD6E000E083
:100E000006C021970109802FFE010E943E37CD3D8B
:100E1000D10780E00807A9F70E94942E0C94DC3ECD
:100E2000EFC8EF92FF920F931F93CF93DF93EC01E4
:100E300077FDA4C0EC80FD806E157F050CF09EC090
:100E400057FF04C0240F351F40E050E08E819F8182
:100E5000FA01E20FF31F8E179F071CF49C01241B5D
:100E6000350B121613060CF089C0922F842F86952D
:100E7000869586958E9DD0018F9DB00D11246A0FA9
:100E80007B1FAE8DBF8DA60FB71F4770A9F188E0FD
:100E9000841B482F682F70E0FB01E857F34FE49163
:100EA000281790F4621B71092FEF30E002C03595CE
:100EB00027956A95E2F7E2230130110541F070F0C1
:100EC0000230110579F05AC00130110519F48C91E6
:100ED000E82B0AC00130110508F049C0E0958C915B
:100EE000E82302C08C91E827EC932C813D81941774
:100EF00008F444C0A20FB31FE92FE41BE830F8F058
:100F00000230110561F48E2F9C9190959C932C8159
:100F10003D81A20FB31F88508830B0F70FC081E029
:100F20000115110509F480E081959E2F8C932C8189
:100F30003D81A20FB31F98509830C0F7E770EE23A1
:100F4000E9F0F0E0E058F34FE4910130110539F099
:100F500048F00230110591F48C91E82706C08C917D
:100F6000E82B03C0E0958C91E823EC9307C0023096
:100F7000110509F4B7CFAE0DBF1DBECFDF91CF91E4
:100F80001F910F91FF90EF900895FC0177FDB9C07C
:100F900080859185681779070CF0B3C057FDB1C003
:100FA00082859385481759070CF00895858982300A
:100FB00079F484819581DC01A61BB70BBD016150DA
:100FC000710986819781DC01A41BB50BAD010EC0B0
:100FD000833009F084C064277527CB0184279527C7
:100FE0006827792746815781481B590B4150510981
:100FF0002130310531F048F12230310509F44AC081
:101000000895CA0157FD07969C01A3E035952795E1
:10101000AA95E1F7A481B5812A9FC0012B9F900D6D
:101020003A9F900D1124680F791F068CF78DE02DE3
:10103000E60FF71F4770552781E090E001C0880F49
:101040004A95EAF79081892B48C0CA0157FD079657
:101050009C0193E0359527959A95E1F7A481B58198
:101060002A9FC0012B9F900D3A9F900D1124680F6D
:10107000791F068CF78DE02DE60FF71F4770552777
:1010800081E090E001C0880F4A95EAF78095908151
:10109000892323C0CA0157FD07969C0183E035953B
:1010A00027958A95E1F7A481B5812A9FC0012B9FDE
:1010B000900D3A9F900D1124680F791F068CF78DC3
:1010C000E02DE60FF71F4770552781E090E001C043
:1010D000880F4A95EAF790818927808308958130A7
:1010E00009F086CF64277527462757276427752779
:1010F00084819581DC01A61BB70BBD01615071098C
:1011000077CF08950895FC016370658B8481958184
:1011100026813781613039F0633029F091878087EB
:1011200033872287089531872087938782870895A0
:101130002F923F924F925F926F927F928F929F92E7
:10114000AF92BF92CF92DF92EF92FF920F931F93D5
:10115000CF93DF93CDB7DEB76C970FB6F894DEBFB1
:101160000FBECDBF9C8F8B8F5B011A011F830E8337
:101170003701C982DC0158964D915C915997411510
:10118000510509F0E5C018968D919C911997681743
:1011900079070CF0CAC11A968D919C911B9728165D
:1011A00039060CF0C2C18C2C912CFB0136E0C39E99
:1011B000E00DF11D1124FB87EA871E161F060CF0B7
:1011C000B4C1C40133E0880F991F3A95E1F79D87B8
:1011D0008C87820D931D181619060CF0A6C1579620
:1011E0008C91811103C0203B08F02F5FAB8DBC8D2B
:1011F000ED91FC9111970680F781E02DCD012A8FAA
:1012000019952A8DB5E02B9F90011124F501359693
:10121000FF87EE87BB82AA822501A9014A195B09D3
:10122000598B488BC10108969B8B8A8BE889F98979
:10123000E40DF51DE058F84F9491988761013D82C7
:101240002C82A885A0FF13C0AB8DBC8DED91FC91C5
:10125000B981B13031F40084F185E02D2E813F81D8
:1012600016C00284F385E02DEE80FF801AC0EE8167
:10127000FF816E167F06F1F0AB8DBC8DED91FC9178
:10128000B981B13051F40084F185E02D9301A601BC
:10129000B2018B8D9C8D19950DC00284F385E02DD4
:1012A0007301840194014C815D816A817B818B8D06
:1012B0009C8D1995E885E695E887FFEFCF1ADF0A40
:1012C0002C813D81280D391D3D832C834A895B8902
:1012D000C416D50609F0B5CF5FEF451A550A8A81C5
:1012E0009B81880D991D9B838A83AE85BF854A1695
:1012F0005B0609F09BCFEE81FF816E167F0609F435
:10130000F2C0EB8DFC8DA081B181F981F13079F4CF
:10131000B5016B5F7F4F1C96ED91FC911D9783018A
:1013200028E030E0A1018B8D9C8D1995DCC06A8589
:101330007B85681979091A96ED91FC911B977301C9
:101340000C851D859401A1018B8D9C8D1995CBC0B9
:10135000FA0134969491329765917491291BCB01CF
:10136000B7E02B9F800D911D1124FA012591349136
:101370003B8B2A8BFC01459154915B834A83FC0192
:101380003296C490319654915E873296149131967C
:10139000D4908981823058F0612E012E000C77089C
:1013A000AD2D0D2C000CBB0BB987A88704C0198686
:1013B0001886612C712CAB8DBC8DED91FC91119731
:1013C0000680F781E02DCD011995B9818B2E912CE6
:1013D000689CC001699C900D789C900D1124FC01C3
:1013E000EA0DFB1DFD87EC871C82712C612CE12F1F
:1013F000110FFF0B95012E0F3F1F3B872A87AC0C67
:10140000B11CA5014E0F5F1F5F8B4E8BC1018D0D6F
:10141000911DD7FC9A95998F888F4E85641608F098
:1014200062C0862D90E048855985480F591F489D18
:101430009001499D300D589D300D1124D901A20D08
:10144000B31DB98BA88BAA84BB844C845D84DC80DB
:10145000BA85DB1AE88DF98DE80FF91FFD8BEC8B4F
:101460008D2D8A0D2E893F89A216B306B9F187709A
:1014700061F48A819B810196EA89FB89AA81BB81FB
:10148000EA0FFB1F74909B838A8377FE20C0AB8D8D
:10149000BC8DED91FC91B981B13061F40084F1858E
:1014A000E02D2E813F814C895D89B5018B8D9C8D0E
:1014B00019950DC00284F385E02DEE80FF80840134
:1014C000940148895989B2018B8D9C8D1995770CAF
:1014D000EFEFAE1ABE0A480C591CC2CF3C813C0D3E
:1014E0003C8363949ACFAB8DBC8DED91FC911197A9
:1014F0000288F389E02DCD016C960FB6F894DEBF1B
:101500000FBECDBFDF91CF911F910F91FF90EF9054
:10151000DF90CF90BF90AF909F908F907F906F9013
:101520005F904F903F902F9019946C960FB6F8945F
:10153000DEBF0FBECDBFDF91CF911F910F91FF9006
:10154000EF90DF90CF90BF90AF909F908F907F9063
:101550006F905F904F903F902F900895AF92BF9201
:10156000CF92EF92FF920F931F93CF93DF93EC01F3
:10157000262F888D998D009709F03FC06A3059F465
:101580001D861C862C898E859F8538E0239F800DC3
:10159000911D112440C06D3009F4A8C08E898823A4
:1015A000C1F03C898C859D8546E0349F800D911D5E
:1015B000112448855985481759075CF41D861C86F7
:1015C0008E859F8548E0349F800D911D11249F8753
:1015D0008E87EA88FB88088919894E855F856C8526
:1015E0007D85CC88CE01A4DD2C898C859D8536E057
:1015F000239F800D911D112442C06A3079F41D860D
:101600001C862C89FC013696E4918E859F852E9F41
:10161000800D911D11249F878E8768C06D3009F45D
:1016200065C0FC0134963491631708F45FC03196AD
:10163000E491E61708F45AC0FC013296A590B490E4
:10164000462F50E0431B510937E0349FB001359FCE
:10165000700D1124A60EB71EF50132963491319605
:10166000E491332311F0E1110DC0F5013496E491BA
:101670002C898C859D85E29F800D911D11249D876D
:101680008C8734C0F501359644915E89552311F15C
:101690006C89E32FF0E0E40FF11D47FDFA956E9F92
:1016A000D0016F9FB00D11244C855D854A0F5B1FE3
:1016B000E885F985E417F5076CF41D861C86FC01A6
:1016C0003696E4918E859F856E9F800D911D112425
:1016D0009F878E87EA88FB88088919894E855F85F0
:1016E0006C857D85CC88CE0123DDBFCF81E090E085
:1016F000DF91CF911F910F91FF90EF90CF90BF900E
:10170000AF9008956F927F928F929F92AF92BF9207
:10171000CF92DF92EF92FF920F931F93CF93DF93BD
:10172000EC014B015A0169013801E881F981068019
:10173000F781E02D1995E881F9810684F785E02D80
:1017400087019601A501B401CE011995E881F981BF
:10175000A501460D571D415051090684F785E02D1E
:101760009601B401CE011995E881F9810484F585CB
:10177000E02D9301A501B401CE011995E881F9810D
:10178000C80CD91CB601615071090484F585E02D9F
:101790009301A501CE011995E881F9810288F389A9
:1017A000E02DCE01DF91CF911F910F91FF90EF902F
:1017B000DF90CF90BF90AF909F908F907F906F9071
:1017C0001994CF92DF92EF92FF920F931F93CF93D2
:1017D000DF9300D000D0CDB7DEB76C01DC01ED9116
:1017E000FC916217730789F4041715072CF4942FE2
:1017F000852FA801092F182F041B150B98012F5FA7
:101800003F4F008CF18DE02D12C04017510709F5B4
:10181000261737072CF4962F872FB901292F382F39
:10182000261B370B2F5F3F4F028CF38DE02D870176
:10183000C601199526960FB6F894DEBF0FBECDBF30
:10184000DF91CF911F910F91FF90EF90DF90CF909C
:1018500008950680F781E02D2D833E834B835C83C2
:1018600069837A831995D601ED91FC910088F189FD
:10187000E02D2D813E814B815C8169817A81C60199
:101880001995D601ED91FC910288F389E02DC601EE
:1018900026960FB6F894DEBF0FBECDBFDF91CF9175
:1018A0001F910F91FF90EF90DF90CF901994EF92DE
:1018B000FF920F931F93DC01ED91FC9111971A9603
:1018C0000D911C911B9718962D913C911997048CA2
:1018D000F58DE02D7B0140E050E060E070E019956F
:1018E0001F910F91FF90EF9008954F925F926F922A
:1018F0007F928F929F92AF92BF92CF92DF92EF92A0
:10190000FF920F931F93CF93DF931F921F92CDB738
:10191000DEB76C015A0139014801DC01ED91FC91FF
:101920000680F781E02D69837A8319956981462EB7
:101930007A81572E640C751CD601ED91FC914614EA
:1019400057046CF40484F585E02D87019401A5010A
:10195000B201C6011995BFEF4B1A5B0AEDCF0288A1
:10196000F389E02DC6010F900F90DF91CF911F9169
:101970000F91FF90EF90DF90CF90BF90AF909F902E
:101980008F907F906F905F904F901994AF92BF921D
:10199000CF92DF92EF92FF920F931F93CF93DF933B
:1019A00000D01F92CDB7DEB75C016901DC01ED917B
:1019B000FC910680F781E02D4B835C8369837A83F9
:1019C0001995D501ED91FC9169817A819B012C0DCE
:1019D0003D1D215031090088F189E02D78014B81AE
:1019E0005C818A01C5011995D501ED91FC910288B0
:1019F000F389E02DC5010F900F900F900F90DF91AC
:101A0000CF911F910F91FF90EF90DF90CF90BF90FB
:101A1000AF901994AF92BF92CF92DF92EF92FF9264
:101A20000F931F93CF93DF9300D01F92CDB7DEB7F4
:101A30005C016901DC01ED91FC910680F781E02DEC
:101A40004B835C8369837A831995D501ED91FC9171
:101A50004B815C81C40ED51EB1E0CB1AD108008841
:101A6000F189E02D7801860169817A819B01C501A8
:101A70001995D501ED91FC910288F389E02DC501FE
:101A80000F900F900F900F90DF91CF911F910F91BA
:101A9000FF90EF90DF90CF90BF90AF901994089592
:101AA000EF92FF920F931F93DC01ED91FC91048C58
:101AB000F58DE02D19951F910F91FF90EF900895EE
:101AC0000F931F93DC01ED91FC91028CF38DE02DBF
:101AD00019951F910F9108950F931F93DC01ED91BC
:101AE000FC91008CF18DE02D19951F910F910895B7
:101AF000DC01ED91FC910480F581E02D19940895AD
:101B00002F923F924F925F926F927F928F929F920D
:101B1000AF92BF92CF92DF92EF92FF920F931F93FB
:101B2000CF93DF9300D0CDB7DEB74C017B836A83C0
:101B30006A01590117019801241B350B37FF03C0B7
:101B4000319521953109C5014A815B81841B950B33
:101B500097FF03C091958195910951E059838217B0
:101B6000930714F019820BC09A2D8B2D5801092F61
:101B7000182F9A818B81DB82CA82C92ED82E8A8146
:101B80009B81A816B9065CF49C2D8D2D6801092F48
:101B9000182F9A818B81BB82AA82A92EB82E25018B
:101BA000AA81BB814A1A5B0A38016C187D0877FE4E
:101BB00003C0719461947108720157FE03C0BFEFB6
:101BC000EB1AFB0AF594E794C016D1061CF00FEF50
:101BD0001FEF1FC001E010E01CC0D401ED91FC918B
:101BE000B9810084F185E02D9101BB23C1F04A81C8
:101BF0005B81B601C4011995E618F708F7FE04C029
:101C0000C00ED11EE40CF51CEA81FB813196FB83EA
:101C1000EA834A815B81A416B506FCF604C0A601DE
:101C20006A817B81E7CF0F900F900F90DF91CF916A
:101C30001F910F91FF90EF90DF90CF90BF90AF90EA
:101C40009F908F907F906F905F904F903F902F90DC
:101C500008950F931F93CF93DF93DC015596EC917A
:101C60005597E23071F0E330E9F0E13079F5FB01AE
:101C700014960D90BC91A02DA41BB50BA21BB30B09
:101C800018C0EC01EC81FD81E61BF70BBF01615030
:101C90007109EE81FF81DF01A41BB50BAD01421B71
:101CA000530B14C0DA01EC01EE81FF81E61BF70B48
:101CB0003197F7FD0CC0EC014E815F81E417F50709
:101CC00034F4AF01BD010E94311E01C0AAD8DF91DA
:101CD000CF911F910F9108950F931F93DC0155969B
:101CE000EC915597E23061F0E33009F1E13079F59C
:101CF0001496ED91FC911597E41BF50B319723C0D9
:101D0000DC011496ED91FC911597DF01A61BB70B32
:101D1000BD01DC011696ED91FC911797DF01A41B24
:101D2000B50BAD0141505109621B730B10C0FA0194
:101D3000DC0116964D915C911797DA01A61BB70B43
:101D4000BD01621B730BAB01BF016BD80CC057FD0B
:101D50000AC0DC011696ED91FC9117974E175F07AC
:101D600014F40E94311E1F910F91089508958EBDA5
:101D700000000DB407FEFDCF8EB508951F93CF93DD
:101D8000DF93FC01848D958D009729F1162FEF01CB
:101D900020A131E030937A052093790510927805DF
:101DA00010927705DC01ED91FC910190F081E02D1E
:101DB00060E019958C8D9D8DDC01ED91FC91019079
:101DC000F081E02D612F19958C8D9D8DDF91CF9144
:101DD0001F910C940C1CA4A5B5A59C9182A980957B
:101DE00089238C93828D938D892B29F0862FDF9107
:101DF000CF911F91BCCF28E030E080E8A0A5B1A52D
:101E000090A9482F462319F04C91942B03C04C9174
:101E1000909594239C93A2A5B3A54C9191A9942B42
:101E20009C93A2A5B3A54C9191A9909594239C93C2
:101E300086952150310911F7DF91CF911F910895B7
:101E40008CBD9DBD08951F93CF93DF93EC01162F9A
:101E50008C8D9D8D892B39F06EA97FA988AD99ADA8
:101E60000E94F81B0EC08A8D9B8D892B19F08CA9BE
:101E70009DA9E6DFEEA5FFA590818BA9809589231A
:101E80008083111102C066EA01C067EACE0176DFE5
:101E90008C8D9D8D892B49F06AAD7BAD8CAD9DAD50
:101EA000DF91CF911F910C94F81BEEA5FFA59081B7
:101EB0008BA9892B8083DF91CF911F9108950F9378
:101EC0001F93CF93DF932091BB023091BC02241764
:101ED000350709F1EB018C015093BC024093BB0222
:101EE0000E94981E10923F0610923E0610924106E4
:101EF00010924006C8010E947621CE010E947621F0
:101F00000E94611FA8D26093BF027093C0028093A9
:101F1000C1029093C202DF91CF911F910F9108955A
:101F2000FC01918D828D981761F0828DDF01A80FE1
:101F3000B11D5D968C91928D9F5F9F73928F90E003
:101F400008958FEF9FEF0895FC01918D828D981772
:101F500031F0828DE80FF11D858D90E008958FEFAF
:101F60009FEF0895FC01918D228D892F90E0805C78
:101F70009F4F821B91098F73992708958BE795E0F6
:101F8000F1DF21E0892B09F420E0822F0895FC0184
:101F9000848DDF01A80FB11DA35ABF4F2C91848DF2
:101FA00090E001968F739927848FA689B7892C9327
:101FB000A089B1898C9180648C93938D848D9813C2
:101FC00006C00288F389E02D80818F7D808308958B
:101FD000EF92FF920F931F93CF93DF93EC0181E079
:101FE000888F9B8D8C8D981305C0E889F989808135
:101FF00085FD23C0F62E0B8D10E00F5F1F4F0F7372
:102000001127E02E8C8DE8120BC00FB607FCFACF1B
:10201000E889F989808185FFF5CFCE01B8DFF2CF5D
:102020008B8DFE01E80FF11DE35AFF4FF0820B8FFD
:10203000EA89FB898081806207C0EE89FF8960831D
:10204000E889F98980818064808381E090E0DF9174
:10205000CF911F910F91FF90EF900895CF93DF9351
:10206000EC01888D8823C1F0EA89FB89808185FD98
:1020700005C0A889B9898C9186FD0EC00FB607FCF2
:10208000F5CF808185FFF2CFA889B9898C9185FF32
:10209000EDCFCE017CDFE8CFDF91CF91089580E0D6
:1020A00090E0892B19F06ADF811125C080E090E073
:1020B000892B41F080E090E0892B21F00E94000004
:1020C00081111CC080E090E0892B41F080E090E01D
:1020D000892B21F00E940000811113C080E090E064
:1020E000892BA1F080E090E0892B81F00E94000014
:1020F00081110AC008950E940000D8CF0E940000FC
:10210000E1CF0E940000EACF0C94000008953FB791
:10211000F8948091E1029091E202A091E302B091E3
:10212000E40226B5A89B05C02F3F19F00196A11D1A
:10213000B11D3FBFBA2FA92F982F8827820F911D5D
:10214000A11DB11DBC01CD0142E0660F771F881FA4
:10215000991F4A95D1F708950E94503A1F920F9205
:102160000FB60F9211240BB60F922F933F934F93FC
:102170005F936F937F938F939F93AF93BF93EF93EF
:10218000FF938BE795E003DFFF91EF91BF91AF9154
:102190009F918F917F916F915F914F913F912F917F
:1021A0000F900BBE0F900FBE0F901F9018951F92AF
:1021B0000F920FB60F9211240BB60F922F938F939D
:1021C0009F93EF93FF93E0918B05F0918C058081B5
:1021D000E0919105F091920582FD12C0908180916D
:1021E00094058F5F8F7320919505821751F0E091D0
:1021F0009405F0E0E558FA4F958F8093940501C05F
:102200008081FF91EF919F918F912F910F900BBE45
:102210000F900FBE0F901F90189590E0FC01319722
:10222000E231F10508F04EC08827EE58FF4F8F4F7E
:102230000C943E37809180008F7703C0809180009E
:102240008F7D80938000089580918000877FF9CFF3
:1022500084B58F7702C084B58F7D84BD0895809149
:10226000B0008F7703C08091B0008F7D8093B00065
:102270000895809190008F7707C0809190008F7DA6
:1022800003C080919000877F809390000895809193
:10229000A0008F7707C08091A0008F7D03C0809140
:1022A000A000877F8093A0000895809120018F7700
:1022B00007C0809120018F7D03C080912001877F1E
:1022C0008093200108951F93CF93DF93282F30E050
:1022D000F901EA53F94F8491F901E058F94FD4918B
:1022E000F901E65CF94FC491CC23C1F0162F81119E
:1022F00094DFEC2FF0E0EE0FFF1FEC5DFE4FA59199
:10230000B4918FB7F894111105C09C91ED2FE09511
:10231000E92302C0EC91ED2BEC938FBFDF91CF91BD
:102320001F910895CF93DF9390E0FC01E058F94F9F
:102330002491FC01E65CF94F8491882361F190E0DF
:10234000880F991FFC01E057F34FC591D491FC0110
:10235000EC5DFE4FA591B491611109C09FB7F8944F
:102360008881209582238883EC912E230BC06230D4
:1023700061F49FB7F8943881822F809583238883F6
:10238000EC912E2B2C939FBF06C08FB7F894E88159
:102390002E2B28838FBFDF91CF910895863308F0CD
:1023A000865390917B00282F2870977F922B9093D3
:1023B0007B0087702091000290E4299F90011124F6
:1023C000822B80937C0080917A00806480937A00D5
:1023D00080917A0086FDFCCF809178002091790071
:1023E00090E0922B08958F929F92AF92BF92CF92DE
:1023F000DF92EF92FF926B017C0189DE4B015C0161
:10240000C114D104E104F104E9F081DEDC01CB0167
:1024100088199909AA09BB09883E9340A105B1050D
:1024200078F321E0C21AD108E108F10888EE880E9D
:1024300083E0981EA11CB11CC114D104E104F10475
:1024400021F7DECFFF90EF90DF90CF90BF90AF905D
:102450009F908F9008952FB7F8946091DD0270914E
:10246000DE028091DF029091E0022FBF08951F925B
:102470000F920FB60F9211242F933F938F939F9338
:10248000AF93BF938091DD029091DE02A091DF02B5
:10249000B091E0023091DC0223E0230F2D3720F4CD
:1024A0000196A11DB11D05C026E8230F0296A11DAE
:1024B000B11D2093DC028093DD029093DE02A09395
:1024C000DF02B093E0028091E1029091E202A091DC
:1024D000E302B091E4020196A11DB11D8093E102D7
:1024E0009093E202A093E302B093E402BF91AF9114
:1024F0009F918F913F912F910F900FBE0F901F9042
:10250000189561E085E3DFDE61E085E30BDF8CB5E4
:1025100080618CBD8CB580648CBD61E084E302DF9A
:1025200061E083E3FFCECF93DF938091D5028823D0
:1025300099F1C091D602D091D702409104025091F6
:102540000502609106027091070222E733E0CE0196
:102550000E94E528811102C080E01FC04091D8028E
:102560005091D9026091DA027091DB024115510558
:102570006105710579F022E733E0CE010E94E5287C
:10258000882351F31092D8021092D9021092DA02E5
:102590001092DB021092D50281E0DF91CF91089575
:1025A0008F929F92AF92BF92EF92FF920F931F93E1
:1025B000CF934B015C01C42F8091040290910502DE
:1025C000A0910602B091070288159905AA05BB05DE
:1025D000F9F0A9DF811102C080E020C082E7E82E77
:1025E00083E0F82E00E012E020E030E0B501A40125
:1025F0008091D6029091D7020E945828882361F3D7
:102600008092040290920502A0920602B092070204
:102610008091D502C82BC093D50281E0CF911F9144
:102620000F91FF90EF90BF90AF909F908F90089583
:102630008F929F92AF92BF92CF92DF92EF92FF92D2
:102640000F931F93CF93DF93EC01142F7093D70256
:102650006093D602442361F1453010F080E0F0C071
:1026600040E060E070E0CB019BDF8823B9F320E11C
:10267000129FA00111244E595C4FFA01E254FE4F03
:1026800080818F7759F73C9680819181A281B381B7
:1026900084369105A105B10508F33497C080D18037
:1026A000E280F380C114D104E104F10421F4D6CF17
:1026B000C12CD12C760140E0C701B60171DF88231F
:1026C00069F280917D0390917E038115924031F6ED
:1026D00090918203992309F4C1CF20918003309116
:1026E0008103232B09F4BACF80917F03882309F457
:1026F000B5CF9A8B8C831D8690E061E070E02D85CC
:10270000E22FAB01022E02C0440F551F0A94E2F7DC
:102710008417950731F031E0320F3D87283078F388
:102720009DCF20918803309189032115310519F03F
:1027300040E050E008C0209196033091970340910B
:102740009803509199032D833E834F83588780913E
:1027500080039091810346015701880E991EA11CA8
:10276000B11C8B8A9C8AAD8ABE8A0091830310912A
:102770008403198F088FA0918203B0E00E94A13ECC
:10278000860E971EA81EB91E8A8E9B8EAC8EBD8E9D
:1027900085E0000F111F8A95E1F701501E4F012FB0
:1027A00011270695800E911EA11CB11C8E869F8656
:1027B000A88AB98A209185033091860321153105B5
:1027C00021F0A90160E070E008C0409192035091AF
:1027D00093036091940370919503D701C601881902
:1027E0009909AA09BB09840F951FA61FB71F04C02A
:1027F000B695A79597958795EA95D2F789879A8791
:10280000AB87BC87853F2FE09207A105B10510F487
:102810008CE014C0853F9F4FA105B10510F480E105
:102820000DC080919E0390919F03A091A003B09151
:10283000A1038A8F9B8FAC8FBD8F80E28F8B81E04D
:10284000DF91CF911F910F91FF90EF90DF90CF908C
:10285000BF90AF909F908F9008954F925F926F922C
:102860007F928F929F92AF92BF92CF92DF92EF9220
:10287000FF920F931F93CF93DF93EC016A017B01CB
:1028800028013901423051056105710510F480E0DD
:1028900072C089859A85AB85BC850196A11DB11D45
:1028A00084179507A607B70790F38B889C88AD8897
:1028B000BE888F89803129F4BB27AF2D9E2D8D2DA9
:1028C00009C0DB01CA0147E0B695A79597958795A2
:1028D0004A95D1F7880E991EAA1EBB1E809104024C
:1028E00090910502A0910602B09107028816990600
:1028F000AA06BB0679F48F89803199F4DD24EE2491
:10290000FF24C601880F991FFC01EE58FC4F51822D
:10291000408218C040E0C501B40142DE8111EBCF16
:10292000B6CFE894C7F8DD24EE24FF24C601880F53
:10293000991F880F991FFC01EE58FC4F408251826D
:10294000628273828091D50281608093D5028A89E8
:10295000823080F08D819E81AF81B885880E991E6E
:10296000AA1EBB1E8092D8029092D902A092DA02CF
:10297000B092DB0281E0DF91CF911F910F91FF9028
:10298000EF90DF90CF90BF90AF909F908F907F900F
:102990006F905F904F9008958F929F92AF92BF92E9
:1029A000CF92DF92EF92FF920F931F93CF93DF931B
:1029B000FC0181859285A385B4850196A11DB11D79
:1029C00084179507A607B70710F480E05BC08389DA
:1029D0009489A589B689C789C03129F4852E962E98
:1029E000A72EBB2409C04A015B01C7E0B694A79497
:1029F00097948794CA95D1F7E9016A017B018F0109
:102A0000BC01CD01680D791D8A1D9B1D80900402BB
:102A100090900502A0900602B09007026815790513
:102A20008A059B0599F4F80187898031A1F4B701E3
:102A3000A601552766277727440F551FFA01EE5840
:102A4000FC4F80819181A0E0B0E017C040E0A8DD9C
:102A50008111E9CFBACFB701A6014F775527662775
:102A60007727440F551F440F551FFA01EE58FC4FAE
:102A700080819181A281B381BF7088839983AA8369
:102A8000BB8381E0DF91CF911F910F91FF90EF9079
:102A9000DF90CF90BF90AF909F908F9008954F920E
:102AA0005F926F927F92AF92BF92CF92DF92EF923E
:102AB000FF920F931F93CF93DF9300D01F92CDB758
:102AC000DEB78C0149835A836B837C835901C12C07
:102AD000D12C7601412C82E0582E612C712C498139
:102AE0005A816B817C819E012F5F3F4FC80154DF6B
:102AF000882351F1D301C201F801058404C0880F75
:102B0000991FAA1FBB1F0A94D2F7C80ED91EEA1E2E
:102B1000FB1E49815A816B817C818789803129F034
:102B200088EF9FEFAFEFBFE004C088EF9FEFA0E01A
:102B3000B0E0481759076A077B0788F2F501C082A1
:102B4000D182E282F38281E00F900F900F900F907C
:102B5000DF91CF911F910F91FF90EF90DF90CF9079
:102B6000BF90AF907F906F905F904F900895CF93FC
:102B7000DF93EC010E94F921009739F025EEFC016A
:102B800020831D82DF91CF91CECC80E0DF91CF9169
:102B90000895CF93DF93EC018D81882311F18C810F
:102BA00087FF1CC0CE010E94F921FC01892BC9F0CE
:102BB0008D81823040F48B899C89AD89BE89848F58
:102BC000958FA68FB78F8F89988DA98DBA8D938F8A
:102BD000828FB58BA48B8C818F778C83DF91CF9183
:102BE000A2CC80E0DF91CF9108958F929F92AF9217
:102BF000BF92CF92DF92EF92FF920F931F93CF93EA
:102C0000DF93EC018D81811102C080E076C00B89D9
:102C10001C892D893E890417150726073707A8F355
:102C20006A017B01823029F4CA86DB86EC86FD8648
:102C30000DC0C114D104E104F10451F41E821F82BD
:102C4000188619861A861B861C861D8681E055C04B
:102C50008A849B84AC84BD84EB8DFC8D258530E01B
:102C6000275F3F4FB501A401415051096109710926
:102C7000022E04C076956795579547950A94D2F72A
:102C8000D701C6010197A109B10904C0B695A7955E
:102C9000979587952A95D2F784179507A607B707C2
:102CA00020F089288A288B2849F44F89588D698D0E
:102CB0007A8D4E835F836887798704C0841B950B68
:102CC000A60BB70B4C015D018E010A5F1F4F8114EB
:102CD0009104A104B10409F4A7CF4E815F816885F6
:102CE000798598018B8D9C8D57DE91E0891A91082A
:102CF000A108B1088111EBCF88CFDF91CF911F914F
:102D00000F91FF90EF90DF90CF90BF90AF909F908A
:102D10008F9008952F923F924F925F926F927F9281
:102D20008F929F92AF92BF92CF92DF92EF92FF92DB
:102D30000F931F93CF93DF9300D01F92CDB7DEB7D1
:102D40008C015B011A01DC0115968C91159781307D
:102D5000C1F414968C9181FF14C082FF1AC0F8014F
:102D6000438954896589768982859385A485B5854B
:102D700084179507A607B70761F0C80136DF8111F0
:102D800008C081E090E0F8019383828380E090E0C6
:102D900035C1610183C0D8015B968D919C915C9790
:102DA000FC01248121502A013B0139E0769467948B
:102DB000579447943A95D1F7722E74207A01F1E036
:102DC000FF22772009F476C080E092E08E199F09F7
:102DD00046018C159D0508F44C01D8015B962D9198
:102DE0003C915C9716968D919D910D90BC91A02D74
:102DF0000297A109B109F901058404C0880F991F40
:102E0000AA1FBB1F0A94D2F746855785608971892E
:102E1000840F951FA61FB71F9C01AD01270D311D03
:102E2000411D511D29013A01811432E0930609F038
:102E300087C08091040290910502A0910602B09192
:102E4000070284159505A605B70559F48FEF9FEF86
:102E5000DC018093040290930502A0930602B093D4
:102E600007029501B301A2018091D6029091D70289
:102E70000E94E528882309F484CF9EEFB91AC81868
:102E8000D908F80182859385A485B585880D991D9B
:102E9000A11DB11D82879387A487B587D8011A9693
:102EA0004D915D916D917C911D97C114D10409F0F4
:102EB00072CF84C0E114F10409F086CF16964D91CB
:102EC0005D916D917C9119974115510561057105D1
:102ED00059F457968D919D910D90BC91A02D00971E
:102EE000A105B10539F520C09E012F5F3F4F54DD8C
:102EF000882309F44CCF89819A81AB81BC81F80188
:102F0000238D348DF9012789203129F048EF5FEFB7
:102F10006FEF7FE004C048EF5FEF60E070E0841780
:102F20009507A607B70730F0C8010E94D024811189
:102F30004BCF27CFF80186839783A087B18744CFF3
:102F4000E114F10421F5D8011A964D915D916D912E
:102F50007C911D9753968D919D910D90BC91A02DC4
:102F6000481759076A077B0790F0DDDA882309F4D0
:102F700008CF4092040250920502609206027092BD
:102F800007028091D50281608093D50207C041E09D
:102F9000C301B20105DB882309F4F3CED501F701A3
:102FA000EE58FC4FCF01880D991DE817F90719F06D
:102FB0002D912193FACFA80CB91C61CF53968D9116
:102FC0009D910D90BC91A02D84179507A607B7077A
:102FD00040F4F801438B548B658B768B8481806839
:102FE0008483D80114968C9183FD02C0C10106C070
:102FF000C801CFDD882309F4C4CEF8CF0F900F901D
:103000000F900F90DF91CF911F910F91FF90EF9054
:10301000DF90CF90BF90AF909F908F907F906F90F8
:103020005F904F903F902F900895CF93DF931F9222
:10303000CDB7DEB7698341E050E0BE016F5F7F4FDF
:1030400069DE0F90DF91CF910895DC015996ED91E3
:10305000FC915A973097B9F083899489A589B689EC
:103060004285538564857585841B950BA60BB70B2C
:10307000811520E89207A105B10538F08FEF9FE791
:10308000A0E0B0E0089580E090E00895CF93DF9352
:103090001F92CDB7DEB76983DC01ED91FC91028010
:1030A000F381E02D41E050E0BE016F5F7F4F199545
:1030B0000F90DF91CF91089585ED8093BC008091B2
:1030C000BC0084FDFCCF1092B60208954091290304
:1030D000262F30E0240F311D21323105DCF4209100
:1030E000B6022430C9F4FC0180E090E0861758F461
:1030F000309129032191DC01A95FBC4FA30FB11DC1
:103100002C930196F3CF80912903680F60932903D4
:1031100080E0089581E0089582E00895089581E0B7
:1031200090E03091B8022091B702321710F480E09D
:1031300090E091958195910908958091B8029091C0
:10314000B702891730F48F5F8093B80280E090E077
:1031500008958FEF9FEF08958091B70290E020913E
:10316000B802821B91090895CF92DF92EF92FF92ED
:103170000F931F93CF93DF937C01262F972F8A0104
:1031800080917A05882391F0C62FD72F6E01C40E47
:10319000D51ECC15DD0569F06991D701ED91FC9143
:1031A0000190F081E02DC7011995F3CF642F822F94
:1031B0008DDFC801DF91CF911F910F91FF90EF90AC
:1031C000DF90CF900895CF93DF931F92CDB7DEB7F6
:1031D000698320917A052223D1F02091770520324E
:1031E00040F021E030E0FC013383228380E090E076
:1031F00014C080917805E82FF0E0E951FD4F9981E6
:1032000090838F5F809378058093770504C061E099
:10321000CE0101965BDF81E090E00F90DF91CF91CE
:103220000895089580E090E0089580E090E008958A
:1032300080E090E00895CF93DF931F92CDB7DEB783
:103240006983DC01ED91FC910280F381E02D41E086
:1032500050E0BE016F5F7F4F19950F90DF91CF91C6
:103260000895DC011C968D919C911D97DC01ED91D8
:10327000FC910280F381E02D1994CF93DF93EC0150
:10328000898D9A8D009739F481E090E09B838A8341
:1032900080E090E00AC0FC01138212823BDDE98DE0
:1032A000FA8D22813381232B79F7DF91CF91089515
:1032B000EF92FF920F931F93CF93DF93EC017B016B
:1032C0008A011B821A8288EE93E0A0E0B0E08C8332
:1032D0009D83AE83BF8382EA92E0998388838DE1E8
:1032E00090E00E943F389A8F898F009779F02DE106
:1032F000F701DC0101900D922A95E1F74CE050E0D6
:10330000B801CE010C960E94833A188EDF91CF91BE
:103310001F910F91FF90EF9008952F923F924F923F
:103320005F926F927F928F929F92AF92BF92CF9255
:10333000DF92EF92FF920F931F93CF93DF931F9231
:103340001F92CDB7DEB7FC018581882309F4D7C071
:10335000848180FFD4C021E02A8343895489658910
:10336000768982859385A485B585481759076A07AC
:103370007B0709F41A826F013A81832F90E0DE0106
:1033800011964D013F01B6E06B0E711C892B09F4BB
:103390007CC0D6011A964D915D916D917C911D97DF
:1033A0005A01B1E0BB22F60125811A012B0189E007
:1033B00056944794379427948A95D1F7838D948DAA
:1033C000223061F4FC01828D938DA48DB58DBC01FA
:1033D000CD01620D731D841D951D44C0DC01149642
:1033E0001C9111501221A114B104C9F4111117C07C
:1033F000452B462B472B51F4F6018789908DA18DE3
:10340000B28D86839783A087B18709C04681578193
:10341000608571859301C0DA882309F470C0F601D4
:10342000238D348D86819781A085B1850297A1096E
:10343000B109AC01BD01F901058404C0440F551F59
:10344000661F771F0A94D2F786859785A089B18970
:10345000840F951FA61FB71FBC01CD01610F711D01
:10346000811D911DD60114962C9126FF14C0009148
:1034700004021091050220910602309107026017A4
:1034800071078207930749F506C0FA81FF23B9F156
:10349000898190E036C040E083D8882381F1F5012E
:1034A000EE58FC4FD401CF010196E817F90719F047
:1034B00021912D93FACFEFEF8E1A9E0AF6018285A5
:1034C0009385A485B5850196A11DB11D828793873B
:1034D000A487B58780E090E059CF740101E010E047
:1034E0009501AB01BC018091D6029091D7020E9458
:1034F0005828882321F0BFEF8B1A9B0ADFCF8FEF6C
:103500009FEF0F900F90DF91CF911F910F91FF9040
:10351000EF90DF90CF90BF90AF909F908F907F9073
:103520006F905F904F903F902F900895FC01818D98
:10353000928D009709F0F1CE8FEF9FEF08950F93D2
:103540001F93CF93DF93FC01818D928D0097A9F09B
:10355000EF01E3DE8C010F3F8FEF180789F0898DB3
:103560009A8DFC01428553856485758541505109CA
:10357000610971093ADBC80105C080E090E002C032
:103580008FEF9FEFDF91CF911F910F9108951F92C1
:103590000F920FB60F9211240BB60F922F933F93F9
:1035A0004F935F936F937F938F939F93AF93BF934B
:1035B000EF93FF938091B900887F803609F49CC017
:1035C00068F5883209F45BC090F4803109F454C086
:1035D00038F4882309F4F6C0883009F44DC0F5C0EA
:1035E000883109F44CC0803209F45DC0EEC08034EB
:1035F00009F468C048F4803309F455C0883309F0F1
:10360000E4C080934E03D8C0803509F44FC088359C
:1036100009F45DC0883409F0D8C0D6C0883909F4EF
:10362000C7C0A8F4883709F467C038F4883609F4AD
:1036300063C0803709F460C0C8C0883809F4B8C0D6
:10364000803909F45FC0803809F0BFC05BC0803B9F
:1036500009F486C038F4803A09F466C0883A09F45F
:103660007FC0B3C0803C09F4A7C0883C09F4A4C063
:10367000883B09F48AC0A9C08091710310C0909161
:10368000700380916F03981770F5E091700381E0EB
:103690008E0F80937003F0E0E15BFC4F808180939C
:1036A000BB0085EC86C080934E038EC0E091700312
:1036B00081E08E0F809370038091BB00F0E0E15BAE
:1036C000FC4F80839091700380916F036EC0E091F6
:1036D000700381E08E0F809370038091BB00F0E057
:1036E000E15BFC4F80838091B50281116DC081E068
:1036F0008093B40284EA61C083E08093B6021092A2
:103700004D03CFCF80914D03803208F051C0E0913E
:103710004D0381E08E0F80934D038091BB00F0E05C
:10372000E35DFC4F8083BDCF85EC8093BC0010929D
:10373000B60280914D03803230F4E0914D03F0E009
:10374000E35DFC4F108260914D0370E0E0912B032C
:10375000F0912C038DE293E0199510924D0335C042
:1037600084E08093B60210922A0310922903E0911C
:103770002703F0912803199580912903811105C031
:1037800081E08093290310920703E0912A0381E0EE
:103790008E0F80932A03F0E0E95FFC4F80818093D5
:1037A000BB0090912A0380912903981708F479CFE0
:1037B00085E88093BC0009C085EC8093BC00109222
:1037C000B60203C010924E0377DCFF91EF91BF91D8
:1037D000AF919F918F917F916F915F914F913F91A9
:1037E0002F910F900BBE0F900FBE0F901F9018954A
:1037F0009B01AC0160E074E284EF90E00E94AB3E7C
:10380000DA01C9014097A109B109B695A795979525
:1038100087958093B8000895209177059091790558
:10382000213208F04AC08091B6028111FCCF32E00B
:103830003093B60231E03093B5023FEF30934E0340
:103840001092700320936F03A7EEB2E04FE453E0B1
:10385000FA013E2F341B321718F43D913193F9CF02
:103860001092710320917103990F922B9093710321
:103870009091B402913061F41092B402909171036E
:103880009093BB009091BC0093FDF8CF95EC01C0E4
:1038900095EE9093BC009091B6029230E1F3909136
:1038A0004E039F3F79F080914E03803241F080912A
:1038B0004E03803331F084E005C081E003C082E034
:1038C00001C083E0109278051092770510927A0576
:1038D00008951F920F920FB60F9211240BB60F92FC
:1038E0002F933F934F935F936F937F938F939F9308
:1038F000AF93BF93EF93FF93E0917505F091760539
:103900001995FF91EF91BF91AF919F918F917F9109
:103910006F915F914F913F912F910F900BBE0F9040
:103920000FBE0F901F9018951F920F920FB60F9217
:1039300011240BB60F922F933F934F935F936F9386
:103940007F938F939F93AF93BF93EF93FF93E0E0A9
:10395000F0E01995FF91EF91BF91AF919F918F91F9
:103960007F916F915F914F913F912F910F900BBE7F
:103970000F900FBE0F901F901895CF92DF92EF928D
:10398000FF92CF93DF93EC016C01092E000CEE083F
:10399000FF08181619065CF460EF79E482E090E005
:1039A000A70196010E94853ECA01B90104C060E4E6
:1039B00072E48FE090E034D4C701B6010E94963DD6
:1039C00020E030E040EF51E40E94463720E030E054
:1039D0004AEA52E40E94D13D20E030E047E853E457
:1039E0000E94AB3720E030E0A9010E94473720E079
:1039F00030E046E153E40E9447370E941338609359
:103A0000B400209791F41092B40060E084E00E942A
:103A1000631160E085E00E94631160E087E00E942E
:103A2000631160E086E00E946311D093BA02C093F4
:103A3000B902DF91CF91FF90EF90DF90CF90089582
:103A40002091B9023091BA022115310509F47CC0E8
:103A50008091C3029091C402019660E971E00E94D6
:103A60002A379093C4028093C302809101029091FF
:103A70000202009739F4121613060CF065C080E0BC
:103A800090E07BCF181619062CF401979093020250
:103A9000809301028091BD029091BE0228173907E0
:103AA0005CF48091E60291E0980F9093E6028630F4
:103AB00098F0C90101960DC0821793076CF48091AC
:103AC000E60291E0980F9093E602863028F0C90153
:103AD000019753DF1092E6028091E50290E0019693
:103AE000837099278093E5028230C1F08330E1F042
:103AF000813031F061E084E00E94631160E005C034
:103B000060E084E00E94631161E085E00E9463113F
:103B100061E087E00E94631160E013C060E084E030
:103B20000E94631161E005C061E084E00E946311BE
:103B300060E085E00E94631160E087E00E9463110D
:103B400061E086E00C9463110895CF93DF93EC015C
:103B5000DB011496EC911497F0E0FE2FEE271396FC
:103B60008C911397E82B8D919C911197E80FF91F79
:103B700010826D917C91198218821B821A821D829B
:103B80001C826115710551F0FB0101900020E9F7DD
:103B90003197AF01461B570BCE01F8D5CE01DF910F
:103BA000CF9108950F931F93CF93DF938C01EB0177
:103BB000F8016383D483209711F4C1E0D0E0F801C9
:103BC000808191810E94D438CE0101960E943F38B5
:103BD000F80191838083C80FD91F1882DF91CF919C
:103BE0001F910F910895CF92DF92EF92FF920F9362
:103BF0001F93CF93DF931F92CDB7DEB78C016A017D
:103C000081E090E069830E943F38D80111969C932F
:103C10008E9315961C921597698112966C93F601F6
:103C2000E080F180C480D580DD24B601C801BADF10
:103C3000F701D8014D915C9196012E0F3F1FE217BD
:103C4000F30729F08191DA018D93AD01F8CF0F9040
:103C5000DF91CF911F910F91FF90EF90DF90CF9068
:103C600008950F931F93CF93DF9377FF04C0260F20
:103C7000371F60E070E0DC011496CD91DC91159760
:103C8000FB01E20FF31FCE17DF071CF49E01261B7A
:103C9000370B121613060CF046C0FA0157FD379683
:103CA000DF01E3E0B595A795EA95E1F7AC9FF00158
:103CB000AD9FF00DBC9FF00D11246E0F7F1FDC0136
:103CC0005E96ED91FC915F97E60FF71F47705527C1
:103CD00081E090E001C0880F4A95EAF7482F013053
:103CE000110539F078F002301105E9F42E0F3F1F6D
:103CF00013C02E0F3F1FE217F307A9F08081842B1A
:103D00008193F9CF80952E0F3F1FE217F30759F0EB
:103D1000908198239193F9CFE217F30721F08081E6
:103D200084278193F9CFDF91CF911F910F9108954F
:103D30002091380630913906C901079697FD0796FC
:103D400023E0959587952A95E1F7209136063091E5
:103D50003706829FA001839F500D929F500D112422
:103D600060E070E080915006909151060C946A3AA0
:103D7000FF920F931F93CF93DF93EC01F62E809168
:103D80004E0690914F06009709F44FC020915206BD
:103D900031E030937A0520937905109278051092DE
:103DA0007705DC01ED91FC910190F081E02D60E060
:103DB00019958E01D1E0CF0DFF24F39480914E062A
:103DC00090914F06C01759F1D032C0F025DD809197
:103DD0005206F0927A058093790510927805109238
:103DE000770580914E0690914F06DC01ED91FC9194
:103DF0000190F081E02D60E01995D1E080914E06B0
:103E000090914F06F8016491DC01ED91FC910190D5
:103E1000F081E02D1995DF5F0F5F1F4FCFCFDF914E
:103E2000CF911F910F91FF90F7CCE0915E06F0913A
:103E30005F062081809164068095822380838E01B5
:103E4000C60FC017C1F1F801849120914C06309142
:103E50004D06232B19F00E94B70E2AC028E030E04F
:103E600040E8E0915A06F0915B0690916206542F6B
:103E7000582319F05081952B03C0508190959523BC
:103E80009083E0915C06F0915D065081909163060D
:103E9000952B9083E0915C06F0915D0650819091A6
:103EA0006306909595239083469521503109C9F674
:103EB0000F5F1F4FC6CFDF91CF911F910F91FF90E2
:103EC0000895CF92DF92EF92FF920F931F93CF93BB
:103ED000DF931F92CDB7DEB780914E0690914F06CB
:103EE000892B51F0609168067091690680916A068D
:103EF00090916B067DDC16C080914C0690914D062A
:103F0000892B31F080916606909167060E94200F00
:103F1000E0916006F0916106908180916506809540
:103F20008923808365E08AEA9CE022DF609136067F
:103F3000615082E396E00E94BE0E209138063091D7
:103F40003906C901079697FD079623E09595879551
:103F50002A95E1F72091360630913706829F80013D
:103F6000839F100D929F100D1124E0905006F09049
:103F7000510680914E0690914F060E0D1F1D009721
:103F800009F44CC02091520631E030937A05209319
:103F900079051092780510927705DC01ED91FC917E
:103FA0000190F081E02D60E41995670121E0FF2484
:103FB000F39480914E0690914F06C016D10661F1A0
:103FC0002032C0F029DC80915206F0927A0580936D
:103FD0007905109278051092770580914E069091A0
:103FE0004F06DC01ED91FC910190F081E02D60E441
:103FF000199521E080914E0690914F06F60161914E
:104000006F01DC01ED91FC910190F081E02D29839D
:10401000199529812F5FCDCFFFDB43C0E0915E066C
:10402000F0915F06908180916406892B8083E01671
:10403000F106B9F1F70181917F0120914C06309191
:104040004D06232B19F00E94B70EF1CF28E030E087
:1040500040E8E0915A06F0915B0690916206542F79
:10406000582319F05081952B03C0508190959523CA
:104070009083E0915C06F0915D065081909163061B
:10408000952B9083E0915C06F0915D0650819091B4
:104090006306909595239083469521503109C9F682
:1040A000C6CF80914E0690914F06892B91F060917A
:1040B0006C0670916D0680916E0690916F060F9060
:1040C000DF91CF911F910F91FF90EF90DF90CF90F4
:1040D0008FCBE0916006F09161069081809165063A
:1040E000892B808380914C0690914D06892B59F045
:1040F0000F90DF91CF911F910F91FF90EF90DF9084
:10410000CF900C94B60E0F90DF91CF911F910F912D
:10411000FF90EF90DF90CF9008953F924F925F9283
:104120006F927F928F929F92AF92BF92CF92DF92C7
:10413000EF92FF920F931F93CF93DF9300D000D0A5
:10414000CDB7DEB72C013B014A015901C9010796E1
:1041500097FD07969C0193E0359527959A95E1F791
:104160003A832983C12CD12CE12CF12C312CC701AD
:10417000860D971D9C838B83E016F106CCF51E827D
:104180001D82ED81FE81EA15FB0554F58D819E812E
:1041900087709927892B11F0330C0EC0ED81FE81B9
:1041A000F7FD379683E0F595E7958A95E1F7EC0DF5
:1041B000FD1DE80DF91D349037FE0CC021E030E004
:1041C0004B815C816D817E81640D751D82E396E07B
:1041D0000E94780D8D819E8101969E838D83D1CF23
:1041E000FFEFEF1AFF0A29813A81C20ED31EBFCF1B
:1041F00026960FB6F894DEBF0FBECDBFDF91CF91EC
:104200001F910F91FF90EF90DF90CF90BF90AF90F4
:104210009F908F907F906F905F904F903F90089508
:10422000DC01CB0163E0880F991FAA1FBB1F6A95B1
:10423000D1F7009721E0A207B10514F421E00DC0E9
:1042400053E0B595A795979587955A95D1F700971F
:1042500021E0A207B10524F422E02093740531C0C7
:1042600043E0B595A795979587954A95D1F700971F
:1042700021E0A207B10514F423E0EFCF32E0B595B9
:10428000A795979587953A95D1F7009721E0A207D2
:10429000B10514F424E0E1CF22E0B595A7959795F8
:1042A00087952A95D1F7009721E0A207B10514F46C
:1042B00025E0D3CF85E0809374058FEF9FEFA0E0DA
:1042C000B0E090937305809372059093970080936C
:1042D000960080919100887F809391009091910049
:1042E00080917405892B809391000895CF93DF937B
:1042F000FC01448155816081718182E396E00E94D6
:10430000E82DEC0182E396E00E94652E8C0F9D1F44
:10431000DF91CF910895EF92FF920F931F93CF9368
:10432000DF93EC01E0917B05F0917C050190F08139
:10433000E02D6AEA8BE795E01995E0917B05F09115
:104340007C050190F081E02D65E58BE795E01995FE
:104350008E010E5F1F4FCE010796F80120E03191CC
:104360002327E817F907D9F78C8190E0982F882741
:104370003B81832B40E050E04817590749F0E88122
:10438000F981E40FF51F308123274F5F5F4FF4CF92
:104390002F837E0188E0E80EF11CF80161918F0106
:1043A000E0917B05F0917C050190F081E02D8BE799
:1043B00095E019950E151F0581F74C8150E0542F9B
:1043C00044278B81482B4115510561F06881798123
:1043D0008BE795E0DF91CF911F910F91FF90EF90C8
:1043E0000C94E82DDF91CF911F910F91FF90EF90EA
:1043F0000895CF93DF93EC016E857F858889998935
:1044000041E00E94D012882341F08A8920E2829FF5
:10441000C00111248E589C4F02C080E090E0DF91D3
:10442000CF9108958F929F92AF92BF92CF92DF92D9
:10443000EF92FF920F931F93CF93DF9300D01F92C1
:10444000CDB7DEB7FC018581813079F5948191FF8C
:104450002CC04389548965897689452B462B472B87
:1044600009F45CC07F0140E050E0BA01CF010E9436
:10447000F5158823D1F0F7018788908CA18CB28C38
:10448000C38CD48C82E090E0A0E0B0E0F6018083A1
:104490009183A283B3839E012F5F3F4FB501A40197
:1044A000C6010E94CC14811102C080E037C000E038
:1044B00010E09801B501A401C6010E942D148823C3
:1044C000A1F389809A80AB80BC80F6018789803116
:1044D00029F088EF9FEFAFEFBFE004C088EF9FEFB8
:1044E000A0E0B0E088169906AA06BB06A0F2F70184
:1044F000178A108E118E128E138A148A158A168AC4
:10450000848180688483C7010E94C915882369F269
:1045100040E050E0BA01C7010E94F5150F900F90DE
:104520000F900F90DF91CF911F910F91FF90EF901F
:10453000DF90CF90BF90AF909F908F9008954F9253
:104540005F926F927F928F929F92AF92BF92CF9223
:10455000DF92EF92FF920F931F93CF93DF93CDB72C
:10456000DEB7C754D1090FB6F894DEBF0FBECDBF7A
:104570005C014B013A0119A218A286E292E09F8FDA
:104580008E8F1BA21C821B829A8389831E827B01D1
:1045900000E010E06E018EE1C80ED11C552453944A
:1045A000F501E00FF11F80818F3211F40F5F1F4F73
:1045B000FE01FB9680E090E0D501A00FB11F2C9189
:1045C0002F3249F0222339F001960F5F1F4F2193BC
:1045D0008C30910589F7EBE3F0E0EC0FFD1FE80F5D
:1045E000F91F1082F501E00FF11F80818F3211F465
:1045F0000F5F1F4FF501E00FF11F442443948081AA
:10460000811101C0412C20E030E0442D4525BE0140
:10461000655C7F4FC701F3011995811107C0E8144C
:10462000F90411F0C701B0D180E024C04420A9F002
:1046300021E0AE01455C5F4FB701C60127D3482E8C
:10464000E814F90489F0C7019FD1442069F39E2D35
:104650008F2D7601C92ED82EA3CFE814F90411F0BE
:10466000C70192D181E006C08823F1F2FE013196A4
:104670007F01EDCFC95BDF4F0FB6F894DEBF0FBEF1
:10468000CDBFDF91CF911F910F91FF90EF90DF9001
:10469000CF90BF90AF909F908F907F906F905F90E2
:1046A0004F900895FC0180819181009711F00C9446
:1046B000B13A60E070E0CB0108950F931F93CF9360
:1046C000DF93EC0188819981009729F02A813B8151
:1046D0002617370788F48B016F5F7F4F0E946C3974
:1046E000009761F0998388831B830A832C813D8125
:1046F000232B11F4FC01108281E001C080E0DF91E6
:10470000CF911F910F910895CF93DF93EC01888192
:104710009981009711F00E94D438198218821D8265
:104720001C821B821A82DF91CF910895EF92FF9233
:104730000F931F93CF93DF93EC017B0161157105FC
:10474000D9F0CB010E94DE3A0097C1F02C813D8167
:104750008C01020F131FB801CE01AFDF882361F077
:10476000288139818C819D81B701820F931F0E941E
:10477000D73A1D830C8302C0CE01C6DFCE01DF9184
:10478000CF911F910F91FF90EF900895EF92FF92BC
:104790000F931F93CF93DF93EC017B018A01BA0142
:1047A0008CDF811103C0CE01AFDF07C01D830C83F6
:1047B000B701888199810E947C3ACE01DF91CF9127
:1047C0001F910F91FF90EF900895CF93DF93EC012D
:1047D0006115710551F0FB0101900020E9F7319757
:1047E000AF01461B570BD2DF01C08EDFCE01DF9138
:1047F000CF910895FC01808191810C94D438FC0103
:10480000668708951F93CF93DF93EC0180E2689F42
:10481000F00111249F012E583C4FD9011B969C9109
:10482000917129F0842F827411F080E057C0142F09
:104830006A8B8091040290910502A0910602B091CA
:1048400007028E879F87A88BB98BEE58FC4F44894F
:10485000558960E070E0BA01552744274F8B588F87
:10486000698F7A8F828D938DA0E0B0E0482B592B11
:104870006A2B7B2B4F8B588F698F7A8FD9011B96B0
:104880008C91887151F4848D958DA68DB78D8B8B0D
:104890009C8BAD8BBE8B81E00DC0803131F69E01CB
:1048A0002D5E3F4F8B8D9C8D0E944F15882309F400
:1048B000BCCF84E08D83812F8F708C831E821F82FA
:1048C000188619861A861B861C861D8616FF05C04B
:1048D000CE01DF91CF911F91A5CD81E0DF91CF91E6
:1048E0001F9108959B01BC01635D7F4F41E75CE22E
:1048F000C90125CE9B01BC01635D7F4F48EA5CE2A4
:10490000C9011DCE9B01BC01635D7F4F4AE15DE2A1
:10491000C90115CE9B01BC01635D7F4F45ED59E296
:10492000C9010DCE1F93CF93DF93FC012581223067
:1049300018F480E090E024C0EC0142855385648542
:10494000758585E076956795579547958A95D1F752
:10495000142F1F70CF010E948D1997FDEACF8A8511
:104960009B85AC85BD854F96A11DB11D8A879B8710
:10497000AC87BD87F0E21F9FC00111248E589C4F69
:10498000DF91CF911F910895CF93DF93EC010E94A7
:10499000C915882311F01D8281E0DF91CF91089520
:1049A0003F924F925F926F927F928F929F92AF92BF
:1049B000BF92CF92DF92EF92FF920F931F93CF930C
:1049C000DF93CDB7DEB72C970FB6F894DEBF0FBEDE
:1049D000CDBF5C01DC015B968D909C905C97169638
:1049E000CD90DD90ED90FC901997C114D104E104B5
:1049F000F10439F0BFEFCB1ADB0AEB0AFB0A312CCA
:104A000007C0F401C080D180E280F3803324339466
:104A1000F40181859285A385B4859C01AD012F5F4A
:104A20003F4F4F4F5F4F29873A874B875C8726015F
:104A300037011D821E821F821886F40181859285AE
:104A4000A385B4852D813E814F815885281739076C
:104A50004A075B0708F063C089859A85AB85BC85EA
:104A60008C159D05AE05BF0550F482E0C82ED12CF3
:104A7000E12CF12C92E0492E512C612C712C9E01DD
:104A80002F5F3F4FB701A601C4010E94CC148823B9
:104A900009F445C089819A81AB81BC81892B8A2B1D
:104AA0008B2B41F0260137019FEF491A590A690AF9
:104AB000790A05C0C414D504E604F70491F02D81E9
:104AC0003E814F8158852F5F3F4F4F4F5F4F2D8362
:104AD0003E834F8358873FEFC31AD30AE30AF30A92
:104AE000ACCF0FEF1FEF2FEF3FE0B301A201C401E6
:104AF0000E942D14882399F0D50116964D915D9151
:104B00006D917C911997411551056105710549F029
:104B100093018201C4010E942D14811102C080E022
:104B20002AC0D50116964D925D926D927C9219978E
:104B3000332051F0D301C2010196A11DB11DF40132
:104B400080839183A283B383F5018789908DA18DA2
:104B5000B28D892B8A2B8B2B69F4D50157964D92F8
:104B60005D926D927C925A9714968C9114978068FE
:104B700014968C9381E02C960FB6F894DEBF0FBE8E
:104B8000CDBFDF91CF911F910F91FF90EF90DF90FC
:104B9000CF90BF90AF909F908F907F906F905F90DD
:104BA0004F903F900895CF92DF92EF92FF921F9324
:104BB000CF93DF93EC01F4DE811102C080E05EC090
:104BC000EB8DFC8DCE80DF80E884F98482E0C81A0A
:104BD000D108E108F108058404C0CC0CDD1CEE1CF2
:104BE000FF1C0A94D2F786859785A089B189C80EE3
:104BF000D91EEA1EFB1E148181E0C81AD108E10803
:104C0000F108112301F10E9493128823B9F2E2E71F
:104C1000F3E0119285E0E237F807D9F7D701C60132
:104C2000810F911DA11DB11D809304029093050277
:104C3000A0930602B09307028091D5028160809311
:104C4000D5021150DECFEB8DFC8D80E092E0A0E02C
:104C5000B0E0058404C0880F991FAA1FBB1F0A94E7
:104C6000D2F74B895C896D897E89840F951FA61FB9
:104C7000B71F8B8B9C8BAD8BBE8B81E0DF91CF916F
:104C80001F91FF90EF90DF90CF9008956F927F92E9
:104C90008F929F92AF92BF92CF92DF92EF92FF924C
:104CA0000F931F93CF93DF93CDB7DEB72C970FB63B
:104CB000F894DEBF0FBECDBF8C01FC017580711072
:104CC000DCC0CE0101966C01FC0190E28BE08C0D02
:104CD00091938E13FDCFDA0130E087E09D91992307
:104CE00039F19E3219F0EFEAFCE00AC08A3009F48B
:104CF000CDC038E08AE0F2CF3196491709F4C6C03A
:104D000044914111F9CF831708F4C0C04FED490F0A
:104D10004E3508F0BBC041E0430FF601E30FF11D33
:104D20003FE9390F3A3108F490529083342FD6CFAF
:104D30008981803209F4AAC0622E7B01FB01838D38
:104D4000948DF801948F838FFB0116821782108651
:104D50001186128613861486158630E0F701828448
:104D60009384A484B58483899489A589B689881697
:104D70009906AA06BB0608F041C0D501C40125E08A
:104D8000B695A795979587952A95D1F7F82FFF7037
:104D90008F2EC7013C87C6DD3C85009709F476C09D
:104DA000FC012081222309F46CC0253E91F04BE0E8
:104DB00050E0BC01C6013C870E94543A3C85892BD7
:104DC00069F6862D8073803309F460C0462D682D06
:104DD00050C0311154C0F801828A409104025091B0
:104DE0000502609106027091070246875787608B23
:104DF000718BFC01808131E08111B0CF862D8271F1
:104E0000823109F043C0332331F0C801F2DABC012A
:104E1000892B69F43BC0F70185818230B9F1C70164
:104E2000C2DE882399F1F801128A62E773E080E21A
:104E3000FB0111928A95E9F78BE0F601DB01019005
:104E40000D928A95E1F781E298E2FB01918B808BCC
:104E500020E038E037872687938B828B918F808F75
:104E6000378B268B0E949312882381F0462DF80100
:104E70006289C801C7DC782E09C0712C07C031E0F7
:104E80006DCF332309F4A7CF31E0B8CF872D2C960F
:104E90000FB6F894DEBF0FBECDBFDF91CF911F914B
:104EA0000F91FF90EF90DF90CF90BF90AF909F90C9
:104EB0008F907F906F90089561E0FC0184810C9445
:104EC00063118091C6068F3F11F40C94B70EF894CD
:104ED000E091C406F091C50690818091C306892BAC
:104EE000808328E080E0E091C106F091C206308125
:104EF0009091C006392B3083880FA091BE06B091E7
:104F0000BF064C913091BD06342309F08160308199
:104F100090959323908300000000215021F778940E
:104F200008950F931F93CF93DF93EB010E942B12F1
:104F30008B01C7DF8F3F49F00E942B12601B710B62
:104F40006C177D07B0F380E001C081E0DF91CF9165
:104F50001F910F910895CF93DF93EC018E818823E9
:104F600079F08F8198859C012F5F3F4F38872F8381
:104F70008230924010F4A5DFF4CFCE019DDF1E8277
:104F8000DF91CF9108959091C6069F3F11F40C9444
:104F9000B70EF89438E0E091C106F091C206908116
:104FA0002091C006422F409594239083A091C4067F
:104FB000B091C5069091C3064C9187FF02C0942B17
:104FC00002C0909594239C939081292B2083880F75
:104FD000315009F70000000000000000E091C10618
:104FE000F091C20690818091C006809589238083CC
:104FF00078940895CF92DF92FF920F931F93CF93EF
:10500000DF9300D01F92CDB7DEB76C01F62E298357
:105010003A834B835C839FDF60E0F60184810E94CA
:1050200063116CE271E0C6017CDF8F2D8064ABDF21
:1050300008E110E05C814B813A812981DA01C901E4
:10504000002E04C0B695A795979587950A94D2F738
:1050500029833A834B835C8396DF085011092981A9
:105060003A814B815C81083FFFEF1F0739F7FF2032
:1050700029F088E0F81204C087E803C085E901C080
:105080008FEF81DF10E01DDFF601828787FF04C00C
:105090001F3F11F01F5FF7CF0F900F900F900F90F1
:1050A000DF91CF911F910F91FF90DF90CF900895E6
:1050B000AF92BF92CF92DF92EF92FF920F931F9326
:1050C000CF93DF93EC016901C801820F931F8130F8
:1050D000924008F06AC08E81882371F0888199819E
:1050E000AA81BB81481759076A077B0729F48F817A
:1050F0009885C816D90698F5488359836A837B83B7
:105100008B85833039F089E0440F551F661F771F68
:105110008A95D1F79A01AB0161E1CE016BDF88235B
:1051200019F083E08D8341C00E942B125B01C9DE20
:105130008A878F3F49F40E942B126A197B096D32CE
:105140007140A8F38FE003C08E3F29F08DE08D837E
:10515000CE01B2DE2AC018861F8281E08E838F8145
:1051600098858C159D0538F4ACDE8F819885019665
:1051700098878F83F4CF6701E00EF11ECE14DF0411
:1051800029F09FDEF60181936F01F8CF8F8198851A
:10519000080F191F18870F838985882319F00115B7
:1051A000124038F0CE01D7DE04C0CE0185DE80E0AB
:1051B00001C081E0DF91CF911F910F91FF90EF909F
:1051C000DF90CF90BF90AF900895CF92DF92EF9293
:1051D000FF920F931F93CF93DF93EC018901411549
:1051E00051056105710511F482E15FC08B85833043
:1051F00039F0E9E0440F551F661F771FEA95D1F794
:105200009A01AB0168E1CE01F5DE882311F084E05C
:105210004CC08C8598013E5F7901882329F1F80103
:10522000C12CD12C419150E0BA016D25AB0194E025
:10523000559547959A95E1F746275727DC2CCC24BE
:10524000C426D526CA01982F88279295907FC82614
:10525000D92665E0440F551F6A95E1F7C426D52687
:10526000EE15FF05F9F603C0CC24CA94DC2C8EEFB2
:105270008ADEF80181918F0186DE0E151F05C9F7C0
:105280008D2D81DE8C2D7FDE1CDE8A878F7185302F
:1052900029F081E18D83CE010FDE08C068E572E060
:1052A000CE013FDE811106C085E18D83CE0104DE93
:1052B00080E010C020E030E0A9016DE0CE019ADE70
:1052C000811103C0FEDD882311F084E1EECFCE0111
:1052D000F3DD81E0DF91CF911F910F91FF90EF906F
:1052E000DF90CF9008959CB5282F23709C7F922B40
:1052F0009CBD2DB582FB992790F9822F8E7F892B3B
:105300008DBD0895FC01DB0112968D919C91139740
:105310009383828386E292E09183808314968C91BA
:105320001497848315968C911597858316964D91C5
:105330005D916D917C911997468357836087718742
:105340001A964D915D916D917C911D97428753877F
:10535000648775871E964D915D916D917C915197F3
:1053600046875787608B718B52968C915297828BB0
:1053700053964D915D916D917C915697438B548BD3
:10538000658B768B57964D915D916D917C915A9777
:10539000478B508F618F728F5B968D919C915C973C
:1053A000948F838F08958D96EFCA1F93CF93DF93C9
:1053B000CDB7DEB76D970FB6F894DEBF0FBECDBF89
:1053C000AB011C821B8226E232E03A8329831E82D3
:1053D00021E0BC01CE01019659DC11E0811102C02F
:1053E00010E003C0CE010196CFDA812F6D960FB683
:1053F000F894DEBF0FBECDBFDF91CF911F9108950E
:105400002F923F924F925F926F927F928F929F92D4
:10541000AF92BF92CF92DF92EF92FF920F931F93C2
:10542000CF93DF93CDB7DEB7C956D1090FB6F89445
:10543000DEBF0FBECDBF5C014A01A6962FAFA69777
:10544000CB018D96A8969FAF8EAFA8973E019EE1A7
:10545000690E711CA8966EAD7FADA897C30152DF8F
:105460001C821B8286E292E09A8389831E827401E9
:10547000FE0131966F0113012F016FE270E0C70149
:105480000E94713A0097D9F1F70120812F3221F45F
:10549000FFEFEF1AFF0AF1CF8E198D3008F08CE084
:1054A000082F10E0A801B701CE01885A9F4F0E9433
:1054B000833AE8E5F0E0EC0FFD1FE00FF11F1082EA
:1054C000C60162DA21E0AE01485A5F4FB101C60160
:1054D000DDDB81110AC01EAE1DAE86E292E09CAFFC
:1054E0008BAF21961FAE219715C0E00EF11EC101B2
:1054F0004BDA922D832D1601C92ED82EBECFC701AF
:1055000088199909AA969FAF8EAFAA97B101CE01CB
:10551000CB96F8DEAA96EEADFFADAA978E0E9F1E33
:10552000F4018081811109C0BE01655C7F4FC20119
:10553000E9DE4EEA52E0B2014AC01C821B8286E2DA
:1055400092E09A8389831E8221968FAD21978111E3
:1055500013C0F5011382128288EE93E0A0E0B0E060
:1055600084839583A683B78382EA92E091838083C4
:10557000128E118E14862EC08250A6962FADA6973D
:10558000A401823048F4A8966EAD7FADA897C20101
:105590007DDB81110BC0DDCFBE01655C7F4FC20199
:1055A00075DB8823B1F2CE01CB96EED9A6968FADEE
:1055B000A697867039F04C895D896E897F89C20112
:1055C0000E94F515B201C3019DDEA401B301C5011E
:1055D0000E945819C501C759DF4F0FB6F894DEBFB6
:1055E0000FBECDBFDF91CF911F910F91FF90EF9034
:1055F000DF90CF90BF90AF909F908F907F906F90F3
:105600005F904F903F902F9008958F929F92AF920E
:10561000BF92CF92DF92EF92FF920F931F93CF939F
:10562000DF93EC01B42E122F7C0182E0E80EF11C16
:105630001D861B8618861F821E866E834093C806B1
:105640002093C7060093C6060E942B126B0161E0EF
:105650008E810E949211C7012FDC0F3F09F45AC0BE
:1056600060E0812F0E94921161E08B2D0E949211C7
:1056700061E08091C6060E9492112091C606022E1A
:10568000000C330BF901E65CF94FE491F0E0EE0F0A
:10569000FF1FEC5DFE4F859194919093C20680931D
:1056A000C106F901E058F94FE491E093C0064B2D93
:1056B000BB0C550BFA01E65CF94F9491E92FF0E031
:1056C000EE0FFF1FEC5DFE4F859194919093C50600
:1056D0008093C406FA01E058F94F44914093C30601
:1056E000212F110F330BF901E65CF94FE491F0E043
:1056F000EE0FFF1FE05EF94F859194919093BF06E6
:105700008093BE06F901E058F94F24912093BD061D
:105710001AE005C00E94811283E0E5DDF9CF8FEF2A
:1057200032DC1150E1F760E08E810E94631120E0CD
:1057300030E0A90160E0C7015DDC182F8C87813063
:1057400049F00E942B126C197D09613D774078F376
:1057500081E045C02AEA31E040E050E068E0C7015E
:1057600049DC82FF02C01D870BC014E0AADB8C87D6
:105770001150E1F78A3A11F082E031C082E08D8762
:105780008D85823021F0812C912C540105C0812C13
:10579000912CA12C90E4B92E20E030E0A90167E320
:1057A000C70128DCA501940169E2C70123DC8C87CD
:1057B000882349F00E942B126C197D09613D7740C6
:1057C00058F388E00CC08D858230B1F420E030E0E1
:1057D000A9016AE3C7010EDC882329F086E08F83E4
:1057E000C7016ADB70C06DDB807C803C11F483E014
:1057F0008D8767DB66DB65DBC7015EDB8091C606F4
:105800008F3F11F480E06FDD6E018FE0C80ED11C78
:1058100041E0B701C6010E941813811108C040E0A1
:10582000B701C6010E941813882309F44CC08AA945
:10583000811149C08EA18031D1F482E08AABFE0192
:10584000EC5BFF4F10821182128213824FA158A588
:10585000349760E070E085E0440F551F661F771FA6
:105860008A95D1F7408351836283738317C0803256
:1058700051F583E08AAB49A55AA56BA57CA5FE012D
:10588000EC5BFF4F40835183628373839E01205CF6
:105890003F4FC6010E944F158823A9F0FE01E85B27
:1058A000FF4FD182C08281E089AB1BAA1CAA1DAA2E
:1058B0001EAA1FAA18AE19AE1AAE1BAE1CAE1DAEA4
:1058C0001EAE1FAE01C080E0DF91CF911F910F91FE
:1058D000FF90EF90DF90CF90BF90AF909F908F9010
:1058E0000895CF93DF93CDB7DEB76D970FB6F894D9
:1058F000DEBF0FBECDBF442309F1AB01BC011C824A
:105900001B8286E292E09A8389831E8222E0CE0186
:105910000196BCD9811102C090E00BC0CE01019666
:105920000E9412228823C1F3CE0101960E94B7156E
:10593000982F81E0911103C080E001C081E06D9655
:105940000FB6F894DEBF0FBECDBFDF91CF910895A3
:10595000CF93DF93CDB7DEB76D970FB6F894DEBF68
:105960000FBECDBF442309F453C0AB01BC011C8260
:105970001B8286E292E09A8389831E8221E0CE0117
:10598000019684D9882309F441C08E81843011F0B6
:1059900090E039C01F82188619861A861B861C86DD
:1059A0001D861E864B855C856D857E858C899D89CF
:1059B000AE89BF89481759076A077B0750F4CE01A3
:1059C00001960E949224009719F3FC012081211175
:1059D00011C081E08E838D8182608D83CE0101961E
:1059E0000E9412228823A1F2CE0101960E94B715CF
:1059F000982F09C0253EB1F22E32A1F2FC01838519
:105A000083FDD0CFC5CF81E0911103C080E001C0FC
:105A100081E06D960FB6F894DEBF0FBECDBFDF916B
:105A2000CF910895FC01818D928D009711F00C9417
:105A3000C91508956F927F928F929F92BF92CF92D5
:105A4000DF92EF92FF920F931F93CF93DF93CDB727
:105A5000DEB7ED970FB6F894DEBF0FBECDBF8C0159
:105A60007B011CA21BA286E292E09AA389A31EA23C
:105A7000C8019BDC811198C023E3A701B801CE01C6
:105A8000819604D98823A9F081E08DA384E08EA3B8
:105A9000CE01819688D8882361F0CE0181960E943C
:105AA000C915882331F0CE0181960E94F921009713
:105AB00011F490E075C020E1FC01238720E2DE01B3
:105AC000119601900D922A95E1F7FC01C488D588C2
:105AD000E28CF38CFE013296CE010C9620E22193EB
