:100000000DC300003CC300003AC3000038C3000029
:1000100036C3000034C3000032C3000030C3000008
:100020002EC300002CC300002AC3000028C3000018
:1000300026C3000024C3000022C3000020C3000028
:100040001EC300001CC300001AC3000018C3000038
:1000500016C3000014C3000012C300000C94E40D8A
:100060000EC300000C940D0B0C94E40A08C30000AE
:1000700006C3000004C3000002C3000000C3000068
:10008000FEC20000FCC20000FAC20000F8C200007C
:10009000F6C20000F4C20000F2C200000C942E0E62
:1000A000EEC20000ECC20000EAC20000E8C200009C
:1000B000E6C20000E4C20000E2C20000E0C20000AC
:1000C000DEC20000DCC20000DAC20000D8C20000BC
:1000D000D6C20000D4C20000D2C20000D0C20000CC
:1000E000CEC20000FB0CFE0CED0CF10CF70C350D34
:1000F000020D060D0C0D100D140D1A0D1E0D220D06
:10010000350D280D2C0D300D4A114F1154115E1173
:100110006811E11172117A1182118C119611A011DE
:10012000AF11B911E111C311CD11D7114E414E4993
:100130004E495459494E46CDCCCC3D0AD7233C17A5
:10014000B7D13877CC2B329595E6241FB14F0A00F2
:100150000020410000C84200401C4620BCBE4CCAE2
:100160001B0E5AAEC59D7400407A10F35A00A0725F
:100170004E18090010A5D4E80000E87648170000E2
:10018000E40B54020000CA9A3B000000E1F50500B0
:100190000080969800000040420F000000A08601F9
:1001A000000000102700000000E8030000000064C9
:1001B00000000000000A0000000000010000000034
:1001C000002C76D888DC674F0823DFC1DFAE59E109
:1001D000B1B796E5E3E453C63AE651997696E8E678
:1001E000C28426EB898C9B62ED407C6FFCEFBC9C4B
:1001F0009F40F2BAA56FA5F490055A2AF75C936B5D
:100200006CF9676DC11BFCE0E40D47FEF520E6B517
:1002100000D0ED902E0300943577050080841E08F1
:100220000000204E0A000000C80C333333330F980F
:100230006E12831141EF8D2114893BE65516CFFED6
:10024000E6DB18D1844B381BF77C1D901DA4BBE462
:1002500024203284725E228100C9F124ECA1E53DA4
:10026000270D0A006F6666736574203D20002C2000
:10027000002C204761696E203D20004368203D200E
:100280000043616C6962726174696E6720666F72A7
:1002900020494E4C0D0A000D0A5265737461727448
:1002A0002074686520506879734C6F6767657220A9
:1002B000666F7220746865206368616E676573207D
:1002C000746F2074616B65206566666563742E00CB
:1002D0000D0A43616C6962726174696F6E206861B6
:1002E000732066696E6973686564207375636365FE
:1002F000737366756C6C792E000D0A43616C6962CC
:10030000726174696F6E20686173206661696C65E3
:10031000642E00207365656D7320746F2062652004
:10032000686176696E6720686172647761726520C2
:1003300070726F626C656D73000D0A4368616E6E5A
:10034000656C20000D0A43616C6962726174696FAB
:100350006E2070696E207365656D7320746F206206
:100360006520686176696E67206861726477617282
:1003700065206973737565732E000D0A002C204982
:100380004E4C203D20005D203E20444E4C203D2020
:10039000005D5B00635B000A0A536176656420447C
:1003A0006174613A000D0A000D0A0043616C6962D4
:1003B000726174696F6E2068617320626567756E23
:1003C0002E0D0A00004B696E646C792072656D6FAA
:1003D00076652074686520444D4D20616E64207000
:1003E0007265737320616E79206B657920746F205C
:1003F000636F6E74696E75652E2E2E000D0A54683B
:10040000652076616C7565207365656D7320777204
:100410006F6E672E204B696E646C79206D65617319
:1004200075726520616761696E0D0A003A20456E3C
:1004300074657220766F6C746167652061742063E7
:10044000616C6962726174696F6E2070696E2028D8
:1004500056293A20003A20456E74657220766F6CFA
:10046000746167652061742063616C696272617494
:10047000696F6E2070696E20286D56293A20002021
:10048000636F6E6E656374656420696E2063616C72
:100490006962726174696F6E206D6F64650D0A0028
:1004A000506879734C6F676765722076312E320021
:1004B0007665723D00506879734C6F67676572317D
:1004C0005F32002C2063203D20002C206D203D2039
:1004D000002C2056204170706C696564203D20001E
:1004E0002C2050574D203D20002C204761696E2064
:1004F0003D20004368203D2000000020002300260E
:100500000029002C002F003200000100000301062A
:10051000010901050505050705080808080202028A
:10052000020A0A080804040404010101010101018E
:10053000010303030303030303040707070C0C0C65
:100540000C0C0C0C0C02020202060606060606063D
:10055000060B0B0B0B0B0B0B0B01021020200808DA
:100560001020401020408002010201080402010115
:1005700002040810204080804020100804020180FE
:100580000402018040201008040201080402010155
:10059000020408102040800102040810204080005E
:1005A000002100240027002A002D00300033000124
:1005B000010000040107010A0100002200250028B3
:1005C000002B002E0031003400020100000501085C
:1005D000010B0100000A0B02090C0D0E08070304B1
:1005E000010000000000000000000000000000000A
:1005F00000000000000000000000000000000012E9
:1006000011100000000000000000000000000000C9
:10061000000000000000000000006C1B11241FBE41
:10062000CFEFD1E2DEBFCDBF00E00CBF12E0A0E013
:10063000B2E0EEEBF0E500E00BBF02C007900D92D8
:10064000AA3DB107D9F725E0AAEDB2E001C01D929D
:10065000A736B207E1F713E0CEE0D3E000E006C032
:1006600021970109802FFE010E944026CD30D1073D
:1006700080E00807A9F70E94A9150C945D28C0CC5A
:100680000F931F93CF93DF9311E007E08091420314
:1006900090914303089FE001099FD00D1124CD5094
:1006A000DB4F188361E0CE010E94C60F811106C0A6
:1006B000EC81FD8110821A82188226C0CE010E9430
:1006C000980FEC81FD81808181508E3FE8F4188382
:1006D00080818A8362E0CE010E94C60FCE010E9413
:1006E000980FEC81FD818081898363E0CE010E94B7
:1006F000C60F809142039091430301969093430368
:1007000080934203069724F41F5F103809F0BECF90
:10071000DF91CF911F910F910895FA0193E0899F86
:10072000E00DF11D112470E0E60FF71F908195FF99
:1007300004C090917B00986003C090917B00977FEC
:1007400090937B0090819F71906C90937C0090912E
:100750007A00906890937A0090917A0090649093D8
:100760007A0090917A0096FDFCCF909178004091AC
:10077000790020917A002F7720937A00292F30E09A
:100780008430D8F4942F9170B92FA0E02A2B3B2B02
:1007900041FD325090E0AC01440F551F840F951F6E
:1007A00087569D4FFC01E60FF71F8081882319F0C3
:1007B000319521953109C90108954370C901942BE0
:1007C0000895AF92BF92CF92DF92EF92FF920F9374
:1007D0001F93CF93DF93CDB7DEB7C057D1090FB6C4
:1007E000F894DEBF0FBECDBF65EB74E0CE018B5B2E
:1007F0009F4F0E947F1360EB74E0CE0101960E9430
:100800007F13BE016F5F7F4FCE0183960E94B513A9
:100810002B964EAD5FAD2B9727966EAD7FAD27978C
:10082000CE0183960E944013811104C0CE018396AD
:100830000E946D13BE016D5D7F4FCE0189599F4FA0
:100840000E94B513CE0183960E948B10CE010196B3
:100850000E948B10CE018B5B9F4F0E948B10A9963C
:100860004EAD5FADA997AC962FADAC9761E0CE01D0
:1008700001960E94720FCE0101960E949010309155
:100880006C0220916D0290916E0280916F02AE9683
:100890003FAFAE97AF962FAFAF97E0969FAFE09781
:1008A000E1968FAFE19724E0AE0143595F4F65E0D9
:1008B000CE0183960E94720FCE0183960E94901003
:1008C000CE018B5B9F4F0E94960F64E0CE018B5B45
:1008D0009F4F0E945F0F6BE0CE018B5B9F4F0E948A
:1008E000660F26961FAE269782EEA82E82E0B82EBF
:1008F00090E0C92E92E0D92E10E0E12CF12C00E01E
:1009000027961FAF279728960FAF2897F501EE0D72
:10091000FF1D308121819281838129963FAF2997E4
:100920002A962FAF2A972B969FAF2B972C968FAF97
:100930002C97F601EE0DFF1D30812181928183817C
:100940002D963FAF2D972E962FAF2E972F969FAFB8
:100950002F9760968FAF6097CE018B5B9F4F0E9461
:1009600090100F5F84E0E80EF11C033049F61F5F22
:100970008CE0A80EB11C8CE0C80ED11C183009F018
:10098000BCCFCE0189599F4F0E948B10C059DF4FB9
:100990000FB6F894DEBF0FBECDBFDF91CF911F9190
:1009A0000F91FF90EF90DF90CF90BF90AF900895A0
:1009B000CF93DF93CDB7DEB7CA56D1090FB6F894FF
:1009C000DEBF0FBECDBF0FB6F894A8958091600032
:1009D000886180936000109260000FBEF2DE80910B
:1009E000920290919302A09194026A968DAF9EAF6D
:1009F000AFAF6A9729961CAE1DAE1EAE1FAE2997EB
:100A00002D961CAE1DAE1EAE1FAE2D9761961CAE70
:100A10001DAE1EAE1FAE619760EA74E0CE01019676
:100A20000E947F1361E0CE0101960E94281DCE0135
:100A300001960E948B106FE774E0CE0101960E9430
:100A40007F1360E0CE0101960E94281DCE01019621
:100A50000E948B1000E010E0E7E5F0E0EC0FFD1FD6
:100A6000E00FF11F808190E00E94271102301105F4
:100A700009F046C063E070E0CE0101960E94681C58
:100A8000BE016F5F7F4FCE0183960E94B51365E56F
:100A900074E0CE0183960E94A21D811104C0CE0194
:100AA00083960E946D13BE016D5D7F4FCE018F5AFC
:100AB0009F4F0E94B513CE018F5A9F4F0E94FC1D7D
:100AC00020E030E04AE754E40E94A3256B017C015A
:100AD000CE018F5A9F4F0E948B10CE0183960E94A9
:100AE0008B10CE0101960E948B102FE632E143E07D
:100AF0005CE3C701B6010E94AF2387FD56C06CC0FE
:100B0000B8016F5F7F4FCE0101960E94681CBE0145
:100B10006F5F7F4FCE0183960E94B5136CE274E045
:100B2000CE0183960E94A21D811104C0CE0183963E
:100B30000E946D13BE016D5D7F4FCE018F5A9F4F96
:100B40000E94B513CE018F5A9F4F0E94FC1D6B016E
:100B50007C01CE018F5A9F4F0E948B10CE0183964D
:100B60000E948B10CE0101960E948B100115110579
:100B700079F420E030E040E450E4C701B6010E947F
:100B8000AF2387FD12C02AE939E949E850E428C0BB
:100B90000130110559F52AE939E949E95EE3C70150
:100BA000B6010E94AF2387FF12C06CEF73E0CE0145
:100BB00001960E947F1360E0CE0101960E94281DDD
:100BC000CE0101960E948B10015011091EC026EF24
:100BD00038E24CED5EE304C02FE832EC45EF5CE315
:100BE000C701B6010E943C261816FCF2F801EE0F70
:100BF000FF1FEE0FFF1F85E490E08C0F9D1FE80F95
:100C0000F91FC082D182E282F3820F5F1F4F03304F
:100C100011050CF421CF65EC73E0CE0101960E9422
:100C20007F1360E0CE0101960E94281DCE0101963F
:100C30000E948B1064EC73E0CE018F5A9F4F0E948C
:100C40007F1361E0CE018F5A9F4F0E94281DCE0175
:100C500083960E94960F67E0CE0183960E945F0FF5
:100C600061E0CE0183960E94660F82E08BA3CE01E5
:100C700083960E949010CE0101960E94960F8AE4FE
:100C800094E032D5892B11F4A895F9CF68EE73E082
:100C9000CE0101960E942B12843089F789A18770BA
:100CA000873069F7CE018F5A9F4F0E948B106BEAF5
:100CB00073E0CE0101960E947F1360E0CE010196A1
:100CC0000E94281DCE0101960E948B1010E0712C0D
:100CD0002E969FAD2E97A8969FAFA8972F96AFAD53
:100CE0002F97A996AFAFA9976096BFAD6097AA96C8
:100CF000BFAFAA976196EFAD6197AB96EFAFAB9799
:100D00002D968CAD9DADAEADBFAD2D97A0968CAFA1
:100D10009DAFAEAFBFAFA09729968CAD9DADAEADE8
:100D2000BFAD2997A4968CAF9DAFAEAFBFAFA497D0
:100D30006A969FAD6A97A5969FAFA5976996AFAD46
:100D40006997A696AFAFA6976896BFAD6897A79626
:100D5000BFAFA797EF93AA96EFADAA97EF93A99687
:100D6000FFADA997FF93A8962FADA8972F93A096B4
:100D70008CAC9DACAEACBFACA097A496CCACDDACBB
:100D8000EEACFFACA497A5960FADA597A6962FAD98
:100D9000A697A7964FADA797672D812F0E94121493
:100DA00068EA73E0CE0101960E947F1360E0CE01F5
:100DB00001960E94281DCE0101960E948B1073940B
:100DC0000F900F900F900F9083E0781281CF1F5FEC
:100DD000143009F07CCF61E872E0CE0101960E94E8
:100DE0007F1360E0CE0101960E94281DCE0101967E
:100DF0000E948B10A2EEB2E06C96BFAFAEAF6C97C4
:100E00005D01612C712C6501E12CF12CB8EE8B2E6B
:100E1000B3E09B2E212C312C210140E652E06E2DB7
:100E2000862D7BDCBC01990F880B990B0E94B523A2
:100E30009B01AC01C201B1010E943F251B012C01A5
:100E4000B1E08B1A910849F720E030E04AE754E41A
:100E50000E94A325E114F10459F0E1E0EE16F1043B
:100E600071F0212C312CA8E44A2EA3E45A2E0DC097
:100E7000212C312CF0E84F2EFFE35F2E06C0212CF1
:100E8000312CE0E24E2EE1E45E2E20E030E040E046
:100E90005BE30E9414242AE037ED43E250E40E9411
:100EA0001424A20191010E94A3251B012C01D6014B
:100EB0006D937D938D939D936D016BE772E0CE01F1
:100EC00001960E947F1361E0CE0101960E94281DC9
:100ED000CE0101960E948B10B301CE0101960E94B3
:100EE000681C60E0CE0101960E94281DCE0101968B
:100EF0000E948B1061E772E0CE0101960E947F1381
:100F000061E0CE0101960E94281DCE0101960E944B
:100F10008B10B701CE0101960E94681C60E0CE01E3
:100F200001960E94281DCE0101960E948B106EE64C
:100F300072E0CE0101960E947F1360E0CE0101961F
:100F40000E94281DCE0101960E948B1064E672E07B
:100F5000CE0101960E947F1361E0CE0101960E94AE
:100F6000281DCE0101960E948B10B201A101CE0175
:100F700001960E943A1C60E0CE0101960E94281D55
:100F8000CE0101960E948B1061E672E0CE010196BF
:100F90000E947F1360E0CE0101960E94281DCE01C1
:100FA00001960E948B10BFEFEB1AFB0AE3E0EE16EE
:100FB000F10409F02BCFFFEF6F1A7F0A2CE0A20E8D
:100FC000B11C84E06816710409F01DCF62E1662E41
:100FD00063E0762E230104E01201E12CF12C58EE9F
:100FE000C52E53E0D52E812C912C540140E652E0C1
:100FF0006E2D802F92DBBC01990F880B990B0E94FC
:10100000B5239B01AC01C501B4010E943F254B01F2
:101010005C0191E0C91AD10849F720E030E04AE7C5
:1010200054E4C501B4010E94A325E114F10459F070
:10103000A1E0EA16F10471F0812C912C48E4A42E71
:1010400043E4B42E0DC0812C912C30E8A32E3FE355
:10105000B32E06C0812C912C20E2A22E21E4B22EC8
:1010600020E030E040E05BE30E9414242AE037ED0A
:1010700043E250E40E941424A50194010E94A32598
:10108000F10161937193819391931F01FFEFEF1A27
:10109000FF0A23E0E216F10409F0A1CF0F5F8CE014
:1010A000480E511C083009F097CFE2EEF2E010AA8A
:1010B00011AA12AA13AA14AA15AA16AA17AA10AE40
:1010C00011AE12AE13AE3C966E167F0681F790E31A
:1010D000492E92E0592EAB969FADAB979F93AA965F
:1010E000AFADAA97AF93A996BFADA997BF93A896A6
:1010F000EFADA897EF93A0968CAC9DACAEACBFAC17
:10110000A097A496CCACDDACEEACFFACA497A596B2
:101110000FADA597A6962FADA697A7964FADA7970B
:1011200060E0812F0E94121465EA73E0CE010196FF
:101130000E947F1360E0CE0101960E94281DCE011F
:101140000196E9D70F900F900F900F9080E090E0FC
:10115000D3014D915D916D917C91F301E80FF91FE1
:101160004083518362837383F201408151816281A4
:101170007381E80FF91F4083518362837383049660
:101180008C30910529F71F5FFCE06F0E711C2CE07D
:10119000420E511C183009F09ECF60E070E080E0F4
:1011A00092E00E94921C60E670E082EE92E00E9463
:1011B000921C60E070E080E092E0E7D760E670E0CB
:1011C00082EE92E0E2D767E973E0CE0101960E94D9
:1011D0007F1360E0CE0101960E94281DCE0101968A
:1011E0009AD780E0882E82E0982E340100E010E04B
:1011F000A12CB12CE12CF12C64E973E0CE01019615
:101200000E947F1360E0CE0101960E94281DCE014E
:10121000019681D7B801CE0101960E94681C60E05A
:10122000CE0101960E94281DCE01019674D761E976
:1012300073E0CE0101960E947F1360E0CE0101961B
:101240000E94281DCE01019666D7B701CE010196F6
:101250000E94681C60E0CE0101960E94281DCE010C
:10126000019659D766E873E0CE0101960E947F137C
:1012700060E0CE0101960E94281DCE0101964BD759
:10128000F301EA0DFB1D4081518162817381CE0122
:1012900001960E943A1C60E0CE0101960E94281D32
:1012A000CE01019638D76DE773E0CE0101960E941A
:1012B0007F1360E0CE0101960E94281DCE010196A9
:1012C0002AD76C96EEADFFAD6C97EA0DFB1D408101
:1012D000518162817381CE0101960E943A1C60E0C7
:1012E000CE0101960E94281DCE01019614D76AE70F
:1012F00073E0CE0101960E947F1360E0CE0101965B
:101300000E94281DCE01019606D78FEFE81AF80A31
:1013100094E0A90EB11CA3E0EA16F10409F06CCF29
:101320000F5F1F4FBCE06B0E711C6C96EEADFFADF6
:101330006C973C966C96FFAFEEAF6C97083011053A
:1013400009F056CF8091950290919602A091970254
:10135000B09198028BA39CA3ADA3BEA300E010E0C4
:10136000E12CF12C6801F3E0CF22DD2483E290E050
:101370008C0F9D1FC80ED91EF401EE0DFF1D40807D
:101380005180628073802DEC3CEC4CE85FE3C3013C
:10139000B2010E943C26181654F026E636E646E6D0
:1013A0005FE3C301B2010E94AF2387FF02C0D601F1
:1013B0001C92B4E0EB0EF11CECE0EE16F104E1F649
:1013C0000F5F1F4FFCE08F0E911C0830110541F696
:1013D0007E0123E2E20EF11C9E01295D3F4FF701E1
:1013E00000E081E09191911102C001E001C080E034
:1013F0002E173F07B9F7882379F064E473E0CE0134
:1014000001960E947F1360E0CE0101960E94281D84
:10141000CE01019680D641C011E4D7018D917D01A6
:10142000811137C069E373E0CE0101960E947F13FA
:1014300060E0CE0101960E94281DCE0101966BD678
:101440001A8219821C821B821E821D8262961FAF25
:10145000629763961FAE6397BE016F5A7F4FCE01AE
:1014600001960E94D01D60E0CE0101960E94281DC9
:10147000CE01019650D663E173E0CE0101960E9441
:101480007F1360E0CE0101960E94281DCE010196D7
:1014900042D61F5F153409F0C0CF002319F069EF61
:1014A00072E002C060ED72E0CE0101960E947F13EF
:1014B00060E0CE0101960E94281DCE0101962BD638
:1014C00067E972E0CE0101960E947F1360E0CE01D1
:1014D00001960E94281DCE0101961DD6CE010196CF
:1014E00025D564E0CE010196EAD461E0CE010196F3
:1014F000EDD485E08983CE01019612D6CE01019606
:1015000015D564E0CE010196DAD461E0CE010196F2
:10151000DDD486E08983CE01019602D6FFCF8AE42E
:1015200094E0E2D021E0892B09F420E0822F089595
:10153000EF92FF920F931F93CF93DF93EC0181E023
:10154000888F9B8D8C8D981305C0E889F9898081DF
:1015500085FD25C0F62E0B8D10E00F5F1F4F0F731A
:101560001127E02E8C8DE8120BC00FB607FCFACFC6
:10157000E889F989808185FFF5CFCE01DED1F2CFF0
:101580008B8DFE01E80FF11DE35AFF4FF0829FB7EC
:10159000F8940B8FEA89FB89808180620AC09FB72B
:1015A000F894EE89FF896083E889F98980818370E6
:1015B000806480839FBF81E090E0DF91CF911F9195
:1015C0000F91FF90EF9008951F920F920FB60F9218
:1015D00011240BB60F922F933F934F935F936F930A
:1015E0007F938F939F93AF93BF93EF93FF938AE47F
:1015F00094E0A3D1FF91EF91BF91AF919F918F9113
:101600007F916F915F914F913F912F910F900BBE02
:101610000F900FBE0F901F9018951F920F920FB64C
:101620000F9211240BB60F922F938F939F93EF93EA
:10163000FF93E0915A04F0915B048081E091600493
:10164000F091610482FD12C09081809163048F5FEC
:101650008F7320916404821751F0E0916304F0E0ED
:10166000E65BFB4F958F8093630401C08081FF91FF
:10167000EF919F918F912F910F900BBE0F900FBE06
:101680000F901F901895FC01538D448D252F30E04D
:10169000842F90E0821B930B541710F0CF9608957F
:1016A00001970895FC01918D828D981761F0828DCC
:1016B000DF01A80FB11D5D968C91928D9F5F9F7386
:1016C000928F90E008958FEF9FEF0895FC01918D28
:1016D000828D981731F0828DE80FF11D858D90E095
:1016E00008958FEF9FEF0895FC01918D228D892F32
:1016F00090E0805C9F4F821B91098F73992708951A
:1017000080E090E0892B19F00ADF811125C080E08C
:1017100090E0892B41F080E090E0892B21F00E943D
:10172000000081111CC080E090E0892B41F080E036
:1017300090E0892B21F00E940000811113C080E00D
:1017400090E0892BA1F080E090E0892B81F00E944D
:10175000000081110AC008950E940000D8CF0E94A5
:101760000000E1CF0E940000EACF0C940000089531
:101770003FB7F8948091FF0390910004A091010479
:10178000B091020426B5A89B05C02F3F19F0019621
:10179000A11DB11D3FBFBA2FA92F982F8827820FF7
:1017A000911DA11DB11DBC01CD0142E0660F771F47
:1017B000881F991F4A95D1F7089585ED8093BC0045
:1017C0008091BC0084FDFCCF1092490408954091A3
:1017D000D703262F30E0240F311D21323105DCF4F0
:1017E000209149042430C9F4FC0180E090E0861780
:1017F00058F43091D7032191DC01A954BC4FA30FB9
:10180000B11D2C930196F3CF8091D703680F60939D
:10181000D70380E0089581E0089582E00895089557
:1018200008950895E091E1028091E002E81730F414
:10183000F0E0ED5FFB4F808190E008958FEF9FEF28
:1018400008959091E1028091E002981750F4E92FF9
:10185000F0E0ED5FFB4F208130E09F5F9093E1026D
:1018600002C02FEF3FEFC90108958091E00290E0A0
:101870002091E102821B91090895CF92DF92EF92AD
:10188000FF920F931F93CF93DF937C01CB018A01CB
:101890002091B603222389F0EB016B01C40ED51E03
:1018A000CC15DD0561F06991D701ED91FC910190B6
:1018B000F081E02DC7011995F3CF642F88DFC801AF
:1018C000DF91CF911F910F91FF90EF90DF90CF901C
:1018D0000895CF93DF931F92CDB7DEB76983209130
:1018E000B6032223D1F02091DE02203240F021E025
:1018F00030E0FC013383228380E090E014C08091CB
:10190000DF02E82FF0E0EA56FC4F998190838F5F69
:101910008093DF028093DE0204C061E0CE01019675
:1019200056DF81E090E00F90DF91CF910895089508
:1019300080E090E008950E944928FC01848DDF0139
:10194000A80FB11DA35ABF4F2C91848D90E0019632
:101950008F739927848FA689B7892C93A089B18921
:101960008C91837080648C93938D848D981306C0C2
:101970000288F389E02D80818F7D80830895CF9345
:10198000DF93EC01888D8823C1F0EA89FB8980818F
:1019900085FD05C0A889B9898C9186FD0EC00FB65A
:1019A00007FCF5CF808185FFF2CFA889B9898C919A
:1019B00085FFEDCFCE01C1DFE8CFDF91CF91089554
:1019C00090E0FC013197E231F10508F04EC0882724
:1019D000EE58FF4F8F4F0C944026809180008F77F8
:1019E00003C0809180008F7D809380000895809156
:1019F0008000877FF9CF84B58F7702C084B58F7D53
:101A000084BD08958091B0008F7703C08091B000AD
:101A10008F7D8093B0000895809190008F7707C0EC
:101A2000809190008F7D03C080919000877F80938C
:101A3000900008958091A0008F7707C08091A0004A
:101A40008F7D03C08091A000877F8093A0000895C0
:101A5000809120018F7707C0809120018F7D03C086
:101A600080912001877F8093200108951F93CF9359
:101A7000DF93282F30E0F901ED52FA4F8491F901FC
:101A8000E75AFA4FD491F901ED5EFA4FC491CC2395
:101A9000B9F0162F811194DFEC2FF0E0EE0FFF1F4D
:101AA000E754FA4FA591B4919FB7F894111104C06F
:101AB0008C91D095D82302C0EC91DE2BDC939FBF94
:101AC000DF91CF911F910895CF93DF9390E0FC01B8
:101AD000E75AFA4F2491FC01ED5EFA4F8491882376
:101AE00061F190E0880F991FFC01E156FA4FC59112
:101AF000D491FC01E754FA4FA591B491611109C04A
:101B00009FB7F8948881209582238883EC912E23B7
:101B10000BC0623061F49FB7F8948881322F309502
:101B200083238883EC912E2B2C939FBF06C08FB705
:101B3000F894E8812E2B28838FBFDF91CF910895F1
:101B40008F929F92AF92BF92CF92DF92EF92FF92CD
:101B50006B017C010DDE4B015C01C114D104E10479
:101B6000F104E9F005DEDC01CB0188199909AA0925
:101B7000BB09883E9340A105B10578F321E0C21A64
:101B8000D108E108F10888EE880E83E0981EA11CB8
:101B9000B11CC114D104E104F10421F7DECFFF90A0
:101BA000EF90DF90CF90BF90AF909F908F9008956F
:101BB0002FB7F8946091FB037091FC038091FD03B3
:101BC0009091FE032FBF08951F920F920FB60F92B0
:101BD00011242F933F938F939F93AF93BF93809143
:101BE000FB039091FC03A091FD03B091FE033091A3
:101BF000FA0323E0230F2D3720F40196A11DB11D18
:101C000005C026E8230F0296A11DB11D2093FA03FB
:101C10008093FB039093FC03A093FD03B093FE031A
:101C20008091FF0390910004A0910104B0910204FF
:101C30000196A11DB11D8093FF0390930004A09312
:101C40000104B0930204BF91AF919F918F913F9196
:101C50002F910F900FBE0F901F9018951F920F920B
:101C60000FB60F9211240BB60F922F933F934F9301
:101C70005F936F937F938F939F93AF93BF93EF93F4
:101C8000FF938091B900887F803609F49CC068F585
:101C9000883209F45BC090F4803109F454C038F400
:101CA000882309F4F6C0883009F44DC0F5C08831A6
:101CB00009F44CC0803209F45DC0EEC0803409F4F0
:101CC00068C048F4803309F455C0883309F0E4C093
:101CD00080934704D8C0803509F44FC0883509F493
:101CE0005DC0883409F0D8C0D6C0883909F4C7C0AF
:101CF000A8F4883709F467C038F4883609F463C05B
:101D0000803709F460C0C8C0883809F4B8C0803989
:101D100009F45FC0803809F0BFC05BC0803B09F4A4
:101D200086C038F4803A09F466C0883A09F47FC066
:101D3000B3C0803C09F4A7C0883C09F4A4C0883B28
:101D400009F48AC0A9C08091440410C0909146044F
:101D500080914504981770F5E091460481E08E0F5C
:101D600080934604F0E0ED5DFB4F80818093BB00E3
:101D700085EC86C0809347048EC0E091460481E0E4
:101D80008E0F809346048091BB00F0E0ED5DFB4F29
:101D9000808390914604809145046EC0E091460492
:101DA00081E08E0F809346048091BB00F0E0ED5DF2
:101DB000FB4F80838091480481116DC081E0809346
:101DC000430484EA61C083E0809349041092F903DC
:101DD000CFCF8091F903803208F051C0E091F90330
:101DE00081E08E0F8093F9038091BB00F0E0E75211
:101DF000FC4F8083BDCF85EC8093BC0010924904DA
:101E00008091F903803230F4E091F903F0E0E75279
:101E1000FC4F10826091F90370E0E091DA02F091DA
:101E2000DB0289ED93E019951092F90335C084E047
:101E3000809349041092D8031092D703E091DC02FA
:101E4000F091DD0219958091D703811105C081E0E1
:101E50008093D7031092B703E091D80381E08E0FEF
:101E60008093D803F0E0E954FC4F80818093BB005D
:101E70009091D8038091D703981708F479CF85E81B
:101E80008093BC0009C085EC8093BC00109249048B
:101E900003C01092470491DCFF91EF91BF91AF9185
:101EA0009F918F917F916F915F914F913F912F9172
:101EB0000F900BBE0F900FBE0F901F901895FC0156
:101EC00090A1987F6770692B60A30895FC01962FFD
:101ED00060A1262F277088E0989FB0011124622B03
:101EE00060A30895EF92FF921F93CF93DF93182F73
:101EF000D92F7A01C22FE3DF6C2F812F9D2FE6DFD0
:101F0000CC2371F02C2F30E0E12FFD2FD701CD0134
:101F10008E199F098217930718F48D918193F7CF3B
:101F2000DF91CF911F91FF90EF9008956DE0CECF9C
:101F3000EF92FF920F931F93CF93DF93FC01668183
:101F40006623E9F0613208F060E2EC01888141D259
:101F50001092E1028093E00200E010E08E8190E0B8
:101F60000817190764F4EC80FD80E00EF11E87EE7F
:101F700094E067DCF70180830F5F1F4FEFCFDF91A5
:101F8000CF911F910F91FF90EF9008950F931F93A2
:101F9000CF93DF93EC01062F188181E08093B60385
:101FA000109395031092DF021092DE0287EE94E008
:101FB00090DC9091DE02913208F045C08091490496
:101FC0008111FCCF82E08093490481E08093480432
:101FD0008FEF809347041092460490934504E6E9FE
:101FE000F3E0A3E2B4E080E0981721F021912D9373
:101FF0008F5FFACF1092440480914404110F182B84
:102000001093440480914304813061F4109243049E
:10201000809144048093BB008091BC0083FDF8CF85
:1020200085EC01C085EE8093BC008091490482302C
:10203000E1F3809147048F3F31F080914704803273
:1020400011F0809147041092DF021092DE0210928C
:10205000B6030B8361E08881BCD11092E1028093CA
:10206000E002882381F087EE94E0EBDB8E838C81A5
:102070009D810E94E0268E8190E00E9448269D83EB
:102080008C8381E001C080E0DF91CF911F910F919F
:1020900008950C94D324EF92FF920F931F93CF9344
:1020A000DF937C018C01C8ECD0E0CE010E94CB24F0
:1020B000F80181938F012196CC3CD105B1F7C7017E
:1020C000DF91CF911F910F91FF90EF900895DF92D4
:1020D000EF92FF920F931F93CF93DF937C018C01BC
:1020E000C8ECD0E0F801D1908F01CE010E94CB2442
:1020F000D81621F06D2DCE010E94D3242196CC3C20
:10210000D10581F7C701DF91CF911F910F91FF900A
:10211000EF90DF900895FC01808191810C94E0267E
:10212000CF93DF93EC016AEA8AE494E001DA68A1D4
:1021300085E58627FE01262F30E093E0359527952B
:102140009A95E1F72C0F3D1FE217F30719F09191D3
:102150008927FACF89A38AE494E0EAD969A18AE4BD
:1021600094E0E6D948A150E083E0559547958A95DB
:10217000E1F74115510531F0BE018AE494E0DF91A9
:10218000CF912DC2DF91CF9108952F923F924F9220
:102190005F926F927F928F929F92AF92BF92CF92F7
:1021A000DF92EF92FF920F931F93CF93DF9300D0B4
:1021B0001F92CDB7DEB71C0120E6220E311C8C0128
:1021C000CE0101965C012E0195E0490E511C3B01A8
:1021D0006A187B08601A710A6801ECE0CE0ED11C07
:1021E00075014801860C971CC4018E0D9F1D0E942D
:1021F000CB24F70181937F014E165F06A9F78981F1
:102200009A81AB81BC81F80181939193A193B193A1
:102210008F01CE16DF0621F78601C214D304E1F642
:102220000F900F900F900F90DF91CF911F910F9112
:10223000FF90EF90DF90CF90BF90AF909F908F90E6
:102240007F906F905F904F903F902F900895CF9325
:10225000DF93EC0161E088E037DC209711F460E067
:1022600004C0CF3FD10529F461E088E0DF91CF9130
:10227000FDCBEBEDF5E0E4918E2F90E0FC01319782
:10228000E231F10508F09DC08827EC57FF4F8F4FD2
:102290000C94402684B5806884BDC7BD97C084B5C2
:1022A000806284BDC8BD92C08091800080688093A8
:1022B0008000D0938900C093880088C080918000FE
:1022C000806280938000D0938B00C0938A007EC090
:1022D00080918000886080938000D0938D00C093AF
:1022E0008C0074C08091B00080688093B000C0936F
:1022F000B3006CC08091B00080628093B000C09346
:10230000B40064C080919000806880939000D09366
:102310009900C09398005AC0809190008062809389
:102320009000D0939B00C0939A0050C08091900081
:10233000886080939000D0939D00C0939C0046C01D
:102340008091A00080688093A0008091A0008F7B86
:102350008093A000D093A900C093A80037C08091BB
:10236000A00080628093A000D093AB00C093AA002D
:102370002DC08091A00088608093A000D093AD0014
:10238000C093AC0023C0809120018068809320011D
:10239000D0932901C093280119C080912001806247
:1023A00080932001D0932B01C0932A010FC080910C
:1023B0002001886080932001D0932D01C0932C01CF
:1023C00005C0C038D1050CF04FCF49CFDF91CF9178
:1023D0000895909149049111FCCF91E090934904A4
:1023E000909348042FEF2093470410924604260F41
:1023F000209345049093440490914404880F892BC2
:102400008093440480914304813061F4109243042A
:10241000809144048093BB008091BC0083FDF8CF81
:1024200085EC01C085EE8093BC0080914904813029
:10243000E1F380914604861710F460914604A3E20C
:10244000B4E0E3E0F4E080E0861721F09D91919301
:102450008F5FFACF08952F923F924F925F926F92C3
:102460007F928F929F92AF92BF92CF92DF92EF9224
:10247000FF920F931F93CF93DF93EC016B0198DBD7
:102480004B015C01E12CF12C93DBDC01CB018819C1
:102490009909AA09BB098C159D05AE05BF0510F069
:1024A00087E08AC08AE494E01FD903976CF38AE43A
:1024B00094E0F8D88A3A910539F78E01005E1F4FF3
:1024C0003E0182E2680E711C73DB609352047093CC
:1024D000530480935404909355048AE494E0E2D822
:1024E00097FF54C065DB2091520430915304409112
:1024F000540450915504DC01CB01821B930BA40BB7
:10250000B50B20914E0430914F04409150045091EE
:10251000510482179307A407B507F8F228A0312CBD
:1025200053E0359427945A95E1F73E012E0100E0DF
:1025300010E02016310681F03BDBDC01CB0188196D
:102540009909AA09BB098C159D05AE05BF0530F197
:10255000021513050CF4A4CF39A188A125E528277D
:1025600090E043E0959587954A95E1F7C80FD91F0C
:102570006C167D0629F0F30181913F012827F8CFE1
:10258000321302C084E018C08AE016C0F8018193BB
:102590008F01E615F70509F097CFC0CF8AE494E0E4
:1025A000A3D8892B31F20F5F1F4F8AE494E07AD8C9
:1025B000F20181932F01BDCFDF91CF911F910F9138
:1025C000FF90EF90DF90CF90BF90AF909F908F9053
:1025D0007F906F905F904F903F902F900895CF9293
:1025E000DF92EF92FF920F931F93CF93DF936C01D3
:1025F0007A018B01C0E0D0E0CE15DF0581F0D80173
:102600006D918D01D601ED91FC910190F081E02D4D
:10261000C6011995892B11F02196EECF7E01C701D5
:10262000DF91CF911F910F91FF90EF90DF90CF90AE
:1026300008950F931F93CF93DF93EC0188819981C5
:10264000009729F02A813B812617370788F48B01F0
:102650006F5F7F4F0E946927009761F0998388839D
:102660001B830A832C813D81232B11F4FC011082F2
:1026700081E001C080E0DF91CF911F910F9108951B
:10268000EF92FF920F931F93CF93DF936115710524
:1026900011F480E01BC041155105B9F07B01EC013C
:1026A0008C819D818A01080F191FB801CE01C1DFFD
:1026B000882379F3288139818C819D81B701820F2C
:1026C000931F0E9456281D830C8381E0DF91CF91D8
:1026D0001F910F91FF90EF900895CF93DF93EC013E
:1026E00088819981009711F00E94E0261982188252
:1026F0001D821C821B821A82DF91CF910895EF9276
:10270000FF920F931F93CF93DF93EC0119821882EE
:102710001B821A821D821C8261157105F9F08B01E2
:10272000CB010E94B21F7C01BC01CE0182DF81116E
:1027300008C0CE01DF91CF911F910F91FF90EF90D4
:10274000CCCFFD82EC82B80188819981DF91CF9155
:102750001F910F91FF90EF900C94AB1FDF91CF91E1
:102760001F910F91FF90EF900895EF92FF920F93BA
:102770001F93CF93DF93FC01118210821382128288
:10278000158214828617970729F1DB010D911C91A0
:10279000119701151105F1F0EC011496ED90FC90E4
:1027A0001597B70146DF811108C0CE01DF91CF91A7
:1027B0001F910F91FF90EF9090CFFD82EC82B801B6
:1027C00088819981DF91CF911F910F91FF90EF90B8
:1027D0000C945628DF91CF911F910F91FF90EF90AD
:1027E0000895A8E4B3E0E4E4F3E040E050E020E042
:1027F00063E070E08D91843018F48081837003C0B1
:10280000883038F4CB01042E01C0880F0A94EAF70F
:10281000282B31964E5F5F4F4830510559F7209372
:10282000470508952F923F924F925F926F927F9249
:102830008F929F92AF92BF92CF92DF92EF92FF92D0
:102840000F931F93CF93DF9300D000D0CDB7DEB7A7
:10285000782E162F642E4C8D3D8D9E8D8F8D53E0DE
:10286000571568F0662359F0613031F0C42ED32E2D
:10287000E92EF82E602E03C064017501622E862DAC
:1028800090E0E5DC68E775E080E090E059D983E00E
:10289000612F871548F0872D95D720E030E040E084
:1028A0005BE30E94142408C0872D8CD720E030EC15
:1028B0004FE754E40E94A3252AE037ED43E250E4B9
:1028C0000E9414242EE338EF40E850E40E941424C0
:1028D0004B015C0180E090E0BADC68E775E080E0E5
:1028E00090E02ED953E0612F872D5715D0F06AD78D
:1028F00020E030E040E05BE30E9414242AE037ED62
:1029000043E250E40E9414242EE338EF40E850E400
:102910000E94142411111BC020E030E040E85FE366
:1029200021C050D720E030EC4FE754E40E94A325AB
:102930002AE037ED43E250E40E9414242EE338EFFE
:1029400040E850E40E9414241B012C0127C01130E0
:1029500029F020E030E048E453E404C020E030E017
:1029600040E251E40E94A3251B012C01112339F000
:10297000113051F020E030E048E453E409C020E099
:1029800030E040E85FE304C020E030E040E251E4A2
:10299000C501B4010E94A3254B015C01A201910174
:1029A000C501B4010E943E259B01AC01B601C701DF
:1029B0000E94A3254B015C0163EF74E0CE010196F8
:1029C0009EDE60E0CE0101960E94281DCE01019698
:1029D000A2DB672DCE0101960E94FD1C60E0CE01B6
:1029E00001960E94281DCE01019695DB69EE74E0E8
:1029F000CE01019684DE60E0CE0101960E94281D82
:102A0000CE01019688DB612FCE010196F6D760E0FA
:102A1000CE0101960E94281DCE0101967CDB60EE5E
:102A200074E0CE0101966BDE60E0CE0101960E945B
:102A3000281DCE0101966FDB662DCE010196DDD7F4
:102A400060E0CE0101960E94281DCE01019663DB55
:102A500061ED74E0CE01019652DE60E0CE01019698
:102A6000F7D7CE01019657DBA601B701CE0101963B
:102A700001D760E0CE010196EBD7CE0101964BDB8A
:102A80006AEC74E0CE0101963ADE60E0CE01019678
:102A9000DFD7CE0101963FDBB501A401CE0101963F
:102AA000E9D660E0CE010196D3D7CE01019633DBA3
:102AB00063EC74E0CE01019622DE60E0CE01019667
:102AC000C7D7CE01019627DBA5019401C201B10150
:102AD0000E9414249B01AC0160E070E0CB010E94D5
:102AE0003E25AB01BC01CE010196C4D660E0CE010B
:102AF0000196AED7CE0101960EDB872D90E0FC014A
:102B0000EE0FFF1FE80FF91FE10FF11DEE0FFF1F82
:102B1000EE0FFF1FE050FE4F80829182A282B382AF
:102B200026960FB6F894DEBF0FBECDBFDF91CF91D2
:102B30001F910F91FF90EF90DF90CF90BF90AF90DB
:102B40009F908F907F906F905F904F903F902F90CD
:102B50000895CF93DF93CDB7DEB7E8970FB6F8941B
:102B6000DEBF0FBECDBF789484B5826084BD84B5CE
:102B7000816084BD85B5826085BD85B5816085BD78
:102B800080916E00816080936E0010928100809130
:102B900081008260809381008091810081608093B8
:102BA0008100809180008160809380008091B100DD
:102BB00084608093B1008091B00081608093B00008
:102BC000809191008260809391008091910081605A
:102BD000809391008091900081608093900080911B
:102BE000A10082608093A1008091A1008160809308
:102BF000A1008091A00081608093A00080912101BC
:102C00008260809321018091210181608093210164
:102C10008091200181608093200180917A008460FE
:102C200080937A0080917A00826080937A0080910C
:102C30007A00816080937A0080917A008068809326
:102C40007A001092C100E0915A04F0915B0482E096
:102C50008083E0915604F09157041082E09158046B
:102C6000F091590480E1808310926204E0915E0447
:102C7000F0915F0486E08083E0915C04F0915D0454
:102C8000808180618083E0915C04F0915D048081AB
:102C900088608083E0915C04F0915D0480818068AD
:102CA0008083E0915C04F0915D0480818F7D80835E
:102CB00061E085E10E94640D60E084E10E94640DA2
:102CC00061E084E10E94360DE4E1EE2EF12CF7EE96
:102CD000CF2EF5E0DF2EADE6AA2EA5E0BA2EB7E2A4
:102CE0008B2EB5E09B2E0E94541F2B013C0161707E
:102CF00085E10E94360D61E070E080E090E00E9486
:102D0000A00DF6018491F5010491F40114911123B1
:102D1000A1F081110E94E00CE12FF0E0EE0FFF1F07
:102D2000E750FB4FA591B4918C91082331E020E04E
:102D300009F430E0832F922F02C080E090E0092E4A
:102D4000000CAA0BBB0BF1E04F225524662477241C
:102D500084159505A605B70539F421E0E21AF108B6
:102D600009F0C1CF0E94D8041092E1021092E00253
:102D70001092DF021092DE021092490481E08093EB
:102D800048041092430461E084E10E94360D61E042
:102D900085E10E94360D8091B9008E7F8093B90045
:102DA0008091B9008D7F8093B90088E48093B8004A
:102DB00085E48093BC008FE09CE09093DD028093DB
:102DC000DC0280E19CE09093DB028093DA028CE0ED
:102DD0008093B80084E690E0A0E0B0E08093EB043C
:102DE0009093EC04A093ED04B093EE040DE115E094
:102DF00083EFE82E84E0F82E97E0B92ECE010196FD
:102E00006C01D601EB2D1D92EA95E9F781E090E087
:102E10000E9448269E838D83F601D7018B2D019059
:102E20000D928A95E1F7F7E0EF0EF11C0E151F05E4
:102E300041F71092440310924503109246031092FA
:102E400047031092480381E08093490382E0809316
:102E50004A0383E080934B0361E08DE00E94640DA0
:102E60006DE08FE395E032D862E08FE395E027D8FC
:102E70001092470564ECE62EF12C00EC10E0C8013E
:102E80000E94CB24873818F060E0C80102D9C7013E
:102E90000E94CB24843018F060E0C701FAD80F5F9D
:102EA0001F4F2FEFE21AF20A043C110541F78091FF
:102EB0006C0290916D02A0916E02B0916F028FA38F
:102EC00098A7A9A7BAA78BA39CA3ADA3BEA38983E8
:102ED0009A83AB83BC83CE018796DDD8FC018081C9
:102EE0009181A281B381892B8A2B8B2B09F4F0C3AA
:102EF000CE018396D0D8FC0180819181A281B381DB
:102F000081319742A105B10508F0E2C340E752E0E4
:102F100060E080E00E948D0380917A008E7F809334
:102F20007A0060E070E080E092E02FD960E670E027
:102F300082EE92E02AD90E94E1030E94D80D6093AC
:102F400088037093890380938A0390938B030FB651
:102F5000F894A89580916000886180936000109239
:102F600060000FBE80E890E072D98091B10290912C
:102F7000B202A091B302B091B4028DAB9EABAFABE5
:102F8000B8AFDE011596BCA7ABA70E94D80D653679
:102F900071058105910508F0A8958AE494E00E94E6
:102FA000740B892B09F4EDC068EB7BE08DE195E0B3
:102FB00052DA843009F0E5C080913D058770813098
:102FC00019F40E94E103DDC0843049F580911D05AC
:102FD000813019F48093940302C01092940360E04E
:102FE0008DE00E94360D48E4E42E43E0F42E04E424
:102FF00013E050ECC52ED12CF70161917F01C60181
:1030000048D8D8016D918D01C601049642D8BFEF12
:10301000CB1ADB0AE4ECCE16D10471F7AEC08630D1
:1030200039F50E94400303EF14E0E12CF12C80916C
:10303000420390914303E816F9060CF0A2C0D801B0
:1030400012968C9112978BA38C918CA322E0AE01E7
:103050004D5D5F4F63E0CE0101960E94720FCE017D
:1030600001965ED8BFEFEB1AFB0A095F1F4FDFCF57
:10307000833099F480911D0590E061E020911E0558
:10308000211101C060E0FC01EC5BFC4F60838C53BC
:103090009F4F0E944910A5DB74C0823009F045C0E3
:1030A00080911E0587FD0CC0D0901D05ED2DF0E030
:1030B000811184E0E85BFC4FD80ED08292DB29C0FE
:1030C00030E8D32ED80E03EF14E0E12CF12C8091E0
:1030D000420390914303E816F906DCF4F80180817D
:1030E000D81211C080911D0590E0FC01EE0FFF1F6A
:1030F000E457FC4F11830083FC01E85BFC4F2091F7
:103100001E0520836EDBFFEFEF1AFF0A095F1F4FDA
:10311000DECF80911D0590E0FC01E85BFC4F6081F3
:1031200080549F4F0E9449102CC0853051F58091EA
:103130001E0590E0982F882720911D05820F911D74
:10314000AC01990F660B770B40936C0250936D02A4
:1031500060936E0270936F028BA35CA36DA37EA33A
:1031600024E0AE014D5D5F4F65E0CE0101960E9407
:10317000720FCE0101960E9490108CE692E00E94A0
:103180006710F0909403F110B6C00E94D80D009122
:1031900088031091890320918A0330918B03DC010D
:1031A000CB01801B910BA20BB30B893E9340A10571
:1031B000B10508F448C00E944003A8E4CA2EA3E069
:1031C000DA2E00EC10E0C8010E94CB24D6018D93CA
:1031D0006D0187FF1DC020914203309143036CE8CD
:1031E00073E088E493E0E3EFF4E0AC01485453402B
:1031F000421753076CF4DC014D91CD0150815413FB
:1032000003C0DB01ED93FC9337966E5F7F4FEDCFEC
:103210000F5F1F4F043C1105B1F6F4E4CF2EF3E02D
:10322000DF2EC8010E94CB24F60181936F010F5F4E
:103230001F4F083C1105A9F78CE692E00E944B1045
:10324000F1E0F09394030E94D80D80908403909055
:103250008503A0908603B0908703DC01CB01881919
:103260009909AA09BB09893B9B40A105B105C0F199
:103270000E94D80D86169706A806B90671F00E941E
:10328000D80DDC01CB0188199909AA09BB0911E005
:1032900084369105A105B10508F010E00E94D80D13
:1032A000DC01CB0188199909AA09BB09893C910560
:1032B000A105B10580F00E94D80DDC01CB01881971
:1032C0009909AA09BB09FF24F3948C329140A10506
:1032D000B10508F0F12C612F6F298DE00E94360DA9
:1032E0000E94D80D609384037093850380938603B6
:1032F00090938703EAC160916C0270916D02809196
:103300006E0290916F020E94B3239B01AC0160E0BA
:1033100070E080E291E40E94A3256B017C0120E033
:1033200030E040E85FE30E94AF2387FD06C0C12C78
:10333000D12CE0E8EE2EEFE3FE2E8DA99EA9AFA9D9
:10334000B8AD89839A83AB83BC83DE0111964D01AE
:10335000F40121914F0180917A00806880937A0076
:103360006CE330E0F901EC5BFC4FA901440F551F01
:10337000CA01820F931F805A9D4F7081DC01A70FF5
:10338000B11D7C9170937C006150B9F780917A00F7
:103390008F7780937A00D901A85BBC4F8C9159013B
:1033A000AA0CBB1CAA0CBB1C87FD15C040E752E051
:1033B00060810E948D0385010C581C4FBC01990F40
:1033C000880B990B0E94B523D8016D937D938D9343
:1033D0009C93139786C0FA01E457FC4F008111813A
:1033E000F8018381833021F063E0C8010E94C60F99
:1033F000C8010E94980FD80111968C9111978730BF
:1034000089F41496ED91FC91159750814181328198
:103410002381852F942FA32FB22F8DA79EA7AFA70F
:10342000B8AB54C0813009F442C0823061F4D80195
:103430001496ED91FC9115976081062E000C770B88
:10344000880B990B2FC0833069F4D8011496ED9145
:10345000FC911597618170E0762F66278081680F57
:10346000711D2CC0843089F4D8011496ED91FC9123
:103470001597618170E0762F66278081680F711D36
:10348000072E000C880B990B0DC0853081F086301B
:1034900061F4D8011496ED91FC911597608170E06C
:1034A00080E090E00E94B5230DC0883079F4D80107
:1034B0001496ED91FC911597608170E080E090E0AA
:1034C0000E94B3236DA77EA78FA798ABF501EC5898
:1034D000FC4F8DA59EA5AFA5B8A980839183A2833B
:1034E000B38385010C591C4FA701960160E070E081
:1034F00080E89FE30E943E25D8012D913D914D919A
:103500005C910E9414242B013C01F501EC58FC4F06
:103510002081318142815381C701B6010E94142468
:103520009B01AC01C301B2010E943F25F8016083F9
:103530007183828393838BA59CA58816990609F0D5
:1035400007CF80916C0290916D02A0916E02B091B4
:103550006F020B97A105B10530F061E070E080E0EB
:1035600090E00E94A00D0E94D80D00916003109180
:1035700061032091620330916303DC01CB01801B66
:10358000910BA20BB30B00916C0210916D02209174
:103590006E0230916F0280179107A207B30708F4FB
:1035A00094C00E94D80DB62EC72ED82EA92E609397
:1035B000600370936103809362039093630310929E
:1035C0004605A4E6B3E0BCABABAB28E5E22E23E0B6
:1035D000F22E30E5832E33E0932EE2E4F5E0FAABF1
:1035E000E9AB00E010E0ABA9BCA94D905D906D90F7
:1035F0007D90BCABABAB20E030E84FEF53ECC301A8
:10360000B2010E943C2618166CF420E030E84FEF1F
:1036100053E4C301B2010E94AF2387FD06C06FEFE0
:1036200081E008C061E08EEF05C0C301B2010E94D5
:103630000B26872FF70160838183F2E0EF0EF11CE8
:10364000262F382F37FF03C0319521953109D4013A
:103650002C9311963C93B2E08B0E911CE9A9FAA928
:103660002193FAABE9AB881F8827881FA8014F5F19
:103670005F4F01C0880F4A95EAF770914605872B86
:10368000232E312C910121703327002E01C0220FEF
:103690000A94EAF7822B809346050E5F1F4F08308D
:1036A000110509F0A0CFB0924C03C0924D03D09207
:1036B0004E03A0924F03B0923F05C0924005D092B6
:1036C00041058FE395E00E9490100E94800B5DCC35
:1036D000C6010E9467101ACC1F93CF93DF931092FC
:1036E0004D0410924C0488EE93E0A0E0B0E080938B
:1036F0004E0490934F04A0935004B093510429EBCF
:1037000032E030934B0420934A0425EC30E03093B0
:1037100057042093560424EC30E03093590420934E
:10372000580420EC30E030935B0420935A0421ECE1
:1037300030E030935D0420935C0422EC30E0309361
:103740005F0420935E0426EC30E030936104209304
:103750006004109263041092640410926504109245
:1037600066041092EA041092E9048093EB049093AB
:10377000EC04A093ED04B093EE048BEC92E09093F4
:10378000E8048093E7048FE395E00E94960F8DE1B3
:1037900095E00E94960FC3EFD4E017E0FE01812F61
:1037A00011928A95E9F781E090E00E9448269D8376
:1037B0008C832796E5E0CD31DE0781F7DF91CF914D
:1037C0001F9108954F925F926F927F928F929F9276
:1037D000AF92BF92CF92DF92EF92FF92CF93DF939F
:1037E000C82FD62F0E94D80D2B013C01812C912C83
:1037F0005401C12CD12C76010E94D80DDC01CB01E3
:1038000084199509A609B709883C9105A105B10558
:10381000C8F440E752E06D2F8C2F0E948D03BC014D
:10382000990F880B990BA1D79B01AC01C701B60179
:103830000E943F256B017C018FEF881A980AA80A25
:10384000B80ADACFC501B4018ED79B01AC01C7011C
:10385000B6010E94A325DF91CF91FF90EF90DF90FA
:10386000CF90BF90AF909F908F907F906F905F9020
:103870004F900895EF92FF920F931F93CF93DF9392
:10388000CDB7DEB7A1970FB6F894DEBF0FBECDBFA0
:103890007C01CB01BA01F7011182108213821282DE
:1038A000158214828E010F5F1F4F23E045E095D2F1
:1038B000BC01C70175D1A1960FB6F894DEBF0FBE4B
:1038C000CDBFDF91CF911F910F91FF90EF900895A1
:1038D0000F931F93CF93DF93CDB7DEB762970FB6E9
:1038E000F894DEBF0FBECDBF8C01CB01F801118271
:1038F000108213821282158214824AE0BE016F5F29
:103900007F4F39D3BE016F5F7F4FC80149D16296A7
:103910000FB6F894DEBF0FBECDBFDF91CF911F91E0
:103920000F9108952F923F924F925F926F927F92E4
:103930008F929F92AF92BF92CF92DF92EF92FF92BF
:103940000F931F93CF93DF9300D000D0CDB7DEB796
:103950002C013B0100E010E05201A00EB11EE12C51
:10396000F12C1301200E311EF50181919191A1914D
:10397000B1915F0189839A83AB83BC83CE010196A9
:103980009E838D83C12CD12C41018E0C9F1CED8117
:10399000FE816191FE83ED83C4018C0D9D1D0E940B
:1039A000D324FFEFCF1ADF0A84E0C816D10479F7D9
:1039B00094E0E90EF11CECE0EE16F104A9F6045FC8
:1039C0001F4F0036110541F626960FB6F894DEBF5C
:1039D0000FBECDBFDF91CF911F910F91FF90EF9060
:1039E000DF90CF90BF90AF909F908F907F906F901F
:1039F0005F904F903F902F9008950F931F93CF9318
:103A0000DF93CDB7DEB729970FB6F894DEBF0FBEB0
:103A1000CDBF8C01862FF801118210821382128291
:103A2000158214824AE0BE016F5F7F4F90E0ADD2F5
:103A3000BE016F5F7F4FC801B3D029960FB6F894CF
:103A4000DEBF0FBECDBFDF91CF911F910F910895C3
:103A50009F92AF92BF92CF92DF92EF92FF920F931D
:103A60001F93CF93DF93CDB7DEB7A2970FB6F8942D
:103A7000DEBF0FBECDBF6C01662319F082E0982E29
:103A800002C099249394E12CF12CD60114960D9147
:103A90001C9115975701E016F10608F041C00E1968
:103AA0001F090E31110510F00EE110E0CE01019654
:103AB0000E94960F64E0CE0101960E945F0F61E0C4
:103AC000600FCE0101960E94660F9982E00EF11EF2
:103AD000F60144815581E416F50610F484E08983EB
:103AE000FE013296C5019C012A193B0920173107B6
:103AF00094F48417950758F4D6012D913C91211523
:103B0000310529F0D901A80FB91F2C9101C020E07F
:103B100021930196E8CFCE0101960E949010B5CF77
:103B2000A2960FB6F894DEBF0FBECDBFDF91CF9146
:103B30001F910F91FF90EF90DF90CF90BF90AF90CB
:103B40009F900895EF92FF920F931F93CF93DF936F
:103B50006115710511F480E01CC08B01EC01CB01F3
:103B600001D20097A9F02C813D817C01E20EF31E69
:103B7000B701CE010E941913882369F32881398186
:103B80008C819D81B801820F931FE5D1FD82EC826B
:103B900081E0DF91CF911F910F91FF90EF900895F9
:103BA000EF92FF920F931F93CF93DF938C017B01D2
:103BB0006115710569F0FB0101900020E9F731976B
:103BC000EF01C61BD70BBE010E941913811104C05F
:103BD000C8010E946D1308C0F801D583C483B701E2
:103BE000808191810E945628C801DF91CF911F9159
:103BF0000F91FF90EF9008958F929F92AF92BF9296
:103C0000CF92DF92EF92FF920F931F93CF93DF93A8
:103C1000CDB7DEB7E0970FB6F894DEBF0FBECDBFCD
:103C20005C018AE494E00E94740B892B29F08AE4F9
:103C300094E00E94520BF5CFD50114968D919C9182
:103C400015978E010F5F1F4F892B81F4C8010E94C9
:103C5000960F67E0C8010E945F0F61E0C8010E94F3
:103C6000660F81E08983C8010E949010C12CD12C7D
:103C7000F501E480F5804601CE14DF0408F041C070
:103C8000EC18FD08FEE1EF16F10418F03EE1E32E1A
:103C9000F12CC8010E94960F67E0C8010E945F0FD7
:103CA00061E06E0DC8010E94660FCE0CDF1CD501CD
:103CB00014964D915C91159781E0C416D50608F4D1
:103CC00080E08983FE013296C4019C0128193909DC
:103CD0002E153F0594F48417950758F4D5012D91BE
:103CE0003C912115310529F0D901A80FB91F2C915C
:103CF00001C020E021930196E8CFC8010E949010F6
:103D0000B7CFC8010E94960F8AE494E00E94740B1A
:103D1000892B11F4A895F8CF68EE73E0C8010E94D2
:103D20002B12843089F789A18770873069F769E1A0
:103D300076E0CE0189960E947F13780189A190E0F8
:103D400023E0959587952A95E1F79701201B310B84
:103D500028173907F4F4F70181917F011CA21BA2F7
:103D60001EA21DA218A61FA28FA718AABE01615DE0
:103D70007F4FCE01839614DF4FA158A56BA17CA184
:103D8000CE0189960E944013CE0183960E948B102B
:103D9000D5CF89A59AA5009721F0DAD06B017C01D7
:103DA00003C0C12CD12C7601CE0189960E948B10C4
:103DB000C701B601E0960FB6F894DEBF0FBECDBFC7
:103DC000DF91CF911F910F91FF90EF90DF90CF90F7
:103DD000BF90AF909F908F900895EF920F931F9395
:103DE000CF93DF93E80147FD02C034E001C034E126
:103DF000042E000C550B57FF03C0519541955109F6
:103E0000E32E022F242FAE01D9D0CE01DF91CF9126
:103E10001F910F91EF9008958F929F92AF92BF9252
:103E2000CF92DF92EF92FF92CF93DF93EC01688104
:103E300079818A819B81611571058105910521F444
:103E400064E279ED8BE597E02DE133EF41E050E05E
:103E5000B8D549015A019B01AC01A7EAB1E4CDD51F
:103E60006B017C01ACEEB4EFA5019401D2D5DC016D
:103E7000CB018C0D9D1DAE1DBF1DB7FF03C001976B
:103E8000A109B04888839983AA83BB83BC01CD0173
:103E90009F77DF91CF91FF90EF90DF90CF90BF9011
:103EA000AF909F908F9008958F929F92AF92BF9204
:103EB000CF92DF92EF92FF92609188027091890217
:103EC00080918A0290918B0261157105810591059F
:103ED00021F464E279ED8BE597E02DE133EF41E0E9
:103EE00050E06FD549015A019B01AC01A7EAB1E44A
:103EF00084D56B017C01ACEEB4EFA501940189D5AA
:103F0000DC01CB018C0D9D1DAE1DBF1DB7FF03C095
:103F10000197A109B0488093880290938902A093E9
:103F20008A02B0938B02BC01CD019F77FF90EF9086
:103F3000DF90CF90BF90AF909F908F900895609347
:103F400088027093890280938A0290938B0208956D
:103F500066277727A9C1FB01DC0105900D9200209F
:103F6000E1F70895FC0105900020E9F78095909510
:103F70008E0F9F1F0895BB274A3031F4992322F4F6
:103F8000BDE2909581959F4F01C0BB27FB0155274E
:103F9000AA27880F991FAA1FA41710F0A41B8395A6
:103FA0005051B9F7A05DAA3308F0A95DA19300971D
:103FB00079F7B111B1931192CB01C1C38F929F9246
:103FC000AF92BF92CF92DF92EF92FF920F931F9327
:103FD000CF93DF93CDB7DEB729970FB6F894DEBF46
:103FE0000FBECDBF6A01122FB02E2BE3201720F099
:103FF000FF24F394F00E02C02CE3F22E0F2D27E0E5
:10400000AE014F5F5F4FA3D2BC014981842F8970FD
:10401000813031F0E1FC06C0E0FE06C090E205C050
:104020009DE203C09BE201C090E05E2D507143FF12
:104030003CC0911102C083E001C084E0811718F4F4
:10404000212F281B01C020E051110BC0F601822F47
:1040500030E2882319F031938150FBCFC20ED11C7E
:1040600020E0992329F0D6019C93F60131966F0147
:10407000C6010396E2FE0AC03EE4D6013C9341E449
:1040800011964C93119712963C9306C03EE6F601AA
:10409000308341E641833283FC01322F40E23323F7
:1040A00009F442C041933150FACF42FF44C091110C
:1040B00002C083E001C084E0811718F4212F281B7F
:1040C00001C020E051110BC0F601822F30E288239D
:1040D00019F031938150FBCFC20ED11C20E09923FF
:1040E00029F0D6019C93F60131966F01C601039623
:1040F000E2FE0BC039E4D6013C933EE411963C93BA
:10410000119736E412963C9307C039E6F6013083E6
:104110003EE6318336E63283FC01322F40E2332320
:1041200019F041933150FBCFFC01E20FF11D1082D9
:104130008EEF9FEFA6C021E030E0911102C020E099
:1041400030E0161617061CF4FB01319602C0E1E0C0
:10415000F0E02E0F3F1FBB2021F0EB2DF0E0319659
:1041600002C0E0E0F0E02E0F3F1FE12FF0E02E173D
:104170003F071CF4121B212F01C020E08E2D8871F7
:1041800059F4F601822F30E2882319F031938150DF
:10419000FBCFC20ED11C20E0992329F0D6019C93BD
:1041A000F60131966F0151110BC0F601822F90E399
:1041B000882319F091938150FBCFC20ED11C20E0CF
:1041C0000F2D060F9A81342F307144FF03C09133B5
:1041D00009F40150101624F4093018F008E001C069
:1041E00001E0AB0177FF02C040E050E0FB01E41BBF
:1041F000F50BA1E0B0E0AC0FBD1FEA0FFB1F8EE294
:10420000A82E4B01801A91080B2D10E011950195F5
:1042100011094F3FBFEF5B0721F4D601AC92119615
:104220006D01641775072CF08416950614F48181CE
:1042300001C080E3415051093196D60111967D01AC
:104240004017510724F0D6018C936701E2CF641721
:10425000750739F4963320F4953319F4311101C000
:1042600081E3F6018083F701822F90E2882319F021
:1042700091938150FBCFF701E20FF11D108280E096
:1042800090E029960FB6F894DEBF0FBECDBFDF9148
:10429000CF911F910F91FF90EF90DF90CF90BF9043
:1042A000AF909F908F9008958F929F92AF92BF9200
:1042B000CF92DF92EF92FF920F931F93CF93DF93F2
:1042C000EC016B016115710519F0FB01918380838D
:1042D0007E01FFEFEF1AFF0A0881802F90E00FD2D6
:1042E000892B11F0E701F4CF0D3239F47E0182E021
:1042F000E80EF11C098111E008C00B3229F47E019F
:1043000092E0E90EF11C098110E0E701219743E0FA
:1043100050E064E371E0CE01FAD1892BB9F4239621
:1043200045E050E06FE271E0CE01F1D1892B09F454
:104330002596C114D10419F0F601D183C08311115F
:10434000F0C060E070E080E89FE7F4C043E050E038
:104350006CE271E0CE01DBD1892B59F4C114D10498
:1043600009F4E4C0F2E0EF0EF11CF601F182E08204
:10437000DDC020E030E0A901C0E0D0E0F70160ED51
:10438000A62EA00E89E08A1528F1912F9260B92EF1
:10439000812F887012FF04C0811123C0219621C093
:1043A00081112197A5E0B0E028D3DC01CB01880F73
:1043B000991FAA1FBB1F9C01AD012A0D311D411D74
:1043C000511D283989E93807480789E1580748F01D
:1043D000166006C09EEFA9120AC013FD40C0186007
:1043E000B12E8FEFE81AF80A00811B2DC7CF802F5E
:1043F0008F7D8534A1F580818D3211F4106106C066
:104400008B3221F0319661E070E004C081813296F8
:1044100062E070E080538A3018F0E61BF70B1FC093
:1044200060E070E060389CE079075CF4DB01AA0F83
:10443000BB1FAA0FBB1F6A0F7B1F660F771F680F7A
:10444000711D3196DF0111978C9180538A3050F3A2
:1044500014FF03C0719561957109C60FD71F11FF35
:1044600008C0C114D10429F0CF010197F60191834E
:104470008083CA01B90177D1212F2370233019F02D
:104480004B015C0106C04B015C01B7FAB094B7F870
:10449000B09420E030E0A901C501B40160D18823C7
:1044A00009F43CC0D7FF06C0D195C195D1090BE4F2
:1044B00011E002C003E611E06801F8E1CF1AD1086B
:1044C00090E2E92EF12CCE15DF056CF0F801259174
:1044D000359145915491C501B401A6D14B015C01C0
:1044E000CE19DF09F0CF04501109F594E7940C15AB
:1044F0001D0549F78A2D880F8B2D881F8F3F41F0AE
:1045000020E030E0A901C501B40129D1811106C024
:1045100082E290E09093620580936105C501B40149
:1045200009C060E070E080E89FEF04C060E070E0E8
:1045300080EC9FE7DF91CF911F910F91FF90EF905B
:10454000DF90CF90BF90AF909F908F9008952830CC
:1045500008F027E03327DA01990F311D87FD9160BC
:1045600000966105710539F432602E5F3D9330E3AA
:104570002A95E1F708959F3F30F080387105610575
:1045800009F03C5F3C5F3D93913008F08068911DDD
:10459000DF93CF931F930F93FF92EF92192F987F82
:1045A0009695E92F96959695E90FFF27EF53FE4FC5
:1045B00099273327EE24FF24A701E70105900894EB
:1045C000079428F4360FE71EF81E491F511D660F89
:1045D000771F881F991F0694A1F70590079428F468
:1045E000E70EF81E491F561FC11D770F881F991F20
:1045F000661F0694A1F70590079428F4F80E491F4A
:10460000561FC71FD11D880F991F661F771F06945D
:10461000A1F70590079420F4490F561FC71FD81F14
:10462000990F661F771F881F0694A9F7849110952C
:10463000177041F0D695C79557954795F794E7942D
:104640001A95C1F7E7E6F1E0689415901591359158
:104650006591959105907FE27395E118F10A430BFE
:10466000560BC90BD009C0F7E10CF11E431F561FB2
:10467000C91FD01D7EF4703311F48A95E6CFE894FB
:10468000015030F0080F0AF40027021708F4202F19
:104690002395022F7A3328F079E37D932A95E9F761
:1046A00010C07D932A9589F606949795679537955E
:1046B00017951794E118F10A430B560BC90BD00953
:1046C00098F023957E9173957A3308F070E37C938C
:1046D0002013B8F77E9170617D9330F0839571E37C
:1046E0007D9370E32A95E1F71124EF90FF900F91ED
:1046F0001F91CF91DF91992787FD90950895911192
:10470000F6C0803219F089508550D0F70895FB012A
:10471000DC014150504088F08D9181341CF08B3584
:104720000CF4805E659161341CF06B350CF4605EB6
:10473000861B611171F3990B0895881BFCCFDC0176
:10474000FC01672F71917723E1F7329704C07C91C8
:104750006D9370836291AE17BF07C8F3089540D080
:1047600008F481E00895E89409C097FB3EF4909521
:104770008095709561957F4F8F4F9F4F9923A9F03A
:10478000F92F96E9BB279395F695879577956795C9
:10479000B795F111F8CFFAF4BB0F11F460FF1BC00D
:1047A0006F5F7F4F8F4F9F4F16C0882311F096E9A0
:1047B00011C0772321F09EE8872F762F05C066234E
:1047C00071F096E8862F70E060E02AF09A95660F07
:1047D000771F881FDAF7880F9695879597F90895C0
:1047E000990F0008550FAA0BE0E8FEEF1616170602
:1047F000E807F907C0F012161306E407F50798F06A
:10480000621B730B840B950B39F40A2661F0232B82
:10481000242B252B21F408950A2609F4A140A695FE
:104820008FEF811D811D08950BD07BC06CD028F0C7
:1048300071D018F0952309F05DC062C01124A5C0A5
:1048400081D0A0F3959FD1F3950F50E0551F629F43
:10485000F001729FBB27F00DB11D639FAA27F00DD9
:10486000B11DAA1F649F6627B00DA11D661F829F00
:104870002227B00DA11D621F739FB00DA11D621FE5
:10488000839FA00D611D221F749F3327A00D611D02
:10489000231F849F600D211D822F762F6A2F1124E4
:1048A0009F5750408AF0E1F088234AF0EE0FFF1F37
:1048B000BB1F661F771F881F91505040A9F79E3F6E
:1048C000510570F017C061C05F3FECF3983EDCF318
:1048D000869577956795B795F795E7959F5FC1F7AB
:1048E000FE2B880F911D9695879597F90895992726
:1048F0008827089597F99F6780E870E060E0089541
:104900009FEF80EC089500240A94161617061806E7
:104910000906089500240A941216130614060506C3
:104920000895092E0394000C11F4882352F0BB0F54
:1049300040F4BF2B11F460FF04C06F5F7F4F8F4FB7
:104940009F4F089557FD9058440F551F59F05F3FF2
:1049500071F04795880F97FB991F61F09F3F79F0A1
:1049600087950895121613061406551FF2CF469523
:10497000F1DF08C0161617061806991FF1CF8695A5
:104980007105610508940895E894BB276627772789
:10499000CB0197F90895F999FECF92BD81BDF89AA0
:1049A000992780B50895262FF999FECF1FBA92BD99
:1049B00081BD20BD0FB6F894FA9AF99A0FBE019600
:1049C0000895052E97FB16F400940FD057FD05D0DF
:1049D00024D007FC02D046F408C05095409530958D
:1049E00021953F4F4F4F5F4F08959095809570955B
:1049F00061957F4F8F4F9F4F089531D0A59F900DA8
:104A0000B49F900DA49F800D911D11240895B7FFB0
:104A1000F4CFF3DF821B930B0895A1E21A2EAA1B99
:104A2000BB1BFD010DC0AA1FBB1FEE1FFF1FA2175E
:104A3000B307E407F50720F0A21BB30BE40BF50B5B
:104A4000661F771F881F991F1A9469F760957095E4
:104A5000809590959B01AC01BD01CF010895A29F67
:104A6000B001B39FC001A39F700D811D1124911D42
:104A7000B29F700D811D1124911D08955058BB27C0
:104A8000AA270ED04ECF3FDF30F044DF20F031F4C4
:104A90009F3F11F41EF434CF0EF4E095E7FB2ACFCC
:104AA000E92F50DF80F3BA17620773078407950771
:104AB00018F071F49EF568CF0EF4E0950B2EBA2F26
:104AC000A02D0B01B90190010C01CA01A001112414
:104AD000FF27591B99F0593F50F4503E68F11A16C0
:104AE000F040A22F232F342F4427585FF3CF469551
:104AF00037952795A795F0405395C9F77EF41F1673
:104B0000BA0B620B730B840BBAF09150A1F0FF0F3C
:104B1000BB1F661F771F881FC2F70EC0BA0F621F28
:104B2000731F841F48F4879577956795B795F79518
:104B30009E3F08F0B3CF9395880F08F09927EE0FAA
:104B40009795879508950CD0ECCEE4DE40F0DBDE3F
:104B500030F021F45F3F19F0CDCE511116CFD0CEF9
:104B6000F1DE98F39923C9F35523B1F3951B550B47
:104B7000BB27AA2762177307840738F09F5F5F4F30
:104B8000220F331F441FAA1FA9F333D00E2E3AF071
:104B9000E0E830D091505040E695001CCAF729D08B
:104BA000FE2F27D0660F771F881FBB1F26173707DA
:104BB0004807AB07B0E809F0BB0B802DBF01FF270A
:104BC00093585F4F2AF09E3F510568F093CEDDCE9B
:104BD0005F3FECF3983EDCF3869577956795B79544
:104BE000F7959F5FC9F7880F911D9695879597F95F
:104BF0000895E1E0660F771F881FBB1F62177307D8
:104C00008407BA0720F0621B730B840BBA0BEE1FEC
:104C100088F7E095089504D06894B111B6CE089550
:104C200099DE88F09F5790F0B92F9927B751A0F0DF
:104C3000D1F0660F771F881F991F1AF0BA95C9F730
:104C400012C0B13081F0A0DEB1E008959DCE672F93
:104C5000782F8827B85F39F0B93FCCF386957795E0
:104C60006795B395D9F73EF49095809570956195C9
:104C70007F4F8F4F9F4F0895B3DD08F48FEF089556
:104C8000EE0FFF1F881F8BBF0790F691E02D199440
:104C90000F931F93CF93DF938230910510F482E03E
:104CA00090E0E0916505F091660520E030E0A0E03D
:104CB000B0E0309719F1408151810281138148178A
:104CC0005907C8F08417950769F4109731F01296C8
:104CD0000C93129713961C9327C0009365051093AD
:104CE000660522C02115310519F04217530718F443
:104CF0009A01BD01EF01DF01F801DBCF211531057C
:104D0000F9F0281B390B2430310580F48A819B810E
:104D10006115710521F0FB019383828304C0909398
:104D2000660580936505FE01329644C0FE01E20FE0
:104D3000F31F8193919322503109398328833AC01C
:104D40002091630530916405232B41F420918E025C
:104D500030918F02309364052093630520918C027B
:104D600030918D022115310541F42DB73EB74091A8
:104D7000900250919102241B350BE0916305F09154
:104D80006405E217F307A0F42E1B3F0B2817390721
:104D900078F0AC014E5F5F4F2417350748F04E0F97
:104DA0005F1F50936405409363058193919302C004
:104DB000E0E0F0E0CF01DF91CF911F910F910895D6
:104DC000CF93DF93009709F481C0FC0132971382DF
:104DD0001282A0916505B0916605109781F420813B
:104DE0003181820F931F209163053091640528174C
:104DF000390751F5F0936405E093630567C0ED0151
:104E000020E030E0CE17DF0740F44A815B819E014D
:104E100041155105F1F0EA01F5CFD383C2834081FA
:104E20005181840F951FC817D90759F4888199813A
:104E3000840F951F0296918380838A819B8193833F
:104E400082832115310529F4F0936605E093650509
:104E50003DC0E901FB83EA8349915991C40FD51FF5
:104E6000EC17FD0761F480819181840F951F0296F4
:104E7000E90199838883828193819B838A83E0E01F
:104E8000F0E012968D919C911397009719F0FD0117
:104E9000DC01F7CF8D919C9111979D012E5F3F4FC3
:104EA000820F931F209163053091640528173907FD
:104EB00069F4309729F4109266051092650502C0D6
:104EC00013821282B0936405A0936305DF91CF91A2
:104ED00008956F927F928F929F92AF92BF92CF92DE
:104EE000DF92EF92FF920F931F93CF93DF93009780
:104EF00081F4CB01DF91CF911F910F91FF90EF9043
:104F0000DF90CF90BF90AF909F908F907F906F90E9
:104F1000BFCEFC01E60FF71F9C0122503109E217BA
:104F2000F30708F4A5C0EC01D9010D911C9111976C
:104F300006171707A8F00530110508F497C0C80137
:104F400004978617970708F491C002501109061BB1
:104F5000170B019311936D937C93CF0131DF86C0C2
:104F60005B01A01AB10A4C01800E911EA09165054B
:104F7000B0916605612C712CE12CF12C109709F48D
:104F800046C08D919C911197A815B905B1F56C019A
:104F900042E0C40ED11CCA14DB0478F14C018A181B
:104FA0009B08640142E0C40ED11C1296BC9012977B
:104FB0001396AC91B5E0CB16D10440F0B282A38336
:104FC00091828082D9016D937C9309C00E5F1F4F3F
:104FD000800F911FF90191838083EB2DFA2FE1144B
:104FE000F10431F0D7011396FC93EE9312973EC073
:104FF000F0936605E093650539C06816790608F4F4
:105000003C017D0112960D90BC91A02DB7CF8091EF
:1050100063059091640588169906E1F46616770693
:10502000C8F480918C0290918D02009741F48DB765
:105030009EB74091900250919102841B950BE81706
:10504000F907B0F4F0936405E0936305F901718307
:1050500060830CC0CB011CDE7C01009749F0A801E5
:10506000BE011BD0CE01ACDEC70104C0CE0102C020
:1050700080E090E0DF91CF911F910F91FF90EF9032
:10508000DF90CF90BF90AF909F908F907F906F9068
:10509000089581E090E0F89410C0FB01DC0102C0AB
:1050A00001900D9241505040D8F70895FB01DC016A
:0E50B00001900D920020E1F70895F894FFCFD3
:1050BE000000803F0000803F0000803F0000803FE6
:1050CE000000803F0000803F0000803F0000803FD6
:1050DE000000803F0000803F0000803F0000803FC6
:1050EE000000803F0000803F0000803F0000803FB6
:1050FE000000803F0000803F0000803F0000803FA6
:10510E000000803F0000803F0000803F0000803F95
:10511E0011080A1A0C0E31282A3A2C2E0100000012
:10512E0010090B1B0D0F30292B3B2D2F00000002F9
:10513E00020220202022222201000000000067052A
:10514E008000FF19010101010100010101010100AF
:10515E000101010101010101010101010101010131
:10516E00010001020300000000980AEF12430BBF7A
:10517E000C740B520B660B00000000690C3D0C9872
:0A518E000C110C350C210C120C0062
:00000001FF
